{
  "_format": "hh3-artifact-1",
  "contractName": "TaskManager",
  "sourceName": "contracts/TaskManager.sol",
  "abi": [
    {
      "inputs": [
        {
          "internalType": "address",
          "name": "_tokenAddress",
          "type": "address"
        },
        {
          "internalType": "address",
          "name": "_verifierAddress",
          "type": "address"
        }
      ],
      "stateMutability": "nonpayable",
      "type": "constructor"
    },
    {
      "inputs": [],
      "name": "ReentrancyGuardReentrantCall",
      "type": "error"
    },
    {
      "anonymous": false,
      "inputs": [
        {
          "indexed": true,
          "internalType": "uint256",
          "name": "taskId",
          "type": "uint256"
        },
        {
          "indexed": true,
          "internalType": "address",
          "name": "client",
          "type": "address"
        },
        {
          "indexed": false,
          "internalType": "string",
          "name": "merkleRoot",
          "type": "string"
        }
      ],
      "name": "ClientJoined",
      "type": "event"
    },
    {
      "anonymous": false,
      "inputs": [
        {
          "indexed": true,
          "internalType": "uint256",
          "name": "taskId",
          "type": "uint256"
        },
        {
          "indexed": true,
          "internalType": "uint256",
          "name": "round",
          "type": "uint256"
        }
      ],
      "name": "RoundComplete",
      "type": "event"
    },
    {
      "anonymous": false,
      "inputs": [
        {
          "indexed": true,
          "internalType": "uint256",
          "name": "taskId",
          "type": "uint256"
        },
        {
          "indexed": true,
          "internalType": "address",
          "name": "creator",
          "type": "address"
        },
        {
          "indexed": false,
          "internalType": "string",
          "name": "modelType",
          "type": "string"
        },
        {
          "indexed": false,
          "internalType": "uint256",
          "name": "rewardPool",
          "type": "uint256"
        }
      ],
      "name": "TaskCreated",
      "type": "event"
    },
    {
      "anonymous": false,
      "inputs": [
        {
          "indexed": true,
          "internalType": "uint256",
          "name": "taskId",
          "type": "uint256"
        },
        {
          "indexed": true,
          "internalType": "uint256",
          "name": "round",
          "type": "uint256"
        },
        {
          "indexed": true,
          "internalType": "address",
          "name": "client",
          "type": "address"
        },
        {
          "indexed": false,
          "internalType": "string",
          "name": "deltaCID",
          "type": "string"
        }
      ],
      "name": "UpdateSubmitted",
      "type": "event"
    },
    {
      "inputs": [
        {
          "internalType": "string",
          "name": "_modelType",
          "type": "string"
        },
        {
          "internalType": "uint256",
          "name": "_rewardPool",
          "type": "uint256"
        },
        {
          "internalType": "uint256",
          "name": "_rounds",
          "type": "uint256"
        },
        {
          "internalType": "uint256",
          "name": "_minClients",
          "type": "uint256"
        },
        {
          "internalType": "uint256",
          "name": "_stakeRequired",
          "type": "uint256"
        }
      ],
      "name": "createTask",
      "outputs": [],
      "stateMutability": "nonpayable",
      "type": "function"
    },
    {
      "inputs": [
        {
          "internalType": "uint256",
          "name": "_taskId",
          "type": "uint256"
        },
        {
          "internalType": "string",
          "name": "_merkleRoot",
          "type": "string"
        }
      ],
      "name": "joinTask",
      "outputs": [],
      "stateMutability": "nonpayable",
      "type": "function"
    },
    {
      "inputs": [
        {
          "internalType": "uint256",
          "name": "",
          "type": "uint256"
        },
        {
          "internalType": "uint256",
          "name": "",
          "type": "uint256"
        }
      ],
      "name": "roundSubmissionCount",
      "outputs": [
        {
          "internalType": "uint256",
          "name": "",
          "type": "uint256"
        }
      ],
      "stateMutability": "view",
      "type": "function"
    },
    {
      "inputs": [
        {
          "internalType": "uint256",
          "name": "",
          "type": "uint256"
        },
        {
          "internalType": "uint256",
          "name": "",
          "type": "uint256"
        },
        {
          "internalType": "address",
          "name": "",
          "type": "address"
        }
      ],
      "name": "submissions",
      "outputs": [
        {
          "internalType": "string",
          "name": "deltaCID",
          "type": "string"
        },
        {
          "internalType": "uint256",
          "name": "lossBefore",
          "type": "uint256"
        },
        {
          "internalType": "uint256",
          "name": "lossAfter",
          "type": "uint256"
        }
      ],
      "stateMutability": "view",
      "type": "function"
    },
    {
      "inputs": [
        {
          "internalType": "uint256",
          "name": "_taskId",
          "type": "uint256"
        },
        {
          "internalType": "uint256",
          "name": "_round",
          "type": "uint256"
        },
        {
          "internalType": "string",
          "name": "_deltaCID",
          "type": "string"
        },
        {
          "internalType": "uint256",
          "name": "_lossBefore",
          "type": "uint256"
        },
        {
          "internalType": "uint256",
          "name": "_lossAfter",
          "type": "uint256"
        },
        {
          "internalType": "bytes",
          "name": "_proofData",
          "type": "bytes"
        }
      ],
      "name": "submitUpdate",
      "outputs": [],
      "stateMutability": "nonpayable",
      "type": "function"
    },
    {
      "inputs": [
        {
          "internalType": "uint256",
          "name": "",
          "type": "uint256"
        },
        {
          "internalType": "address",
          "name": "",
          "type": "address"
        }
      ],
      "name": "taskClients",
      "outputs": [
        {
          "internalType": "bool",
          "name": "isRegistered",
          "type": "bool"
        },
        {
          "internalType": "uint256",
          "name": "stake",
          "type": "uint256"
        },
        {
          "internalType": "string",
          "name": "merkleRoot",
          "type": "string"
        }
      ],
      "stateMutability": "view",
      "type": "function"
    },
    {
      "inputs": [],
      "name": "taskCounter",
      "outputs": [
        {
          "internalType": "uint256",
          "name": "",
          "type": "uint256"
        }
      ],
      "stateMutability": "view",
      "type": "function"
    },
    {
      "inputs": [
        {
          "internalType": "uint256",
          "name": "",
          "type": "uint256"
        }
      ],
      "name": "tasks",
      "outputs": [
        {
          "internalType": "uint256",
          "name": "id",
          "type": "uint256"
        },
        {
          "internalType": "address",
          "name": "creator",
          "type": "address"
        },
        {
          "internalType": "string",
          "name": "modelType",
          "type": "string"
        },
        {
          "internalType": "uint256",
          "name": "rewardPool",
          "type": "uint256"
        },
        {
          "internalType": "uint256",
          "name": "rounds",
          "type": "uint256"
        },
        {
          "internalType": "uint256",
          "name": "minClients",
          "type": "uint256"
        },
        {
          "internalType": "uint256",
          "name": "stakeRequired",
          "type": "uint256"
        },
        {
          "internalType": "uint256",
          "name": "currentRound",
          "type": "uint256"
        },
        {
          "internalType": "bool",
          "name": "isActive",
          "type": "bool"
        }
      ],
      "stateMutability": "view",
      "type": "function"
    },
    {
      "inputs": [],
      "name": "token",
      "outputs": [
        {
          "internalType": "contract IERC20",
          "name": "",
          "type": "address"
        }
      ],
      "stateMutability": "view",
      "type": "function"
    },
    {
      "inputs": [],
      "name": "verifier",
      "outputs": [
        {
          "internalType": "contract IVerifier",
          "name": "",
          "type": "address"
        }
      ],
      "stateMutability": "view",
      "type": "function"
    }
  ],
  "bytecode": "0x608060405234801562000010575f80fd5b50604051620023713803806200237183398181016040528101906200003691906200017c565b6001620000586200004c620000e560201b60201c565b6200010e60201b60201c565b5f0181905550815f806101000a81548173ffffffffffffffffffffffffffffffffffffffff021916908373ffffffffffffffffffffffffffffffffffffffff1602179055508060015f6101000a81548173ffffffffffffffffffffffffffffffffffffffff021916908373ffffffffffffffffffffffffffffffffffffffff1602179055505050620001c1565b5f7f9b779b17422d0df92223018b32b4d1fa46e071723d6817e2486d003becc55f005f1b905090565b5f819050919050565b5f80fd5b5f73ffffffffffffffffffffffffffffffffffffffff82169050919050565b5f62000146826200011b565b9050919050565b62000158816200013a565b811462000163575f80fd5b50565b5f8151905062000176816200014d565b92915050565b5f806040838503121562000195576200019462000117565b5b5f620001a48582860162000166565b9250506020620001b78582860162000166565b9150509250929050565b6121a280620001cf5f395ff3fe608060405234801561000f575f80fd5b506004361061009c575f3560e01c8063aebe782111610064578063aebe78211461014c578063b253eff114610168578063b863f0391461019a578063cb9cc910146101cc578063fc0c546a146101fc5761009c565b80632b7ac3f3146100a05780632b8d2f61146100be57806346b4b271146100da57806358671730146100f65780638d97767214610114575b5f80fd5b6100a861021a565b6040516100b59190611128565b60405180910390f35b6100d860048036038101906100d3919061135f565b61023f565b005b6100f460048036038101906100ef9190611420565b6107a7565b005b6100fe610a96565b60405161010b9190611489565b60405180910390f35b61012e600480360381019061012991906114a2565b610a9c565b60405161014399989796959493929190611581565b60405180910390f35b61016660048036038101906101619190611613565b610b97565b005b610182600480360381019061017d91906116d0565b610e1b565b60405161019193929190611720565b60405180910390f35b6101b460048036038101906101af919061175c565b610edd565b6040516101c39392919061179a565b60405180910390f35b6101e660048036038101906101e191906117d6565b610fa0565b6040516101f39190611489565b60405180910390f35b610204610fc0565b6040516102119190611834565b60405180910390f35b60015f9054906101000a900473ffffffffffffffffffffffffffffffffffffffff1681565b5f60035f8881526020019081526020015f209050806008015f9054906101000a900460ff166102a3576040517f08c379a000000000000000000000000000000000000000000000000000000000815260040161029a90611897565b60405180910390fd5b858160070154146102e9576040517f08c379a00000000000000000000000000000000000000000000000000000000081526004016102e0906118ff565b60405180910390fd5b60045f8881526020019081526020015f205f3373ffffffffffffffffffffffffffffffffffffffff1673ffffffffffffffffffffffffffffffffffffffff1681526020019081526020015f205f015f9054906101000a900460ff16610383576040517f08c379a000000000000000000000000000000000000000000000000000000000815260040161037a90611967565b60405180910390fd5b5f60055f8981526020019081526020015f205f8881526020019081526020015f205f3373ffffffffffffffffffffffffffffffffffffffff1673ffffffffffffffffffffffffffffffffffffffff1681526020019081526020015f205f0180546103ec906119b2565b90501461042e576040517f08c379a000000000000000000000000000000000000000000000000000000000815260040161042590611a2c565b60405180910390fd5b5f600267ffffffffffffffff81111561044a5761044961119d565b5b6040519080825280602002602001820160405280156104785781602001602082028036833780820191505090505b50905084815f8151811061048f5761048e611a4a565b5b60200260200101818152505083816001815181106104b0576104af611a4a565b5b60200260200101818152505060015f9054906101000a900473ffffffffffffffffffffffffffffffffffffffff1673ffffffffffffffffffffffffffffffffffffffff16639649daae84836040518363ffffffff1660e01b8152600401610518929190611b80565b602060405180830381865afa158015610533573d5f803e3d5ffd5b505050506040513d601f19601f820116820180604052508101906105579190611bdf565b610596576040517f08c379a000000000000000000000000000000000000000000000000000000000815260040161058d90611c54565b60405180910390fd5b8484106105d8576040517f08c379a00000000000000000000000000000000000000000000000000000000081526004016105cf90611cbc565b60405180910390fd5b60405180606001604052808781526020018681526020018581525060055f8a81526020019081526020015f205f8981526020019081526020015f205f3373ffffffffffffffffffffffffffffffffffffffff1673ffffffffffffffffffffffffffffffffffffffff1681526020019081526020015f205f820151815f0190816106619190611e6e565b50602082015181600101556040820151816002015590505060065f8981526020019081526020015f205f8881526020019081526020015f205f8154809291906106a990611f6a565b91905055503373ffffffffffffffffffffffffffffffffffffffff1687897f784ab9ff405ef2d32c89e2b7ddd74d70d79fa7c93c0e2ef6acdfe1ef1678b345896040516106f69190611fb1565b60405180910390a4816005015460065f8a81526020019081526020015f205f8981526020019081526020015f20540361079d5786887f300ae75b891e0f727347ea5e32b26061fcbba2a6cc1a7f21e2ccc7d3f10b08bc60405160405180910390a381600401548703610782575f826008015f6101000a81548160ff02191690831515021790555061079c565b816007015f81548092919061079690611f6a565b91905055505b5b5050505050505050565b6107af610fe3565b5f60035f8481526020019081526020015f209050806008015f9054906101000a900460ff16610813576040517f08c379a000000000000000000000000000000000000000000000000000000000815260040161080a90611897565b60405180910390fd5b60045f8481526020019081526020015f205f3373ffffffffffffffffffffffffffffffffffffffff1673ffffffffffffffffffffffffffffffffffffffff1681526020019081526020015f205f015f9054906101000a900460ff16156108ae576040517f08c379a00000000000000000000000000000000000000000000000000000000081526004016108a59061201b565b60405180910390fd5b5f8054906101000a900473ffffffffffffffffffffffffffffffffffffffff1673ffffffffffffffffffffffffffffffffffffffff166323b872dd333084600601546040518463ffffffff1660e01b815260040161090e93929190612039565b6020604051808303815f875af115801561092a573d5f803e3d5ffd5b505050506040513d601f19601f8201168201806040525081019061094e9190611bdf565b61098d576040517f08c379a0000000000000000000000000000000000000000000000000000000008152600401610984906120b8565b60405180910390fd5b6040518060600160405280600115158152602001826006015481526020018381525060045f8581526020019081526020015f205f3373ffffffffffffffffffffffffffffffffffffffff1673ffffffffffffffffffffffffffffffffffffffff1681526020019081526020015f205f820151815f015f6101000a81548160ff021916908315150217905550602082015181600101556040820151816002019081610a379190611e6e565b509050503373ffffffffffffffffffffffffffffffffffffffff16837eb59303b35df70b52881547eabfbec4aa54b97bed808175c0588c893ddea18a84604051610a819190611fb1565b60405180910390a350610a92611005565b5050565b60025481565b6003602052805f5260405f205f91509050805f015490806001015f9054906101000a900473ffffffffffffffffffffffffffffffffffffffff1690806002018054610ae6906119b2565b80601f0160208091040260200160405190810160405280929190818152602001828054610b12906119b2565b8015610b5d5780601f10610b3457610100808354040283529160200191610b5d565b820191905f5260205f20905b815481529060010190602001808311610b4057829003601f168201915b505050505090806003015490806004015490806005015490806006015490806007015490806008015f9054906101000a900460ff16905089565b610b9f610fe3565b5f8054906101000a900473ffffffffffffffffffffffffffffffffffffffff1673ffffffffffffffffffffffffffffffffffffffff166323b872dd3330876040518463ffffffff1660e01b8152600401610bfb93929190612039565b6020604051808303815f875af1158015610c17573d5f803e3d5ffd5b505050506040513d601f19601f82011682018060405250810190610c3b9190611bdf565b610c7a576040517f08c379a0000000000000000000000000000000000000000000000000000000008152600401610c7190612120565b60405180910390fd5b60025f815480929190610c8c90611f6a565b919050555060405180610120016040528060025481526020013373ffffffffffffffffffffffffffffffffffffffff168152602001868152602001858152602001848152602001838152602001828152602001600181526020016001151581525060035f60025481526020019081526020015f205f820151815f01556020820151816001015f6101000a81548173ffffffffffffffffffffffffffffffffffffffff021916908373ffffffffffffffffffffffffffffffffffffffff1602179055506040820151816002019081610d639190611e6e565b50606082015181600301556080820151816004015560a0820151816005015560c0820151816006015560e08201518160070155610100820151816008015f6101000a81548160ff0219169083151502179055509050503373ffffffffffffffffffffffffffffffffffffffff166002547f9e3c9757475c00b86393e183b68033bb76e48fa164849c7428ad17f62e1954a78787604051610e0492919061213e565b60405180910390a3610e14611005565b5050505050565b6005602052825f5260405f20602052815f5260405f20602052805f5260405f205f925092505050805f018054610e50906119b2565b80601f0160208091040260200160405190810160405280929190818152602001828054610e7c906119b2565b8015610ec75780601f10610e9e57610100808354040283529160200191610ec7565b820191905f5260205f20905b815481529060010190602001808311610eaa57829003601f168201915b5050505050908060010154908060020154905083565b6004602052815f5260405f20602052805f5260405f205f9150915050805f015f9054906101000a900460ff1690806001015490806002018054610f1f906119b2565b80601f0160208091040260200160405190810160405280929190818152602001828054610f4b906119b2565b8015610f965780601f10610f6d57610100808354040283529160200191610f96565b820191905f5260205f20905b815481529060010190602001808311610f7957829003601f168201915b5050505050905083565b6006602052815f5260405f20602052805f5260405f205f91509150505481565b5f8054906101000a900473ffffffffffffffffffffffffffffffffffffffff1681565b610feb61101f565b6002610ffd610ff8611060565b611089565b5f0181905550565b6001611017611012611060565b611089565b5f0181905550565b611027611092565b1561105e576040517f3ee5aeb500000000000000000000000000000000000000000000000000000000815260040160405180910390fd5b565b5f7f9b779b17422d0df92223018b32b4d1fa46e071723d6817e2486d003becc55f005f1b905090565b5f819050919050565b5f60026110a56110a0611060565b611089565b5f015414905090565b5f73ffffffffffffffffffffffffffffffffffffffff82169050919050565b5f819050919050565b5f6110f06110eb6110e6846110ae565b6110cd565b6110ae565b9050919050565b5f611101826110d6565b9050919050565b5f611112826110f7565b9050919050565b61112281611108565b82525050565b5f60208201905061113b5f830184611119565b92915050565b5f604051905090565b5f80fd5b5f80fd5b5f819050919050565b61116481611152565b811461116e575f80fd5b50565b5f8135905061117f8161115b565b92915050565b5f80fd5b5f80fd5b5f601f19601f8301169050919050565b7f4e487b71000000000000000000000000000000000000000000000000000000005f52604160045260245ffd5b6111d38261118d565b810181811067ffffffffffffffff821117156111f2576111f161119d565b5b80604052505050565b5f611204611141565b905061121082826111ca565b919050565b5f67ffffffffffffffff82111561122f5761122e61119d565b5b6112388261118d565b9050602081019050919050565b828183375f83830152505050565b5f61126561126084611215565b6111fb565b90508281526020810184848401111561128157611280611189565b5b61128c848285611245565b509392505050565b5f82601f8301126112a8576112a7611185565b5b81356112b8848260208601611253565b91505092915050565b5f67ffffffffffffffff8211156112db576112da61119d565b5b6112e48261118d565b9050602081019050919050565b5f6113036112fe846112c1565b6111fb565b90508281526020810184848401111561131f5761131e611189565b5b61132a848285611245565b509392505050565b5f82601f83011261134657611345611185565b5b81356113568482602086016112f1565b91505092915050565b5f805f805f8060c087890312156113795761137861114a565b5b5f61138689828a01611171565b965050602061139789828a01611171565b955050604087013567ffffffffffffffff8111156113b8576113b761114e565b5b6113c489828a01611294565b94505060606113d589828a01611171565b93505060806113e689828a01611171565b92505060a087013567ffffffffffffffff8111156114075761140661114e565b5b61141389828a01611332565b9150509295509295509295565b5f80604083850312156114365761143561114a565b5b5f61144385828601611171565b925050602083013567ffffffffffffffff8111156114645761146361114e565b5b61147085828601611294565b9150509250929050565b61148381611152565b82525050565b5f60208201905061149c5f83018461147a565b92915050565b5f602082840312156114b7576114b661114a565b5b5f6114c484828501611171565b91505092915050565b5f6114d7826110ae565b9050919050565b6114e7816114cd565b82525050565b5f81519050919050565b5f82825260208201905092915050565b5f5b83811015611524578082015181840152602081019050611509565b5f8484015250505050565b5f611539826114ed565b61154381856114f7565b9350611553818560208601611507565b61155c8161118d565b840191505092915050565b5f8115159050919050565b61157b81611567565b82525050565b5f610120820190506115955f83018c61147a565b6115a2602083018b6114de565b81810360408301526115b4818a61152f565b90506115c3606083018961147a565b6115d0608083018861147a565b6115dd60a083018761147a565b6115ea60c083018661147a565b6115f760e083018561147a565b611605610100830184611572565b9a9950505050505050505050565b5f805f805f60a0868803121561162c5761162b61114a565b5b5f86013567ffffffffffffffff8111156116495761164861114e565b5b61165588828901611294565b955050602061166688828901611171565b945050604061167788828901611171565b935050606061168888828901611171565b925050608061169988828901611171565b9150509295509295909350565b6116af816114cd565b81146116b9575f80fd5b50565b5f813590506116ca816116a6565b92915050565b5f805f606084860312156116e7576116e661114a565b5b5f6116f486828701611171565b935050602061170586828701611171565b9250506040611716868287016116bc565b9150509250925092565b5f6060820190508181035f830152611738818661152f565b9050611747602083018561147a565b611754604083018461147a565b949350505050565b5f80604083850312156117725761177161114a565b5b5f61177f85828601611171565b9250506020611790858286016116bc565b9150509250929050565b5f6060820190506117ad5f830186611572565b6117ba602083018561147a565b81810360408301526117cc818461152f565b9050949350505050565b5f80604083850312156117ec576117eb61114a565b5b5f6117f985828601611171565b925050602061180a85828601611171565b9150509250929050565b5f61181e826110f7565b9050919050565b61182e81611814565b82525050565b5f6020820190506118475f830184611825565b92915050565b7f5461736b206e6f742061637469766500000000000000000000000000000000005f82015250565b5f611881600f836114f7565b915061188c8261184d565b602082019050919050565b5f6020820190508181035f8301526118ae81611875565b9050919050565b7f496e76616c696420726f756e64000000000000000000000000000000000000005f82015250565b5f6118e9600d836114f7565b91506118f4826118b5565b602082019050919050565b5f6020820190508181035f830152611916816118dd565b9050919050565b7f4e6f7420726567697374657265640000000000000000000000000000000000005f82015250565b5f611951600e836114f7565b915061195c8261191d565b602082019050919050565b5f6020820190508181035f83015261197e81611945565b9050919050565b7f4e487b71000000000000000000000000000000000000000000000000000000005f52602260045260245ffd5b5f60028204905060018216806119c957607f821691505b6020821081036119dc576119db611985565b5b50919050565b7f416c7265616479207375626d69747465640000000000000000000000000000005f82015250565b5f611a166011836114f7565b9150611a21826119e2565b602082019050919050565b5f6020820190508181035f830152611a4381611a0a565b9050919050565b7f4e487b71000000000000000000000000000000000000000000000000000000005f52603260045260245ffd5b5f81519050919050565b5f82825260208201905092915050565b5f611a9b82611a77565b611aa58185611a81565b9350611ab5818560208601611507565b611abe8161118d565b840191505092915050565b5f81519050919050565b5f82825260208201905092915050565b5f819050602082019050919050565b611afb81611152565b82525050565b5f611b0c8383611af2565b60208301905092915050565b5f602082019050919050565b5f611b2e82611ac9565b611b388185611ad3565b9350611b4383611ae3565b805f5b83811015611b73578151611b5a8882611b01565b9750611b6583611b18565b925050600181019050611b46565b5085935050505092915050565b5f6040820190508181035f830152611b988185611a91565b90508181036020830152611bac8184611b24565b90509392505050565b611bbe81611567565b8114611bc8575f80fd5b50565b5f81519050611bd981611bb5565b92915050565b5f60208284031215611bf457611bf361114a565b5b5f611c0184828501611bcb565b91505092915050565b7f496e76616c69642070726f6f66000000000000000000000000000000000000005f82015250565b5f611c3e600d836114f7565b9150611c4982611c0a565b602082019050919050565b5f6020820190508181035f830152611c6b81611c32565b9050919050565b7f4c6f7373206d75737420646563726561736500000000000000000000000000005f82015250565b5f611ca66012836114f7565b9150611cb182611c72565b602082019050919050565b5f6020820190508181035f830152611cd381611c9a565b9050919050565b5f819050815f5260205f209050919050565b5f6020601f8301049050919050565b5f82821b905092915050565b5f60088302611d367fffffffffffffffffffffffffffffffffffffffffffffffffffffffffffffffff82611cfb565b611d408683611cfb565b95508019841693508086168417925050509392505050565b5f611d72611d6d611d6884611152565b6110cd565b611152565b9050919050565b5f819050919050565b611d8b83611d58565b611d9f611d9782611d79565b848454611d07565b825550505050565b5f90565b611db3611da7565b611dbe818484611d82565b505050565b5b81811015611de157611dd65f82611dab565b600181019050611dc4565b5050565b601f821115611e2657611df781611cda565b611e0084611cec565b81016020851015611e0f578190505b611e23611e1b85611cec565b830182611dc3565b50505b505050565b5f82821c905092915050565b5f611e465f1984600802611e2b565b1980831691505092915050565b5f611e5e8383611e37565b9150826002028217905092915050565b611e77826114ed565b67ffffffffffffffff811115611e9057611e8f61119d565b5b611e9a82546119b2565b611ea5828285611de5565b5f60209050601f831160018114611ed6575f8415611ec4578287015190505b611ece8582611e53565b865550611f35565b601f198416611ee486611cda565b5f5b82811015611f0b57848901518255600182019150602085019450602081019050611ee6565b86831015611f285784890151611f24601f891682611e37565b8355505b6001600288020188555050505b505050505050565b7f4e487b71000000000000000000000000000000000000000000000000000000005f52601160045260245ffd5b5f611f7482611152565b91507fffffffffffffffffffffffffffffffffffffffffffffffffffffffffffffffff8203611fa657611fa5611f3d565b5b600182019050919050565b5f6020820190508181035f830152611fc9818461152f565b905092915050565b7f416c7265616479207265676973746572656400000000000000000000000000005f82015250565b5f6120056012836114f7565b915061201082611fd1565b602082019050919050565b5f6020820190508181035f83015261203281611ff9565b9050919050565b5f60608201905061204c5f8301866114de565b61205960208301856114de565b612066604083018461147a565b949350505050565b7f5374616b65207472616e73666572206661696c656400000000000000000000005f82015250565b5f6120a26015836114f7565b91506120ad8261206e565b602082019050919050565b5f6020820190508181035f8301526120cf81612096565b9050919050565b7f5472616e73666572206661696c656400000000000000000000000000000000005f82015250565b5f61210a600f836114f7565b9150612115826120d6565b602082019050919050565b5f6020820190508181035f830152612137816120fe565b9050919050565b5f6040820190508181035f830152612156818561152f565b9050612165602083018461147a565b939250505056fea264697066735822122097592049b8acea88676b8f97c6acf5eedecb4ef9979d73e2f9b021757698f68664736f6c63430008140033",
  "linkReferences": {},
  "deployedLinkReferences": {},
  "immutableReferences": {},
  "inputSourceName": "project/contracts/TaskManager.sol",
  "buildInfoId": "solc-0_8_20-d81863499e8b316b7950a5d4fd47a6ba0d70cdef"
}