{"project/contracts/Verifier.sol":{"Verifier":{"abi":[{"inputs":[{"internalType":"bytes","name":"","type":"bytes"},{"internalType":"uint256[]","name":"","type":"uint256[]"}],"name":"verify","outputs":[{"internalType":"bool","name":"","type":"bool"}],"stateMutability":"pure","type":"function"}],"evm":{"bytecode":{"linkReferences":{},"object":"608060405234801561000f575f80fd5b5061038b8061001d5f395ff3fe608060405234801561000f575f80fd5b5060043610610029575f3560e01c80639649daae1461002d575b5f80fd5b610047600480360381019061004291906102ac565b61005d565b604051610054919061033c565b60405180910390f35b5f6001905092915050565b5f604051905090565b5f80fd5b5f80fd5b5f80fd5b5f80fd5b5f601f19601f8301169050919050565b7f4e487b71000000000000000000000000000000000000000000000000000000005f52604160045260245ffd5b6100c782610081565b810181811067ffffffffffffffff821117156100e6576100e5610091565b5b80604052505050565b5f6100f8610068565b905061010482826100be565b919050565b5f67ffffffffffffffff82111561012357610122610091565b5b61012c82610081565b9050602081019050919050565b828183375f83830152505050565b5f61015961015484610109565b6100ef565b9050828152602081018484840111156101755761017461007d565b5b610180848285610139565b509392505050565b5f82601f83011261019c5761019b610079565b5b81356101ac848260208601610147565b91505092915050565b5f67ffffffffffffffff8211156101cf576101ce610091565b5b602082029050602081019050919050565b5f80fd5b5f819050919050565b6101f6816101e4565b8114610200575f80fd5b50565b5f81359050610211816101ed565b92915050565b5f610229610224846101b5565b6100ef565b9050808382526020820190506020840283018581111561024c5761024b6101e0565b5b835b8181101561027557806102618882610203565b84526020840193505060208101905061024e565b5050509392505050565b5f82601f83011261029357610292610079565b5b81356102a3848260208601610217565b91505092915050565b5f80604083850312156102c2576102c1610071565b5b5f83013567ffffffffffffffff8111156102df576102de610075565b5b6102eb85828601610188565b925050602083013567ffffffffffffffff81111561030c5761030b610075565b5b6103188582860161027f565b9150509250929050565b5f8115159050919050565b61033681610322565b82525050565b5f60208201905061034f5f83018461032d565b9291505056fea264697066735822122095ebb960d05cccfca0f6f100a4251cdc283850de23e661862bb4fa7e3cf93b0b64736f6c63430008140033","opcodes":"PUSH1 0x80 PUSH1 0x40 MSTORE CALLVALUE DUP1 ISZERO PUSH2 0xF JUMPI PUSH0 DUP1 REVERT JUMPDEST POP PUSH2 0x38B DUP1 PUSH2 0x1D PUSH0 CODECOPY PUSH0 RETURN INVALID PUSH1 0x80 PUSH1 0x40 MSTORE CALLVALUE DUP1 ISZERO PUSH2 0xF JUMPI PUSH0 DUP1 REVERT JUMPDEST POP PUSH1 0x4 CALLDATASIZE LT PUSH2 0x29 JUMPI PUSH0 CALLDATALOAD PUSH1 0xE0 SHR DUP1 PUSH4 0x9649DAAE EQ PUSH2 0x2D JUMPI JUMPDEST PUSH0 DUP1 REVERT JUMPDEST PUSH2 0x47 PUSH1 0x4 DUP1 CALLDATASIZE SUB DUP2 ADD SWAP1 PUSH2 0x42 SWAP2 SWAP1 PUSH2 0x2AC JUMP JUMPDEST PUSH2 0x5D JUMP JUMPDEST PUSH1 0x40 MLOAD PUSH2 0x54 SWAP2 SWAP1 PUSH2 0x33C JUMP JUMPDEST PUSH1 0x40 MLOAD DUP1 SWAP2 SUB SWAP1 RETURN JUMPDEST PUSH0 PUSH1 0x1 SWAP1 POP SWAP3 SWAP2 POP POP JUMP JUMPDEST PUSH0 PUSH1 0x40 MLOAD SWAP1 POP SWAP1 JUMP JUMPDEST PUSH0 DUP1 REVERT JUMPDEST PUSH0 DUP1 REVERT JUMPDEST PUSH0 DUP1 REVERT JUMPDEST PUSH0 DUP1 REVERT JUMPDEST PUSH0 PUSH1 0x1F NOT PUSH1 0x1F DUP4 ADD AND SWAP1 POP SWAP2 SWAP1 POP JUMP JUMPDEST PUSH32 0x4E487B7100000000000000000000000000000000000000000000000000000000 PUSH0 MSTORE PUSH1 0x41 PUSH1 0x4 MSTORE PUSH1 0x24 PUSH0 REVERT JUMPDEST PUSH2 0xC7 DUP3 PUSH2 0x81 JUMP JUMPDEST DUP2 ADD DUP2 DUP2 LT PUSH8 0xFFFFFFFFFFFFFFFF DUP3 GT OR ISZERO PUSH2 0xE6 JUMPI PUSH2 0xE5 PUSH2 0x91 JUMP JUMPDEST JUMPDEST DUP1 PUSH1 0x40 MSTORE POP POP POP JUMP JUMPDEST PUSH0 PUSH2 0xF8 PUSH2 0x68 JUMP JUMPDEST SWAP1 POP PUSH2 0x104 DUP3 DUP3 PUSH2 0xBE JUMP JUMPDEST SWAP2 SWAP1 POP JUMP JUMPDEST PUSH0 PUSH8 0xFFFFFFFFFFFFFFFF DUP3 GT ISZERO PUSH2 0x123 JUMPI PUSH2 0x122 PUSH2 0x91 JUMP JUMPDEST JUMPDEST PUSH2 0x12C DUP3 PUSH2 0x81 JUMP JUMPDEST SWAP1 POP PUSH1 0x20 DUP2 ADD SWAP1 POP SWAP2 SWAP1 POP JUMP JUMPDEST DUP3 DUP2 DUP4 CALLDATACOPY PUSH0 DUP4 DUP4 ADD MSTORE POP POP POP JUMP JUMPDEST PUSH0 PUSH2 0x159 PUSH2 0x154 DUP5 PUSH2 0x109 JUMP JUMPDEST PUSH2 0xEF JUMP JUMPDEST SWAP1 POP DUP3 DUP2 MSTORE PUSH1 0x20 DUP2 ADD DUP5 DUP5 DUP5 ADD GT ISZERO PUSH2 0x175 JUMPI PUSH2 0x174 PUSH2 0x7D JUMP JUMPDEST JUMPDEST PUSH2 0x180 DUP5 DUP3 DUP6 PUSH2 0x139 JUMP JUMPDEST POP SWAP4 SWAP3 POP POP POP JUMP JUMPDEST PUSH0 DUP3 PUSH1 0x1F DUP4 ADD SLT PUSH2 0x19C JUMPI PUSH2 0x19B PUSH2 0x79 JUMP JUMPDEST JUMPDEST DUP2 CALLDATALOAD PUSH2 0x1AC DUP5 DUP3 PUSH1 0x20 DUP7 ADD PUSH2 0x147 JUMP JUMPDEST SWAP2 POP POP SWAP3 SWAP2 POP POP JUMP JUMPDEST PUSH0 PUSH8 0xFFFFFFFFFFFFFFFF DUP3 GT ISZERO PUSH2 0x1CF JUMPI PUSH2 0x1CE PUSH2 0x91 JUMP JUMPDEST JUMPDEST PUSH1 0x20 DUP3 MUL SWAP1 POP PUSH1 0x20 DUP2 ADD SWAP1 POP SWAP2 SWAP1 POP JUMP JUMPDEST PUSH0 DUP1 REVERT JUMPDEST PUSH0 DUP2 SWAP1 POP SWAP2 SWAP1 POP JUMP JUMPDEST PUSH2 0x1F6 DUP2 PUSH2 0x1E4 JUMP JUMPDEST DUP2 EQ PUSH2 0x200 JUMPI PUSH0 DUP1 REVERT JUMPDEST POP JUMP JUMPDEST PUSH0 DUP2 CALLDATALOAD SWAP1 POP PUSH2 0x211 DUP2 PUSH2 0x1ED JUMP JUMPDEST SWAP3 SWAP2 POP POP JUMP JUMPDEST PUSH0 PUSH2 0x229 PUSH2 0x224 DUP5 PUSH2 0x1B5 JUMP JUMPDEST PUSH2 0xEF JUMP JUMPDEST SWAP1 POP DUP1 DUP4 DUP3 MSTORE PUSH1 0x20 DUP3 ADD SWAP1 POP PUSH1 0x20 DUP5 MUL DUP4 ADD DUP6 DUP2 GT ISZERO PUSH2 0x24C JUMPI PUSH2 0x24B PUSH2 0x1E0 JUMP JUMPDEST JUMPDEST DUP4 JUMPDEST DUP2 DUP2 LT ISZERO PUSH2 0x275 JUMPI DUP1 PUSH2 0x261 DUP9 DUP3 PUSH2 0x203 JUMP JUMPDEST DUP5 MSTORE PUSH1 0x20 DUP5 ADD SWAP4 POP POP PUSH1 0x20 DUP2 ADD SWAP1 POP PUSH2 0x24E JUMP JUMPDEST POP POP POP SWAP4 SWAP3 POP POP POP JUMP JUMPDEST PUSH0 DUP3 PUSH1 0x1F DUP4 ADD SLT PUSH2 0x293 JUMPI PUSH2 0x292 PUSH2 0x79 JUMP JUMPDEST JUMPDEST DUP2 CALLDATALOAD PUSH2 0x2A3 DUP5 DUP3 PUSH1 0x20 DUP7 ADD PUSH2 0x217 JUMP JUMPDEST SWAP2 POP POP SWAP3 SWAP2 POP POP JUMP JUMPDEST PUSH0 DUP1 PUSH1 0x40 DUP4 DUP6 SUB SLT ISZERO PUSH2 0x2C2 JUMPI PUSH2 0x2C1 PUSH2 0x71 JUMP JUMPDEST JUMPDEST PUSH0 DUP4 ADD CALLDATALOAD PUSH8 0xFFFFFFFFFFFFFFFF DUP2 GT ISZERO PUSH2 0x2DF JUMPI PUSH2 0x2DE PUSH2 0x75 JUMP JUMPDEST JUMPDEST PUSH2 0x2EB DUP6 DUP3 DUP7 ADD PUSH2 0x188 JUMP JUMPDEST SWAP3 POP POP PUSH1 0x20 DUP4 ADD CALLDATALOAD PUSH8 0xFFFFFFFFFFFFFFFF DUP2 GT ISZERO PUSH2 0x30C JUMPI PUSH2 0x30B PUSH2 0x75 JUMP JUMPDEST JUMPDEST PUSH2 0x318 DUP6 DUP3 DUP7 ADD PUSH2 0x27F JUMP JUMPDEST SWAP2 POP POP SWAP3 POP SWAP3 SWAP1 POP JUMP JUMPDEST PUSH0 DUP2 ISZERO ISZERO SWAP1 POP SWAP2 SWAP1 POP JUMP JUMPDEST PUSH2 0x336 DUP2 PUSH2 0x322 JUMP JUMPDEST DUP3 MSTORE POP POP JUMP JUMPDEST PUSH0 PUSH1 0x20 DUP3 ADD SWAP1 POP PUSH2 0x34F PUSH0 DUP4 ADD DUP5 PUSH2 0x32D JUMP JUMPDEST SWAP3 SWAP2 POP POP JUMP INVALID LOG2 PUSH5 0x6970667358 0x22 SLT KECCAK256 SWAP6 0xEB 0xB9 PUSH1 0xD0 0x5C 0xCC 0xFC LOG0 0xF6 CALL STOP LOG4 0x25 SHR 0xDC 0x28 CODESIZE POP 0xDE 0x23 0xE6 PUSH2 0x862B 0xB4 STATICCALL PUSH31 0x3CF93B0B64736F6C6343000814003300000000000000000000000000000000 "},"methodIdentifiers":{"verify(bytes,uint256[])":"9649daae"}}}}}