{"project/contracts/Aggregator.sol":{"Aggregator":{"abi":[{"inputs":[],"stateMutability":"nonpayable","type":"constructor"},{"inputs":[{"internalType":"address","name":"owner","type":"address"}],"name":"OwnableInvalidOwner","type":"error"},{"inputs":[{"internalType":"address","name":"account","type":"address"}],"name":"OwnableUnauthorizedAccount","type":"error"},{"anonymous":false,"inputs":[{"indexed":true,"internalType":"uint256","name":"taskId","type":"uint256"},{"indexed":true,"internalType":"uint256","name":"round","type":"uint256"},{"indexed":false,"internalType":"string","name":"newModelCID","type":"string"}],"name":"NewGlobalModel","type":"event"},{"anonymous":false,"inputs":[{"indexed":true,"internalType":"address","name":"previousOwner","type":"address"},{"indexed":true,"internalType":"address","name":"newOwner","type":"address"}],"name":"OwnershipTransferred","type":"event"},{"inputs":[{"internalType":"uint256","name":"","type":"uint256"},{"internalType":"uint256","name":"","type":"uint256"}],"name":"globalModels","outputs":[{"internalType":"string","name":"","type":"string"}],"stateMutability":"view","type":"function"},{"inputs":[],"name":"owner","outputs":[{"internalType":"address","name":"","type":"address"}],"stateMutability":"view","type":"function"},{"inputs":[],"name":"renounceOwnership","outputs":[],"stateMutability":"nonpayable","type":"function"},{"inputs":[{"internalType":"uint256","name":"_taskId","type":"uint256"},{"internalType":"uint256","name":"_round","type":"uint256"},{"internalType":"string","name":"_newModelCID","type":"string"}],"name":"submitGlobalModel","outputs":[],"stateMutability":"nonpayable","type":"function"},{"inputs":[{"internalType":"address","name":"newOwner","type":"address"}],"name":"transferOwnership","outputs":[],"stateMutability":"nonpayable","type":"function"}],"evm":{"bytecode":{"linkReferences":{},"object":"608060405234801561000f575f80fd5b50335f73ffffffffffffffffffffffffffffffffffffffff168173ffffffffffffffffffffffffffffffffffffffff1603610081575f6040517f1e4fbdf70000000000000000000000000000000000000000000000000000000081526004016100789190610196565b60405180910390fd5b6100908161009660201b60201c565b506101af565b5f805f9054906101000a900473ffffffffffffffffffffffffffffffffffffffff169050815f806101000a81548173ffffffffffffffffffffffffffffffffffffffff021916908373ffffffffffffffffffffffffffffffffffffffff1602179055508173ffffffffffffffffffffffffffffffffffffffff168173ffffffffffffffffffffffffffffffffffffffff167f8be0079c531659141344cd1fd0a4f28419497f9722a3daafe3b4186f6b6457e060405160405180910390a35050565b5f73ffffffffffffffffffffffffffffffffffffffff82169050919050565b5f61018082610157565b9050919050565b61019081610176565b82525050565b5f6020820190506101a95f830184610187565b92915050565b610a80806101bc5f395ff3fe608060405234801561000f575f80fd5b5060043610610055575f3560e01c80633a18134b146100595780633df9590814610089578063715018a6146100a55780638da5cb5b146100af578063f2fde38b146100cd575b5f80fd5b610073600480360381019061006e9190610454565b6100e9565b604051610080919061051c565b60405180910390f35b6100a3600480360381019061009e9190610668565b61018f565b005b6100ad610203565b005b6100b7610216565b6040516100c49190610713565b60405180910390f35b6100e760048036038101906100e29190610756565b61023d565b005b6001602052815f5260405f20602052805f5260405f205f91509150508054610110906107ae565b80601f016020809104026020016040519081016040528092919081815260200182805461013c906107ae565b80156101875780601f1061015e57610100808354040283529160200191610187565b820191905f5260205f20905b81548152906001019060200180831161016a57829003601f168201915b505050505081565b6101976102c1565b8060015f8581526020019081526020015f205f8481526020019081526020015f2090816101c4919061097b565b5081837fda5fee14920085c54d958097836ad8996ad8e6e469892fe49e99c5a317b36f0c836040516101f6919061051c565b60405180910390a3505050565b61020b6102c1565b6102145f610348565b565b5f805f9054906101000a900473ffffffffffffffffffffffffffffffffffffffff16905090565b6102456102c1565b5f73ffffffffffffffffffffffffffffffffffffffff168173ffffffffffffffffffffffffffffffffffffffff16036102b5575f6040517f1e4fbdf70000000000000000000000000000000000000000000000000000000081526004016102ac9190610713565b60405180910390fd5b6102be81610348565b50565b6102c9610409565b73ffffffffffffffffffffffffffffffffffffffff166102e7610216565b73ffffffffffffffffffffffffffffffffffffffff16146103465761030a610409565b6040517f118cdaa700000000000000000000000000000000000000000000000000000000815260040161033d9190610713565b60405180910390fd5b565b5f805f9054906101000a900473ffffffffffffffffffffffffffffffffffffffff169050815f806101000a81548173ffffffffffffffffffffffffffffffffffffffff021916908373ffffffffffffffffffffffffffffffffffffffff1602179055508173ffffffffffffffffffffffffffffffffffffffff168173ffffffffffffffffffffffffffffffffffffffff167f8be0079c531659141344cd1fd0a4f28419497f9722a3daafe3b4186f6b6457e060405160405180910390a35050565b5f33905090565b5f604051905090565b5f80fd5b5f80fd5b5f819050919050565b61043381610421565b811461043d575f80fd5b50565b5f8135905061044e8161042a565b92915050565b5f806040838503121561046a57610469610419565b5b5f61047785828601610440565b925050602061048885828601610440565b9150509250929050565b5f81519050919050565b5f82825260208201905092915050565b5f5b838110156104c95780820151818401526020810190506104ae565b5f8484015250505050565b5f601f19601f8301169050919050565b5f6104ee82610492565b6104f8818561049c565b93506105088185602086016104ac565b610511816104d4565b840191505092915050565b5f6020820190508181035f83015261053481846104e4565b905092915050565b5f80fd5b5f80fd5b7f4e487b71000000000000000000000000000000000000000000000000000000005f52604160045260245ffd5b61057a826104d4565b810181811067ffffffffffffffff8211171561059957610598610544565b5b80604052505050565b5f6105ab610410565b90506105b78282610571565b919050565b5f67ffffffffffffffff8211156105d6576105d5610544565b5b6105df826104d4565b9050602081019050919050565b828183375f83830152505050565b5f61060c610607846105bc565b6105a2565b90508281526020810184848401111561062857610627610540565b5b6106338482856105ec565b509392505050565b5f82601f83011261064f5761064e61053c565b5b813561065f8482602086016105fa565b91505092915050565b5f805f6060848603121561067f5761067e610419565b5b5f61068c86828701610440565b935050602061069d86828701610440565b925050604084013567ffffffffffffffff8111156106be576106bd61041d565b5b6106ca8682870161063b565b9150509250925092565b5f73ffffffffffffffffffffffffffffffffffffffff82169050919050565b5f6106fd826106d4565b9050919050565b61070d816106f3565b82525050565b5f6020820190506107265f830184610704565b92915050565b610735816106f3565b811461073f575f80fd5b50565b5f813590506107508161072c565b92915050565b5f6020828403121561076b5761076a610419565b5b5f61077884828501610742565b91505092915050565b7f4e487b71000000000000000000000000000000000000000000000000000000005f52602260045260245ffd5b5f60028204905060018216806107c557607f821691505b6020821081036107d8576107d7610781565b5b50919050565b5f819050815f5260205f209050919050565b5f6020601f8301049050919050565b5f82821b905092915050565b5f6008830261083a7fffffffffffffffffffffffffffffffffffffffffffffffffffffffffffffffff826107ff565b61084486836107ff565b95508019841693508086168417925050509392505050565b5f819050919050565b5f61087f61087a61087584610421565b61085c565b610421565b9050919050565b5f819050919050565b61089883610865565b6108ac6108a482610886565b84845461080b565b825550505050565b5f90565b6108c06108b4565b6108cb81848461088f565b505050565b5b818110156108ee576108e35f826108b8565b6001810190506108d1565b5050565b601f82111561093357610904816107de565b61090d846107f0565b8101602085101561091c578190505b610930610928856107f0565b8301826108d0565b50505b505050565b5f82821c905092915050565b5f6109535f1984600802610938565b1980831691505092915050565b5f61096b8383610944565b9150826002028217905092915050565b61098482610492565b67ffffffffffffffff81111561099d5761099c610544565b5b6109a782546107ae565b6109b28282856108f2565b5f60209050601f8311600181146109e3575f84156109d1578287015190505b6109db8582610960565b865550610a42565b601f1984166109f1866107de565b5f5b82811015610a18578489015182556001820191506020850194506020810190506109f3565b86831015610a355784890151610a31601f891682610944565b8355505b6001600288020188555050505b50505050505056fea26469706673582212204e635c01e2519e2364e66af9624eab611108b8906bc2b1e330f8020f4ac0462964736f6c63430008140033","opcodes":"PUSH1 0x80 PUSH1 0x40 MSTORE CALLVALUE DUP1 ISZERO PUSH2 0xF JUMPI PUSH0 DUP1 REVERT JUMPDEST POP CALLER PUSH0 PUSH20 0xFFFFFFFFFFFFFFFFFFFFFFFFFFFFFFFFFFFFFFFF AND DUP2 PUSH20 0xFFFFFFFFFFFFFFFFFFFFFFFFFFFFFFFFFFFFFFFF AND SUB PUSH2 0x81 JUMPI PUSH0 PUSH1 0x40 MLOAD PUSH32 0x1E4FBDF700000000000000000000000000000000000000000000000000000000 DUP2 MSTORE PUSH1 0x4 ADD PUSH2 0x78 SWAP2 SWAP1 PUSH2 0x196 JUMP JUMPDEST PUSH1 0x40 MLOAD DUP1 SWAP2 SUB SWAP1 REVERT JUMPDEST PUSH2 0x90 DUP2 PUSH2 0x96 PUSH1 0x20 SHL PUSH1 0x20 SHR JUMP JUMPDEST POP PUSH2 0x1AF JUMP JUMPDEST PUSH0 DUP1 PUSH0 SWAP1 SLOAD SWAP1 PUSH2 0x100 EXP SWAP1 DIV PUSH20 0xFFFFFFFFFFFFFFFFFFFFFFFFFFFFFFFFFFFFFFFF AND SWAP1 POP DUP2 PUSH0 DUP1 PUSH2 0x100 EXP DUP2 SLOAD DUP2 PUSH20 0xFFFFFFFFFFFFFFFFFFFFFFFFFFFFFFFFFFFFFFFF MUL NOT AND SWAP1 DUP4 PUSH20 0xFFFFFFFFFFFFFFFFFFFFFFFFFFFFFFFFFFFFFFFF AND MUL OR SWAP1 SSTORE POP DUP2 PUSH20 0xFFFFFFFFFFFFFFFFFFFFFFFFFFFFFFFFFFFFFFFF AND DUP2 PUSH20 0xFFFFFFFFFFFFFFFFFFFFFFFFFFFFFFFFFFFFFFFF AND PUSH32 0x8BE0079C531659141344CD1FD0A4F28419497F9722A3DAAFE3B4186F6B6457E0 PUSH1 0x40 MLOAD PUSH1 0x40 MLOAD DUP1 SWAP2 SUB SWAP1 LOG3 POP POP JUMP JUMPDEST PUSH0 PUSH20 0xFFFFFFFFFFFFFFFFFFFFFFFFFFFFFFFFFFFFFFFF DUP3 AND SWAP1 POP SWAP2 SWAP1 POP JUMP JUMPDEST PUSH0 PUSH2 0x180 DUP3 PUSH2 0x157 JUMP JUMPDEST SWAP1 POP SWAP2 SWAP1 POP JUMP JUMPDEST PUSH2 0x190 DUP2 PUSH2 0x176 JUMP JUMPDEST DUP3 MSTORE POP POP JUMP JUMPDEST PUSH0 PUSH1 0x20 DUP3 ADD SWAP1 POP PUSH2 0x1A9 PUSH0 DUP4 ADD DUP5 PUSH2 0x187 JUMP JUMPDEST SWAP3 SWAP2 POP POP JUMP JUMPDEST PUSH2 0xA80 DUP1 PUSH2 0x1BC PUSH0 CODECOPY PUSH0 RETURN INVALID PUSH1 0x80 PUSH1 0x40 MSTORE CALLVALUE DUP1 ISZERO PUSH2 0xF JUMPI PUSH0 DUP1 REVERT JUMPDEST POP PUSH1 0x4 CALLDATASIZE LT PUSH2 0x55 JUMPI PUSH0 CALLDATALOAD PUSH1 0xE0 SHR DUP1 PUSH4 0x3A18134B EQ PUSH2 0x59 JUMPI DUP1 PUSH4 0x3DF95908 EQ PUSH2 0x89 JUMPI DUP1 PUSH4 0x715018A6 EQ PUSH2 0xA5 JUMPI DUP1 PUSH4 0x8DA5CB5B EQ PUSH2 0xAF JUMPI DUP1 PUSH4 0xF2FDE38B EQ PUSH2 0xCD JUMPI JUMPDEST PUSH0 DUP1 REVERT JUMPDEST PUSH2 0x73 PUSH1 0x4 DUP1 CALLDATASIZE SUB DUP2 ADD SWAP1 PUSH2 0x6E SWAP2 SWAP1 PUSH2 0x454 JUMP JUMPDEST PUSH2 0xE9 JUMP JUMPDEST PUSH1 0x40 MLOAD PUSH2 0x80 SWAP2 SWAP1 PUSH2 0x51C JUMP JUMPDEST PUSH1 0x40 MLOAD DUP1 SWAP2 SUB SWAP1 RETURN JUMPDEST PUSH2 0xA3 PUSH1 0x4 DUP1 CALLDATASIZE SUB DUP2 ADD SWAP1 PUSH2 0x9E SWAP2 SWAP1 PUSH2 0x668 JUMP JUMPDEST PUSH2 0x18F JUMP JUMPDEST STOP JUMPDEST PUSH2 0xAD PUSH2 0x203 JUMP JUMPDEST STOP JUMPDEST PUSH2 0xB7 PUSH2 0x216 JUMP JUMPDEST PUSH1 0x40 MLOAD PUSH2 0xC4 SWAP2 SWAP1 PUSH2 0x713 JUMP JUMPDEST PUSH1 0x40 MLOAD DUP1 SWAP2 SUB SWAP1 RETURN JUMPDEST PUSH2 0xE7 PUSH1 0x4 DUP1 CALLDATASIZE SUB DUP2 ADD SWAP1 PUSH2 0xE2 SWAP2 SWAP1 PUSH2 0x756 JUMP JUMPDEST PUSH2 0x23D JUMP JUMPDEST STOP JUMPDEST PUSH1 0x1 PUSH1 0x20 MSTORE DUP2 PUSH0 MSTORE PUSH1 0x40 PUSH0 KECCAK256 PUSH1 0x20 MSTORE DUP1 PUSH0 MSTORE PUSH1 0x40 PUSH0 KECCAK256 PUSH0 SWAP2 POP SWAP2 POP POP DUP1 SLOAD PUSH2 0x110 SWAP1 PUSH2 0x7AE JUMP JUMPDEST DUP1 PUSH1 0x1F ADD PUSH1 0x20 DUP1 SWAP2 DIV MUL PUSH1 0x20 ADD PUSH1 0x40 MLOAD SWAP1 DUP2 ADD PUSH1 0x40 MSTORE DUP1 SWAP3 SWAP2 SWAP1 DUP2 DUP2 MSTORE PUSH1 0x20 ADD DUP3 DUP1 SLOAD PUSH2 0x13C SWAP1 PUSH2 0x7AE JUMP JUMPDEST DUP1 ISZERO PUSH2 0x187 JUMPI DUP1 PUSH1 0x1F LT PUSH2 0x15E JUMPI PUSH2 0x100 DUP1 DUP4 SLOAD DIV MUL DUP4 MSTORE SWAP2 PUSH1 0x20 ADD SWAP2 PUSH2 0x187 JUMP JUMPDEST DUP3 ADD SWAP2 SWAP1 PUSH0 MSTORE PUSH1 0x20 PUSH0 KECCAK256 SWAP1 JUMPDEST DUP2 SLOAD DUP2 MSTORE SWAP1 PUSH1 0x1 ADD SWAP1 PUSH1 0x20 ADD DUP1 DUP4 GT PUSH2 0x16A JUMPI DUP3 SWAP1 SUB PUSH1 0x1F AND DUP3 ADD SWAP2 JUMPDEST POP POP POP POP POP DUP2 JUMP JUMPDEST PUSH2 0x197 PUSH2 0x2C1 JUMP JUMPDEST DUP1 PUSH1 0x1 PUSH0 DUP6 DUP2 MSTORE PUSH1 0x20 ADD SWAP1 DUP2 MSTORE PUSH1 0x20 ADD PUSH0 KECCAK256 PUSH0 DUP5 DUP2 MSTORE PUSH1 0x20 ADD SWAP1 DUP2 MSTORE PUSH1 0x20 ADD PUSH0 KECCAK256 SWAP1 DUP2 PUSH2 0x1C4 SWAP2 SWAP1 PUSH2 0x97B JUMP JUMPDEST POP DUP2 DUP4 PUSH32 0xDA5FEE14920085C54D958097836AD8996AD8E6E469892FE49E99C5A317B36F0C DUP4 PUSH1 0x40 MLOAD PUSH2 0x1F6 SWAP2 SWAP1 PUSH2 0x51C JUMP JUMPDEST PUSH1 0x40 MLOAD DUP1 SWAP2 SUB SWAP1 LOG3 POP POP POP JUMP JUMPDEST PUSH2 0x20B PUSH2 0x2C1 JUMP JUMPDEST PUSH2 0x214 PUSH0 PUSH2 0x348 JUMP JUMPDEST JUMP JUMPDEST PUSH0 DUP1 PUSH0 SWAP1 SLOAD SWAP1 PUSH2 0x100 EXP SWAP1 DIV PUSH20 0xFFFFFFFFFFFFFFFFFFFFFFFFFFFFFFFFFFFFFFFF AND SWAP1 POP SWAP1 JUMP JUMPDEST PUSH2 0x245 PUSH2 0x2C1 JUMP JUMPDEST PUSH0 PUSH20 0xFFFFFFFFFFFFFFFFFFFFFFFFFFFFFFFFFFFFFFFF AND DUP2 PUSH20 0xFFFFFFFFFFFFFFFFFFFFFFFFFFFFFFFFFFFFFFFF AND SUB PUSH2 0x2B5 JUMPI PUSH0 PUSH1 0x40 MLOAD PUSH32 0x1E4FBDF700000000000000000000000000000000000000000000000000000000 DUP2 MSTORE PUSH1 0x4 ADD PUSH2 0x2AC SWAP2 SWAP1 PUSH2 0x713 JUMP JUMPDEST PUSH1 0x40 MLOAD DUP1 SWAP2 SUB SWAP1 REVERT JUMPDEST PUSH2 0x2BE DUP2 PUSH2 0x348 JUMP JUMPDEST POP JUMP JUMPDEST PUSH2 0x2C9 PUSH2 0x409 JUMP JUMPDEST PUSH20 0xFFFFFFFFFFFFFFFFFFFFFFFFFFFFFFFFFFFFFFFF AND PUSH2 0x2E7 PUSH2 0x216 JUMP JUMPDEST PUSH20 0xFFFFFFFFFFFFFFFFFFFFFFFFFFFFFFFFFFFFFFFF AND EQ PUSH2 0x346 JUMPI PUSH2 0x30A PUSH2 0x409 JUMP JUMPDEST PUSH1 0x40 MLOAD PUSH32 0x118CDAA700000000000000000000000000000000000000000000000000000000 DUP2 MSTORE PUSH1 0x4 ADD PUSH2 0x33D SWAP2 SWAP1 PUSH2 0x713 JUMP JUMPDEST PUSH1 0x40 MLOAD DUP1 SWAP2 SUB SWAP1 REVERT JUMPDEST JUMP JUMPDEST PUSH0 DUP1 PUSH0 SWAP1 SLOAD SWAP1 PUSH2 0x100 EXP SWAP1 DIV PUSH20 0xFFFFFFFFFFFFFFFFFFFFFFFFFFFFFFFFFFFFFFFF AND SWAP1 POP DUP2 PUSH0 DUP1 PUSH2 0x100 EXP DUP2 SLOAD DUP2 PUSH20 0xFFFFFFFFFFFFFFFFFFFFFFFFFFFFFFFFFFFFFFFF MUL NOT AND SWAP1 DUP4 PUSH20 0xFFFFFFFFFFFFFFFFFFFFFFFFFFFFFFFFFFFFFFFF AND MUL OR SWAP1 SSTORE POP DUP2 PUSH20 0xFFFFFFFFFFFFFFFFFFFFFFFFFFFFFFFFFFFFFFFF AND DUP2 PUSH20 0xFFFFFFFFFFFFFFFFFFFFFFFFFFFFFFFFFFFFFFFF AND PUSH32 0x8BE0079C531659141344CD1FD0A4F28419497F9722A3DAAFE3B4186F6B6457E0 PUSH1 0x40 MLOAD PUSH1 0x40 MLOAD DUP1 SWAP2 SUB SWAP1 LOG3 POP POP JUMP JUMPDEST PUSH0 CALLER SWAP1 POP SWAP1 JUMP JUMPDEST PUSH0 PUSH1 0x40 MLOAD SWAP1 POP SWAP1 JUMP JUMPDEST PUSH0 DUP1 REVERT JUMPDEST PUSH0 DUP1 REVERT JUMPDEST PUSH0 DUP2 SWAP1 POP SWAP2 SWAP1 POP JUMP JUMPDEST PUSH2 0x433 DUP2 PUSH2 0x421 JUMP JUMPDEST DUP2 EQ PUSH2 0x43D JUMPI PUSH0 DUP1 REVERT JUMPDEST POP JUMP JUMPDEST PUSH0 DUP2 CALLDATALOAD SWAP1 POP PUSH2 0x44E DUP2 PUSH2 0x42A JUMP JUMPDEST SWAP3 SWAP2 POP POP JUMP JUMPDEST PUSH0 DUP1 PUSH1 0x40 DUP4 DUP6 SUB SLT ISZERO PUSH2 0x46A JUMPI PUSH2 0x469 PUSH2 0x419 JUMP JUMPDEST JUMPDEST PUSH0 PUSH2 0x477 DUP6 DUP3 DUP7 ADD PUSH2 0x440 JUMP JUMPDEST SWAP3 POP POP PUSH1 0x20 PUSH2 0x488 DUP6 DUP3 DUP7 ADD PUSH2 0x440 JUMP JUMPDEST SWAP2 POP POP SWAP3 POP SWAP3 SWAP1 POP JUMP JUMPDEST PUSH0 DUP2 MLOAD SWAP1 POP SWAP2 SWAP1 POP JUMP JUMPDEST PUSH0 DUP3 DUP3 MSTORE PUSH1 0x20 DUP3 ADD SWAP1 POP SWAP3 SWAP2 POP POP JUMP JUMPDEST PUSH0 JUMPDEST DUP4 DUP2 LT ISZERO PUSH2 0x4C9 JUMPI DUP1 DUP3 ADD MLOAD DUP2 DUP5 ADD MSTORE PUSH1 0x20 DUP2 ADD SWAP1 POP PUSH2 0x4AE JUMP JUMPDEST PUSH0 DUP5 DUP5 ADD MSTORE POP POP POP POP JUMP JUMPDEST PUSH0 PUSH1 0x1F NOT PUSH1 0x1F DUP4 ADD AND SWAP1 POP SWAP2 SWAP1 POP JUMP JUMPDEST PUSH0 PUSH2 0x4EE DUP3 PUSH2 0x492 JUMP JUMPDEST PUSH2 0x4F8 DUP2 DUP6 PUSH2 0x49C JUMP JUMPDEST SWAP4 POP PUSH2 0x508 DUP2 DUP6 PUSH1 0x20 DUP7 ADD PUSH2 0x4AC JUMP JUMPDEST PUSH2 0x511 DUP2 PUSH2 0x4D4 JUMP JUMPDEST DUP5 ADD SWAP2 POP POP SWAP3 SWAP2 POP POP JUMP JUMPDEST PUSH0 PUSH1 0x20 DUP3 ADD SWAP1 POP DUP2 DUP2 SUB PUSH0 DUP4 ADD MSTORE PUSH2 0x534 DUP2 DUP5 PUSH2 0x4E4 JUMP JUMPDEST SWAP1 POP SWAP3 SWAP2 POP POP JUMP JUMPDEST PUSH0 DUP1 REVERT JUMPDEST PUSH0 DUP1 REVERT JUMPDEST PUSH32 0x4E487B7100000000000000000000000000000000000000000000000000000000 PUSH0 MSTORE PUSH1 0x41 PUSH1 0x4 MSTORE PUSH1 0x24 PUSH0 REVERT JUMPDEST PUSH2 0x57A DUP3 PUSH2 0x4D4 JUMP JUMPDEST DUP2 ADD DUP2 DUP2 LT PUSH8 0xFFFFFFFFFFFFFFFF DUP3 GT OR ISZERO PUSH2 0x599 JUMPI PUSH2 0x598 PUSH2 0x544 JUMP JUMPDEST JUMPDEST DUP1 PUSH1 0x40 MSTORE POP POP POP JUMP JUMPDEST PUSH0 PUSH2 0x5AB PUSH2 0x410 JUMP JUMPDEST SWAP1 POP PUSH2 0x5B7 DUP3 DUP3 PUSH2 0x571 JUMP JUMPDEST SWAP2 SWAP1 POP JUMP JUMPDEST PUSH0 PUSH8 0xFFFFFFFFFFFFFFFF DUP3 GT ISZERO PUSH2 0x5D6 JUMPI PUSH2 0x5D5 PUSH2 0x544 JUMP JUMPDEST JUMPDEST PUSH2 0x5DF DUP3 PUSH2 0x4D4 JUMP JUMPDEST SWAP1 POP PUSH1 0x20 DUP2 ADD SWAP1 POP SWAP2 SWAP1 POP JUMP JUMPDEST DUP3 DUP2 DUP4 CALLDATACOPY PUSH0 DUP4 DUP4 ADD MSTORE POP POP POP JUMP JUMPDEST PUSH0 PUSH2 0x60C PUSH2 0x607 DUP5 PUSH2 0x5BC JUMP JUMPDEST PUSH2 0x5A2 JUMP JUMPDEST SWAP1 POP DUP3 DUP2 MSTORE PUSH1 0x20 DUP2 ADD DUP5 DUP5 DUP5 ADD GT ISZERO PUSH2 0x628 JUMPI PUSH2 0x627 PUSH2 0x540 JUMP JUMPDEST JUMPDEST PUSH2 0x633 DUP5 DUP3 DUP6 PUSH2 0x5EC JUMP JUMPDEST POP SWAP4 SWAP3 POP POP POP JUMP JUMPDEST PUSH0 DUP3 PUSH1 0x1F DUP4 ADD SLT PUSH2 0x64F JUMPI PUSH2 0x64E PUSH2 0x53C JUMP JUMPDEST JUMPDEST DUP2 CALLDATALOAD PUSH2 0x65F DUP5 DUP3 PUSH1 0x20 DUP7 ADD PUSH2 0x5FA JUMP JUMPDEST SWAP2 POP POP SWAP3 SWAP2 POP POP JUMP JUMPDEST PUSH0 DUP1 PUSH0 PUSH1 0x60 DUP5 DUP7 SUB SLT ISZERO PUSH2 0x67F JUMPI PUSH2 0x67E PUSH2 0x419 JUMP JUMPDEST JUMPDEST PUSH0 PUSH2 0x68C DUP7 DUP3 DUP8 ADD PUSH2 0x440 JUMP JUMPDEST SWAP4 POP POP PUSH1 0x20 PUSH2 0x69D DUP7 DUP3 DUP8 ADD PUSH2 0x440 JUMP JUMPDEST SWAP3 POP POP PUSH1 0x40 DUP5 ADD CALLDATALOAD PUSH8 0xFFFFFFFFFFFFFFFF DUP2 GT ISZERO PUSH2 0x6BE JUMPI PUSH2 0x6BD PUSH2 0x41D JUMP JUMPDEST JUMPDEST PUSH2 0x6CA DUP7 DUP3 DUP8 ADD PUSH2 0x63B JUMP JUMPDEST SWAP2 POP POP SWAP3 POP SWAP3 POP SWAP3 JUMP JUMPDEST PUSH0 PUSH20 0xFFFFFFFFFFFFFFFFFFFFFFFFFFFFFFFFFFFFFFFF DUP3 AND SWAP1 POP SWAP2 SWAP1 POP JUMP JUMPDEST PUSH0 PUSH2 0x6FD DUP3 PUSH2 0x6D4 JUMP JUMPDEST SWAP1 POP SWAP2 SWAP1 POP JUMP JUMPDEST PUSH2 0x70D DUP2 PUSH2 0x6F3 JUMP JUMPDEST DUP3 MSTORE POP POP JUMP JUMPDEST PUSH0 PUSH1 0x20 DUP3 ADD SWAP1 POP PUSH2 0x726 PUSH0 DUP4 ADD DUP5 PUSH2 0x704 JUMP JUMPDEST SWAP3 SWAP2 POP POP JUMP JUMPDEST PUSH2 0x735 DUP2 PUSH2 0x6F3 JUMP JUMPDEST DUP2 EQ PUSH2 0x73F JUMPI PUSH0 DUP1 REVERT JUMPDEST POP JUMP JUMPDEST PUSH0 DUP2 CALLDATALOAD SWAP1 POP PUSH2 0x750 DUP2 PUSH2 0x72C JUMP JUMPDEST SWAP3 SWAP2 POP POP JUMP JUMPDEST PUSH0 PUSH1 0x20 DUP3 DUP5 SUB SLT ISZERO PUSH2 0x76B JUMPI PUSH2 0x76A PUSH2 0x419 JUMP JUMPDEST JUMPDEST PUSH0 PUSH2 0x778 DUP5 DUP3 DUP6 ADD PUSH2 0x742 JUMP JUMPDEST SWAP2 POP POP SWAP3 SWAP2 POP POP JUMP JUMPDEST PUSH32 0x4E487B7100000000000000000000000000000000000000000000000000000000 PUSH0 MSTORE PUSH1 0x22 PUSH1 0x4 MSTORE PUSH1 0x24 PUSH0 REVERT JUMPDEST PUSH0 PUSH1 0x2 DUP3 DIV SWAP1 POP PUSH1 0x1 DUP3 AND DUP1 PUSH2 0x7C5 JUMPI PUSH1 0x7F DUP3 AND SWAP2 POP JUMPDEST PUSH1 0x20 DUP3 LT DUP2 SUB PUSH2 0x7D8 JUMPI PUSH2 0x7D7 PUSH2 0x781 JUMP JUMPDEST JUMPDEST POP SWAP2 SWAP1 POP JUMP JUMPDEST PUSH0 DUP2 SWAP1 POP DUP2 PUSH0 MSTORE PUSH1 0x20 PUSH0 KECCAK256 SWAP1 POP SWAP2 SWAP1 POP JUMP JUMPDEST PUSH0 PUSH1 0x20 PUSH1 0x1F DUP4 ADD DIV SWAP1 POP SWAP2 SWAP1 POP JUMP JUMPDEST PUSH0 DUP3 DUP3 SHL SWAP1 POP SWAP3 SWAP2 POP POP JUMP JUMPDEST PUSH0 PUSH1 0x8 DUP4 MUL PUSH2 0x83A PUSH32 0xFFFFFFFFFFFFFFFFFFFFFFFFFFFFFFFFFFFFFFFFFFFFFFFFFFFFFFFFFFFFFFFF DUP3 PUSH2 0x7FF JUMP JUMPDEST PUSH2 0x844 DUP7 DUP4 PUSH2 0x7FF JUMP JUMPDEST SWAP6 POP DUP1 NOT DUP5 AND SWAP4 POP DUP1 DUP7 AND DUP5 OR SWAP3 POP POP POP SWAP4 SWAP3 POP POP POP JUMP JUMPDEST PUSH0 DUP2 SWAP1 POP SWAP2 SWAP1 POP JUMP JUMPDEST PUSH0 PUSH2 0x87F PUSH2 0x87A PUSH2 0x875 DUP5 PUSH2 0x421 JUMP JUMPDEST PUSH2 0x85C JUMP JUMPDEST PUSH2 0x421 JUMP JUMPDEST SWAP1 POP SWAP2 SWAP1 POP JUMP JUMPDEST PUSH0 DUP2 SWAP1 POP SWAP2 SWAP1 POP JUMP JUMPDEST PUSH2 0x898 DUP4 PUSH2 0x865 JUMP JUMPDEST PUSH2 0x8AC PUSH2 0x8A4 DUP3 PUSH2 0x886 JUMP JUMPDEST DUP5 DUP5 SLOAD PUSH2 0x80B JUMP JUMPDEST DUP3 SSTORE POP POP POP POP JUMP JUMPDEST PUSH0 SWAP1 JUMP JUMPDEST PUSH2 0x8C0 PUSH2 0x8B4 JUMP JUMPDEST PUSH2 0x8CB DUP2 DUP5 DUP5 PUSH2 0x88F JUMP JUMPDEST POP POP POP JUMP JUMPDEST JUMPDEST DUP2 DUP2 LT ISZERO PUSH2 0x8EE JUMPI PUSH2 0x8E3 PUSH0 DUP3 PUSH2 0x8B8 JUMP JUMPDEST PUSH1 0x1 DUP2 ADD SWAP1 POP PUSH2 0x8D1 JUMP JUMPDEST POP POP JUMP JUMPDEST PUSH1 0x1F DUP3 GT ISZERO PUSH2 0x933 JUMPI PUSH2 0x904 DUP2 PUSH2 0x7DE JUMP JUMPDEST PUSH2 0x90D DUP5 PUSH2 0x7F0 JUMP JUMPDEST DUP2 ADD PUSH1 0x20 DUP6 LT ISZERO PUSH2 0x91C JUMPI DUP2 SWAP1 POP JUMPDEST PUSH2 0x930 PUSH2 0x928 DUP6 PUSH2 0x7F0 JUMP JUMPDEST DUP4 ADD DUP3 PUSH2 0x8D0 JUMP JUMPDEST POP POP JUMPDEST POP POP POP JUMP JUMPDEST PUSH0 DUP3 DUP3 SHR SWAP1 POP SWAP3 SWAP2 POP POP JUMP JUMPDEST PUSH0 PUSH2 0x953 PUSH0 NOT DUP5 PUSH1 0x8 MUL PUSH2 0x938 JUMP JUMPDEST NOT DUP1 DUP4 AND SWAP2 POP POP SWAP3 SWAP2 POP POP JUMP JUMPDEST PUSH0 PUSH2 0x96B DUP4 DUP4 PUSH2 0x944 JUMP JUMPDEST SWAP2 POP DUP3 PUSH1 0x2 MUL DUP3 OR SWAP1 POP SWAP3 SWAP2 POP POP JUMP JUMPDEST PUSH2 0x984 DUP3 PUSH2 0x492 JUMP JUMPDEST PUSH8 0xFFFFFFFFFFFFFFFF DUP2 GT ISZERO PUSH2 0x99D JUMPI PUSH2 0x99C PUSH2 0x544 JUMP JUMPDEST JUMPDEST PUSH2 0x9A7 DUP3 SLOAD PUSH2 0x7AE JUMP JUMPDEST PUSH2 0x9B2 DUP3 DUP3 DUP6 PUSH2 0x8F2 JUMP JUMPDEST PUSH0 PUSH1 0x20 SWAP1 POP PUSH1 0x1F DUP4 GT PUSH1 0x1 DUP2 EQ PUSH2 0x9E3 JUMPI PUSH0 DUP5 ISZERO PUSH2 0x9D1 JUMPI DUP3 DUP8 ADD MLOAD SWAP1 POP JUMPDEST PUSH2 0x9DB DUP6 DUP3 PUSH2 0x960 JUMP JUMPDEST DUP7 SSTORE POP PUSH2 0xA42 JUMP JUMPDEST PUSH1 0x1F NOT DUP5 AND PUSH2 0x9F1 DUP7 PUSH2 0x7DE JUMP JUMPDEST PUSH0 JUMPDEST DUP3 DUP2 LT ISZERO PUSH2 0xA18 JUMPI DUP5 DUP10 ADD MLOAD DUP3 SSTORE PUSH1 0x1 DUP3 ADD SWAP2 POP PUSH1 0x20 DUP6 ADD SWAP5 POP PUSH1 0x20 DUP2 ADD SWAP1 POP PUSH2 0x9F3 JUMP JUMPDEST DUP7 DUP4 LT ISZERO PUSH2 0xA35 JUMPI DUP5 DUP10 ADD MLOAD PUSH2 0xA31 PUSH1 0x1F DUP10 AND DUP3 PUSH2 0x944 JUMP JUMPDEST DUP4 SSTORE POP JUMPDEST PUSH1 0x1 PUSH1 0x2 DUP9 MUL ADD DUP9 SSTORE POP POP POP JUMPDEST POP POP POP POP POP POP JUMP INVALID LOG2 PUSH5 0x6970667358 0x22 SLT KECCAK256 0x4E PUSH4 0x5C01E251 SWAP15 0x23 PUSH5 0xE66AF9624E 0xAB PUSH2 0x1108 0xB8 SWAP1 PUSH12 0xC2B1E330F8020F4AC0462964 PUSH20 0x6F6C634300081400330000000000000000000000 "},"methodIdentifiers":{"globalModels(uint256,uint256)":"3a18134b","owner()":"8da5cb5b","renounceOwnership()":"715018a6","submitGlobalModel(uint256,uint256,string)":"3df95908","transferOwnership(address)":"f2fde38b"}}}}}