{"project/contracts/RewardDistributor.sol":{"RewardDistributor":{"abi":[{"inputs":[{"internalType":"address","name":"_tokenAddress","type":"address"},{"internalType":"address","name":"_taskManagerAddress","type":"address"}],"stateMutability":"nonpayable","type":"constructor"},{"inputs":[],"name":"ReentrancyGuardReentrantCall","type":"error"},{"inputs":[{"internalType":"uint256","name":"_taskId","type":"uint256"}],"name":"claimReward","outputs":[],"stateMutability":"nonpayable","type":"function"},{"inputs":[{"internalType":"uint256","name":"","type":"uint256"},{"internalType":"address","name":"","type":"address"}],"name":"hasClaimed","outputs":[{"internalType":"bool","name":"","type":"bool"}],"stateMutability":"view","type":"function"},{"inputs":[],"name":"taskManager","outputs":[{"internalType":"contract TaskManager","name":"","type":"address"}],"stateMutability":"view","type":"function"},{"inputs":[],"name":"token","outputs":[{"internalType":"contract IERC20","name":"","type":"address"}],"stateMutability":"view","type":"function"}],"evm":{"bytecode":{"linkReferences":{},"object":"608060405234801562000010575f80fd5b506040516200107e3803806200107e83398181016040528101906200003691906200017c565b6001620000586200004c620000e560201b60201c565b6200010e60201b60201c565b5f0181905550815f806101000a81548173ffffffffffffffffffffffffffffffffffffffff021916908373ffffffffffffffffffffffffffffffffffffffff1602179055508060015f6101000a81548173ffffffffffffffffffffffffffffffffffffffff021916908373ffffffffffffffffffffffffffffffffffffffff1602179055505050620001c1565b5f7f9b779b17422d0df92223018b32b4d1fa46e071723d6817e2486d003becc55f005f1b905090565b5f819050919050565b5f80fd5b5f73ffffffffffffffffffffffffffffffffffffffff82169050919050565b5f62000146826200011b565b9050919050565b62000158816200013a565b811462000163575f80fd5b50565b5f8151905062000176816200014d565b92915050565b5f806040838503121562000195576200019462000117565b5b5f620001a48582860162000166565b9250506020620001b78582860162000166565b9150509250929050565b610eaf80620001cf5f395ff3fe608060405234801561000f575f80fd5b506004361061004a575f3560e01c8063873f6f9e1461004e578063a50a640e1461007e578063ae169a501461009c578063fc0c546a146100b8575b5f80fd5b610068600480360381019061006391906106ce565b6100d6565b6040516100759190610726565b60405180910390f35b610086610100565b604051610093919061079a565b60405180910390f35b6100b660048036038101906100b191906107b3565b610125565b005b6100c0610542565b6040516100cd91906107fe565b60405180910390f35b6002602052815f5260405f20602052805f5260405f205f915091509054906101000a900460ff1681565b60015f9054906101000a900473ffffffffffffffffffffffffffffffffffffffff1681565b61012d610565565b60025f8281526020019081526020015f205f3373ffffffffffffffffffffffffffffffffffffffff1673ffffffffffffffffffffffffffffffffffffffff1681526020019081526020015f205f9054906101000a900460ff16156101c6576040517f08c379a00000000000000000000000000000000000000000000000000000000081526004016101bd90610871565b60405180910390fd5b5f805f60015f9054906101000a900473ffffffffffffffffffffffffffffffffffffffff1673ffffffffffffffffffffffffffffffffffffffff16638d977672856040518263ffffffff1660e01b8152600401610223919061089e565b5f60405180830381865afa15801561023d573d5f803e3d5ffd5b505050506040513d5f823e3d601f19601f820116820180604052508101906102659190610a5f565b98505097505096505050505080156102b2576040517f08c379a00000000000000000000000000000000000000000000000000000000081526004016102a990610b89565b60405180910390fd5b5f80600190505f600190505b8581116103b4575f8060015f9054906101000a900473ffffffffffffffffffffffffffffffffffffffff1673ffffffffffffffffffffffffffffffffffffffff1663b253eff18a85336040518463ffffffff1660e01b815260040161032593929190610bb6565b5f60405180830381865afa15801561033f573d5f803e3d5ffd5b505050506040513d5f823e3d601f19601f820116820180604052508101906103679190610beb565b92509250505f820361037d575f935050506103b4565b8082111561039f5780826103919190610c84565b8561039c9190610cb7565b94505b505080806103ac90610cea565b9150506102be565b50806103f5576040517f08c379a00000000000000000000000000000000000000000000000000000000081526004016103ec90610da1565b60405180910390fd5b600160025f8881526020019081526020015f205f3373ffffffffffffffffffffffffffffffffffffffff1673ffffffffffffffffffffffffffffffffffffffff1681526020019081526020015f205f6101000a81548160ff0219169083151502179055505f8054906101000a900473ffffffffffffffffffffffffffffffffffffffff1673ffffffffffffffffffffffffffffffffffffffff1663a9059cbb33866040518363ffffffff1660e01b81526004016104b3929190610dbf565b6020604051808303815f875af11580156104cf573d5f803e3d5ffd5b505050506040513d601f19601f820116820180604052508101906104f39190610de6565b610532576040517f08c379a000000000000000000000000000000000000000000000000000000000815260040161052990610e5b565b60405180910390fd5b505050505061053f610587565b50565b5f8054906101000a900473ffffffffffffffffffffffffffffffffffffffff1681565b61056d6105a1565b600261057f61057a6105e2565b61060b565b5f0181905550565b60016105996105946105e2565b61060b565b5f0181905550565b6105a9610614565b156105e0576040517f3ee5aeb500000000000000000000000000000000000000000000000000000000815260040160405180910390fd5b565b5f7f9b779b17422d0df92223018b32b4d1fa46e071723d6817e2486d003becc55f005f1b905090565b5f819050919050565b5f60026106276106226105e2565b61060b565b5f015414905090565b5f604051905090565b5f80fd5b5f80fd5b5f819050919050565b61065381610641565b811461065d575f80fd5b50565b5f8135905061066e8161064a565b92915050565b5f73ffffffffffffffffffffffffffffffffffffffff82169050919050565b5f61069d82610674565b9050919050565b6106ad81610693565b81146106b7575f80fd5b50565b5f813590506106c8816106a4565b92915050565b5f80604083850312156106e4576106e3610639565b5b5f6106f185828601610660565b9250506020610702858286016106ba565b9150509250929050565b5f8115159050919050565b6107208161070c565b82525050565b5f6020820190506107395f830184610717565b92915050565b5f819050919050565b5f61076261075d61075884610674565b61073f565b610674565b9050919050565b5f61077382610748565b9050919050565b5f61078482610769565b9050919050565b6107948161077a565b82525050565b5f6020820190506107ad5f83018461078b565b92915050565b5f602082840312156107c8576107c7610639565b5b5f6107d584828501610660565b91505092915050565b5f6107e882610769565b9050919050565b6107f8816107de565b82525050565b5f6020820190506108115f8301846107ef565b92915050565b5f82825260208201905092915050565b7f416c726561647920636c61696d656400000000000000000000000000000000005f82015250565b5f61085b600f83610817565b915061086682610827565b602082019050919050565b5f6020820190508181035f8301526108888161084f565b9050919050565b61089881610641565b82525050565b5f6020820190506108b15f83018461088f565b92915050565b5f815190506108c58161064a565b92915050565b5f815190506108d9816106a4565b92915050565b5f80fd5b5f80fd5b5f601f19601f8301169050919050565b7f4e487b71000000000000000000000000000000000000000000000000000000005f52604160045260245ffd5b61092d826108e7565b810181811067ffffffffffffffff8211171561094c5761094b6108f7565b5b80604052505050565b5f61095e610630565b905061096a8282610924565b919050565b5f67ffffffffffffffff821115610989576109886108f7565b5b610992826108e7565b9050602081019050919050565b5f5b838110156109bc5780820151818401526020810190506109a1565b5f8484015250505050565b5f6109d96109d48461096f565b610955565b9050828152602081018484840111156109f5576109f46108e3565b5b610a0084828561099f565b509392505050565b5f82601f830112610a1c57610a1b6108df565b5b8151610a2c8482602086016109c7565b91505092915050565b610a3e8161070c565b8114610a48575f80fd5b50565b5f81519050610a5981610a35565b92915050565b5f805f805f805f805f6101208a8c031215610a7d57610a7c610639565b5b5f610a8a8c828d016108b7565b9950506020610a9b8c828d016108cb565b98505060408a015167ffffffffffffffff811115610abc57610abb61063d565b5b610ac88c828d01610a08565b9750506060610ad98c828d016108b7565b9650506080610aea8c828d016108b7565b95505060a0610afb8c828d016108b7565b94505060c0610b0c8c828d016108b7565b93505060e0610b1d8c828d016108b7565b925050610100610b2f8c828d01610a4b565b9150509295985092959850929598565b7f5461736b207374696c6c206163746976650000000000000000000000000000005f82015250565b5f610b73601183610817565b9150610b7e82610b3f565b602082019050919050565b5f6020820190508181035f830152610ba081610b67565b9050919050565b610bb081610693565b82525050565b5f606082019050610bc95f83018661088f565b610bd6602083018561088f565b610be36040830184610ba7565b949350505050565b5f805f60608486031215610c0257610c01610639565b5b5f84015167ffffffffffffffff811115610c1f57610c1e61063d565b5b610c2b86828701610a08565b9350506020610c3c868287016108b7565b9250506040610c4d868287016108b7565b9150509250925092565b7f4e487b71000000000000000000000000000000000000000000000000000000005f52601160045260245ffd5b5f610c8e82610641565b9150610c9983610641565b9250828203905081811115610cb157610cb0610c57565b5b92915050565b5f610cc182610641565b9150610ccc83610641565b9250828201905080821115610ce457610ce3610c57565b5b92915050565b5f610cf482610641565b91507fffffffffffffffffffffffffffffffffffffffffffffffffffffffffffffffff8203610d2657610d25610c57565b5b600182019050919050565b7f446964206e6f7420706172746963697061746520696e20616c6c20726f756e645f8201527f7300000000000000000000000000000000000000000000000000000000000000602082015250565b5f610d8b602183610817565b9150610d9682610d31565b604082019050919050565b5f6020820190508181035f830152610db881610d7f565b9050919050565b5f604082019050610dd25f830185610ba7565b610ddf602083018461088f565b9392505050565b5f60208284031215610dfb57610dfa610639565b5b5f610e0884828501610a4b565b91505092915050565b7f5374616b6520726566756e64206661696c6564000000000000000000000000005f82015250565b5f610e45601383610817565b9150610e5082610e11565b602082019050919050565b5f6020820190508181035f830152610e7281610e39565b905091905056fea264697066735822122090fd4300a5094df1c9778a05dc51a0fed7527e14c35f70ab71dc12f273189e3964736f6c63430008140033","opcodes":"PUSH1 0x80 PUSH1 0x40 MSTORE CALLVALUE DUP1 ISZERO PUSH3 0x10 JUMPI PUSH0 DUP1 REVERT JUMPDEST POP PUSH1 0x40 MLOAD PUSH3 0x107E CODESIZE SUB DUP1 PUSH3 0x107E DUP4 CODECOPY DUP2 DUP2 ADD PUSH1 0x40 MSTORE DUP2 ADD SWAP1 PUSH3 0x36 SWAP2 SWAP1 PUSH3 0x17C JUMP JUMPDEST PUSH1 0x1 PUSH3 0x58 PUSH3 0x4C PUSH3 0xE5 PUSH1 0x20 SHL PUSH1 0x20 SHR JUMP JUMPDEST PUSH3 0x10E PUSH1 0x20 SHL PUSH1 0x20 SHR JUMP JUMPDEST PUSH0 ADD DUP2 SWAP1 SSTORE POP DUP2 PUSH0 DUP1 PUSH2 0x100 EXP DUP2 SLOAD DUP2 PUSH20 0xFFFFFFFFFFFFFFFFFFFFFFFFFFFFFFFFFFFFFFFF MUL NOT AND SWAP1 DUP4 PUSH20 0xFFFFFFFFFFFFFFFFFFFFFFFFFFFFFFFFFFFFFFFF AND MUL OR SWAP1 SSTORE POP DUP1 PUSH1 0x1 PUSH0 PUSH2 0x100 EXP DUP2 SLOAD DUP2 PUSH20 0xFFFFFFFFFFFFFFFFFFFFFFFFFFFFFFFFFFFFFFFF MUL NOT AND SWAP1 DUP4 PUSH20 0xFFFFFFFFFFFFFFFFFFFFFFFFFFFFFFFFFFFFFFFF AND MUL OR SWAP1 SSTORE POP POP POP PUSH3 0x1C1 JUMP JUMPDEST PUSH0 PUSH32 0x9B779B17422D0DF92223018B32B4D1FA46E071723D6817E2486D003BECC55F00 PUSH0 SHL SWAP1 POP SWAP1 JUMP JUMPDEST PUSH0 DUP2 SWAP1 POP SWAP2 SWAP1 POP JUMP JUMPDEST PUSH0 DUP1 REVERT JUMPDEST PUSH0 PUSH20 0xFFFFFFFFFFFFFFFFFFFFFFFFFFFFFFFFFFFFFFFF DUP3 AND SWAP1 POP SWAP2 SWAP1 POP JUMP JUMPDEST PUSH0 PUSH3 0x146 DUP3 PUSH3 0x11B JUMP JUMPDEST SWAP1 POP SWAP2 SWAP1 POP JUMP JUMPDEST PUSH3 0x158 DUP2 PUSH3 0x13A JUMP JUMPDEST DUP2 EQ PUSH3 0x163 JUMPI PUSH0 DUP1 REVERT JUMPDEST POP JUMP JUMPDEST PUSH0 DUP2 MLOAD SWAP1 POP PUSH3 0x176 DUP2 PUSH3 0x14D JUMP JUMPDEST SWAP3 SWAP2 POP POP JUMP JUMPDEST PUSH0 DUP1 PUSH1 0x40 DUP4 DUP6 SUB SLT ISZERO PUSH3 0x195 JUMPI PUSH3 0x194 PUSH3 0x117 JUMP JUMPDEST JUMPDEST PUSH0 PUSH3 0x1A4 DUP6 DUP3 DUP7 ADD PUSH3 0x166 JUMP JUMPDEST SWAP3 POP POP PUSH1 0x20 PUSH3 0x1B7 DUP6 DUP3 DUP7 ADD PUSH3 0x166 JUMP JUMPDEST SWAP2 POP POP SWAP3 POP SWAP3 SWAP1 POP JUMP JUMPDEST PUSH2 0xEAF DUP1 PUSH3 0x1CF PUSH0 CODECOPY PUSH0 RETURN INVALID PUSH1 0x80 PUSH1 0x40 MSTORE CALLVALUE DUP1 ISZERO PUSH2 0xF JUMPI PUSH0 DUP1 REVERT JUMPDEST POP PUSH1 0x4 CALLDATASIZE LT PUSH2 0x4A JUMPI PUSH0 CALLDATALOAD PUSH1 0xE0 SHR DUP1 PUSH4 0x873F6F9E EQ PUSH2 0x4E JUMPI DUP1 PUSH4 0xA50A640E EQ PUSH2 0x7E JUMPI DUP1 PUSH4 0xAE169A50 EQ PUSH2 0x9C JUMPI DUP1 PUSH4 0xFC0C546A EQ PUSH2 0xB8 JUMPI JUMPDEST PUSH0 DUP1 REVERT JUMPDEST PUSH2 0x68 PUSH1 0x4 DUP1 CALLDATASIZE SUB DUP2 ADD SWAP1 PUSH2 0x63 SWAP2 SWAP1 PUSH2 0x6CE JUMP JUMPDEST PUSH2 0xD6 JUMP JUMPDEST PUSH1 0x40 MLOAD PUSH2 0x75 SWAP2 SWAP1 PUSH2 0x726 JUMP JUMPDEST PUSH1 0x40 MLOAD DUP1 SWAP2 SUB SWAP1 RETURN JUMPDEST PUSH2 0x86 PUSH2 0x100 JUMP JUMPDEST PUSH1 0x40 MLOAD PUSH2 0x93 SWAP2 SWAP1 PUSH2 0x79A JUMP JUMPDEST PUSH1 0x40 MLOAD DUP1 SWAP2 SUB SWAP1 RETURN JUMPDEST PUSH2 0xB6 PUSH1 0x4 DUP1 CALLDATASIZE SUB DUP2 ADD SWAP1 PUSH2 0xB1 SWAP2 SWAP1 PUSH2 0x7B3 JUMP JUMPDEST PUSH2 0x125 JUMP JUMPDEST STOP JUMPDEST PUSH2 0xC0 PUSH2 0x542 JUMP JUMPDEST PUSH1 0x40 MLOAD PUSH2 0xCD SWAP2 SWAP1 PUSH2 0x7FE JUMP JUMPDEST PUSH1 0x40 MLOAD DUP1 SWAP2 SUB SWAP1 RETURN JUMPDEST PUSH1 0x2 PUSH1 0x20 MSTORE DUP2 PUSH0 MSTORE PUSH1 0x40 PUSH0 KECCAK256 PUSH1 0x20 MSTORE DUP1 PUSH0 MSTORE PUSH1 0x40 PUSH0 KECCAK256 PUSH0 SWAP2 POP SWAP2 POP SWAP1 SLOAD SWAP1 PUSH2 0x100 EXP SWAP1 DIV PUSH1 0xFF AND DUP2 JUMP JUMPDEST PUSH1 0x1 PUSH0 SWAP1 SLOAD SWAP1 PUSH2 0x100 EXP SWAP1 DIV PUSH20 0xFFFFFFFFFFFFFFFFFFFFFFFFFFFFFFFFFFFFFFFF AND DUP2 JUMP JUMPDEST PUSH2 0x12D PUSH2 0x565 JUMP JUMPDEST PUSH1 0x2 PUSH0 DUP3 DUP2 MSTORE PUSH1 0x20 ADD SWAP1 DUP2 MSTORE PUSH1 0x20 ADD PUSH0 KECCAK256 PUSH0 CALLER PUSH20 0xFFFFFFFFFFFFFFFFFFFFFFFFFFFFFFFFFFFFFFFF AND PUSH20 0xFFFFFFFFFFFFFFFFFFFFFFFFFFFFFFFFFFFFFFFF AND DUP2 MSTORE PUSH1 0x20 ADD SWAP1 DUP2 MSTORE PUSH1 0x20 ADD PUSH0 KECCAK256 PUSH0 SWAP1 SLOAD SWAP1 PUSH2 0x100 EXP SWAP1 DIV PUSH1 0xFF AND ISZERO PUSH2 0x1C6 JUMPI PUSH1 0x40 MLOAD PUSH32 0x8C379A000000000000000000000000000000000000000000000000000000000 DUP2 MSTORE PUSH1 0x4 ADD PUSH2 0x1BD SWAP1 PUSH2 0x871 JUMP JUMPDEST PUSH1 0x40 MLOAD DUP1 SWAP2 SUB SWAP1 REVERT JUMPDEST PUSH0 DUP1 PUSH0 PUSH1 0x1 PUSH0 SWAP1 SLOAD SWAP1 PUSH2 0x100 EXP SWAP1 DIV PUSH20 0xFFFFFFFFFFFFFFFFFFFFFFFFFFFFFFFFFFFFFFFF AND PUSH20 0xFFFFFFFFFFFFFFFFFFFFFFFFFFFFFFFFFFFFFFFF AND PUSH4 0x8D977672 DUP6 PUSH1 0x40 MLOAD DUP3 PUSH4 0xFFFFFFFF AND PUSH1 0xE0 SHL DUP2 MSTORE PUSH1 0x4 ADD PUSH2 0x223 SWAP2 SWAP1 PUSH2 0x89E JUMP JUMPDEST PUSH0 PUSH1 0x40 MLOAD DUP1 DUP4 SUB DUP2 DUP7 GAS STATICCALL ISZERO DUP1 ISZERO PUSH2 0x23D JUMPI RETURNDATASIZE PUSH0 DUP1 RETURNDATACOPY RETURNDATASIZE PUSH0 REVERT JUMPDEST POP POP POP POP PUSH1 0x40 MLOAD RETURNDATASIZE PUSH0 DUP3 RETURNDATACOPY RETURNDATASIZE PUSH1 0x1F NOT PUSH1 0x1F DUP3 ADD AND DUP3 ADD DUP1 PUSH1 0x40 MSTORE POP DUP2 ADD SWAP1 PUSH2 0x265 SWAP2 SWAP1 PUSH2 0xA5F JUMP JUMPDEST SWAP9 POP POP SWAP8 POP POP SWAP7 POP POP POP POP POP DUP1 ISZERO PUSH2 0x2B2 JUMPI PUSH1 0x40 MLOAD PUSH32 0x8C379A000000000000000000000000000000000000000000000000000000000 DUP2 MSTORE PUSH1 0x4 ADD PUSH2 0x2A9 SWAP1 PUSH2 0xB89 JUMP JUMPDEST PUSH1 0x40 MLOAD DUP1 SWAP2 SUB SWAP1 REVERT JUMPDEST PUSH0 DUP1 PUSH1 0x1 SWAP1 POP PUSH0 PUSH1 0x1 SWAP1 POP JUMPDEST DUP6 DUP2 GT PUSH2 0x3B4 JUMPI PUSH0 DUP1 PUSH1 0x1 PUSH0 SWAP1 SLOAD SWAP1 PUSH2 0x100 EXP SWAP1 DIV PUSH20 0xFFFFFFFFFFFFFFFFFFFFFFFFFFFFFFFFFFFFFFFF AND PUSH20 0xFFFFFFFFFFFFFFFFFFFFFFFFFFFFFFFFFFFFFFFF AND PUSH4 0xB253EFF1 DUP11 DUP6 CALLER PUSH1 0x40 MLOAD DUP5 PUSH4 0xFFFFFFFF AND PUSH1 0xE0 SHL DUP2 MSTORE PUSH1 0x4 ADD PUSH2 0x325 SWAP4 SWAP3 SWAP2 SWAP1 PUSH2 0xBB6 JUMP JUMPDEST PUSH0 PUSH1 0x40 MLOAD DUP1 DUP4 SUB DUP2 DUP7 GAS STATICCALL ISZERO DUP1 ISZERO PUSH2 0x33F JUMPI RETURNDATASIZE PUSH0 DUP1 RETURNDATACOPY RETURNDATASIZE PUSH0 REVERT JUMPDEST POP POP POP POP PUSH1 0x40 MLOAD RETURNDATASIZE PUSH0 DUP3 RETURNDATACOPY RETURNDATASIZE PUSH1 0x1F NOT PUSH1 0x1F DUP3 ADD AND DUP3 ADD DUP1 PUSH1 0x40 MSTORE POP DUP2 ADD SWAP1 PUSH2 0x367 SWAP2 SWAP1 PUSH2 0xBEB JUMP JUMPDEST SWAP3 POP SWAP3 POP POP PUSH0 DUP3 SUB PUSH2 0x37D JUMPI PUSH0 SWAP4 POP POP POP PUSH2 0x3B4 JUMP JUMPDEST DUP1 DUP3 GT ISZERO PUSH2 0x39F JUMPI DUP1 DUP3 PUSH2 0x391 SWAP2 SWAP1 PUSH2 0xC84 JUMP JUMPDEST DUP6 PUSH2 0x39C SWAP2 SWAP1 PUSH2 0xCB7 JUMP JUMPDEST SWAP5 POP JUMPDEST POP POP DUP1 DUP1 PUSH2 0x3AC SWAP1 PUSH2 0xCEA JUMP JUMPDEST SWAP2 POP POP PUSH2 0x2BE JUMP JUMPDEST POP DUP1 PUSH2 0x3F5 JUMPI PUSH1 0x40 MLOAD PUSH32 0x8C379A000000000000000000000000000000000000000000000000000000000 DUP2 MSTORE PUSH1 0x4 ADD PUSH2 0x3EC SWAP1 PUSH2 0xDA1 JUMP JUMPDEST PUSH1 0x40 MLOAD DUP1 SWAP2 SUB SWAP1 REVERT JUMPDEST PUSH1 0x1 PUSH1 0x2 PUSH0 DUP9 DUP2 MSTORE PUSH1 0x20 ADD SWAP1 DUP2 MSTORE PUSH1 0x20 ADD PUSH0 KECCAK256 PUSH0 CALLER PUSH20 0xFFFFFFFFFFFFFFFFFFFFFFFFFFFFFFFFFFFFFFFF AND PUSH20 0xFFFFFFFFFFFFFFFFFFFFFFFFFFFFFFFFFFFFFFFF AND DUP2 MSTORE PUSH1 0x20 ADD SWAP1 DUP2 MSTORE PUSH1 0x20 ADD PUSH0 KECCAK256 PUSH0 PUSH2 0x100 EXP DUP2 SLOAD DUP2 PUSH1 0xFF MUL NOT AND SWAP1 DUP4 ISZERO ISZERO MUL OR SWAP1 SSTORE POP PUSH0 DUP1 SLOAD SWAP1 PUSH2 0x100 EXP SWAP1 DIV PUSH20 0xFFFFFFFFFFFFFFFFFFFFFFFFFFFFFFFFFFFFFFFF AND PUSH20 0xFFFFFFFFFFFFFFFFFFFFFFFFFFFFFFFFFFFFFFFF AND PUSH4 0xA9059CBB CALLER DUP7 PUSH1 0x40 MLOAD DUP4 PUSH4 0xFFFFFFFF AND PUSH1 0xE0 SHL DUP2 MSTORE PUSH1 0x4 ADD PUSH2 0x4B3 SWAP3 SWAP2 SWAP1 PUSH2 0xDBF JUMP JUMPDEST PUSH1 0x20 PUSH1 0x40 MLOAD DUP1 DUP4 SUB DUP2 PUSH0 DUP8 GAS CALL ISZERO DUP1 ISZERO PUSH2 0x4CF JUMPI RETURNDATASIZE PUSH0 DUP1 RETURNDATACOPY RETURNDATASIZE PUSH0 REVERT JUMPDEST POP POP POP POP PUSH1 0x40 MLOAD RETURNDATASIZE PUSH1 0x1F NOT PUSH1 0x1F DUP3 ADD AND DUP3 ADD DUP1 PUSH1 0x40 MSTORE POP DUP2 ADD SWAP1 PUSH2 0x4F3 SWAP2 SWAP1 PUSH2 0xDE6 JUMP JUMPDEST PUSH2 0x532 JUMPI PUSH1 0x40 MLOAD PUSH32 0x8C379A000000000000000000000000000000000000000000000000000000000 DUP2 MSTORE PUSH1 0x4 ADD PUSH2 0x529 SWAP1 PUSH2 0xE5B JUMP JUMPDEST PUSH1 0x40 MLOAD DUP1 SWAP2 SUB SWAP1 REVERT JUMPDEST POP POP POP POP POP PUSH2 0x53F PUSH2 0x587 JUMP JUMPDEST POP JUMP JUMPDEST PUSH0 DUP1 SLOAD SWAP1 PUSH2 0x100 EXP SWAP1 DIV PUSH20 0xFFFFFFFFFFFFFFFFFFFFFFFFFFFFFFFFFFFFFFFF AND DUP2 JUMP JUMPDEST PUSH2 0x56D PUSH2 0x5A1 JUMP JUMPDEST PUSH1 0x2 PUSH2 0x57F PUSH2 0x57A PUSH2 0x5E2 JUMP JUMPDEST PUSH2 0x60B JUMP JUMPDEST PUSH0 ADD DUP2 SWAP1 SSTORE POP JUMP JUMPDEST PUSH1 0x1 PUSH2 0x599 PUSH2 0x594 PUSH2 0x5E2 JUMP JUMPDEST PUSH2 0x60B JUMP JUMPDEST PUSH0 ADD DUP2 SWAP1 SSTORE POP JUMP JUMPDEST PUSH2 0x5A9 PUSH2 0x614 JUMP JUMPDEST ISZERO PUSH2 0x5E0 JUMPI PUSH1 0x40 MLOAD PUSH32 0x3EE5AEB500000000000000000000000000000000000000000000000000000000 DUP2 MSTORE PUSH1 0x4 ADD PUSH1 0x40 MLOAD DUP1 SWAP2 SUB SWAP1 REVERT JUMPDEST JUMP JUMPDEST PUSH0 PUSH32 0x9B779B17422D0DF92223018B32B4D1FA46E071723D6817E2486D003BECC55F00 PUSH0 SHL SWAP1 POP SWAP1 JUMP JUMPDEST PUSH0 DUP2 SWAP1 POP SWAP2 SWAP1 POP JUMP JUMPDEST PUSH0 PUSH1 0x2 PUSH2 0x627 PUSH2 0x622 PUSH2 0x5E2 JUMP JUMPDEST PUSH2 0x60B JUMP JUMPDEST PUSH0 ADD SLOAD EQ SWAP1 POP SWAP1 JUMP JUMPDEST PUSH0 PUSH1 0x40 MLOAD SWAP1 POP SWAP1 JUMP JUMPDEST PUSH0 DUP1 REVERT JUMPDEST PUSH0 DUP1 REVERT JUMPDEST PUSH0 DUP2 SWAP1 POP SWAP2 SWAP1 POP JUMP JUMPDEST PUSH2 0x653 DUP2 PUSH2 0x641 JUMP JUMPDEST DUP2 EQ PUSH2 0x65D JUMPI PUSH0 DUP1 REVERT JUMPDEST POP JUMP JUMPDEST PUSH0 DUP2 CALLDATALOAD SWAP1 POP PUSH2 0x66E DUP2 PUSH2 0x64A JUMP JUMPDEST SWAP3 SWAP2 POP POP JUMP JUMPDEST PUSH0 PUSH20 0xFFFFFFFFFFFFFFFFFFFFFFFFFFFFFFFFFFFFFFFF DUP3 AND SWAP1 POP SWAP2 SWAP1 POP JUMP JUMPDEST PUSH0 PUSH2 0x69D DUP3 PUSH2 0x674 JUMP JUMPDEST SWAP1 POP SWAP2 SWAP1 POP JUMP JUMPDEST PUSH2 0x6AD DUP2 PUSH2 0x693 JUMP JUMPDEST DUP2 EQ PUSH2 0x6B7 JUMPI PUSH0 DUP1 REVERT JUMPDEST POP JUMP JUMPDEST PUSH0 DUP2 CALLDATALOAD SWAP1 POP PUSH2 0x6C8 DUP2 PUSH2 0x6A4 JUMP JUMPDEST SWAP3 SWAP2 POP POP JUMP JUMPDEST PUSH0 DUP1 PUSH1 0x40 DUP4 DUP6 SUB SLT ISZERO PUSH2 0x6E4 JUMPI PUSH2 0x6E3 PUSH2 0x639 JUMP JUMPDEST JUMPDEST PUSH0 PUSH2 0x6F1 DUP6 DUP3 DUP7 ADD PUSH2 0x660 JUMP JUMPDEST SWAP3 POP POP PUSH1 0x20 PUSH2 0x702 DUP6 DUP3 DUP7 ADD PUSH2 0x6BA JUMP JUMPDEST SWAP2 POP POP SWAP3 POP SWAP3 SWAP1 POP JUMP JUMPDEST PUSH0 DUP2 ISZERO ISZERO SWAP1 POP SWAP2 SWAP1 POP JUMP JUMPDEST PUSH2 0x720 DUP2 PUSH2 0x70C JUMP JUMPDEST DUP3 MSTORE POP POP JUMP JUMPDEST PUSH0 PUSH1 0x20 DUP3 ADD SWAP1 POP PUSH2 0x739 PUSH0 DUP4 ADD DUP5 PUSH2 0x717 JUMP JUMPDEST SWAP3 SWAP2 POP POP JUMP JUMPDEST PUSH0 DUP2 SWAP1 POP SWAP2 SWAP1 POP JUMP JUMPDEST PUSH0 PUSH2 0x762 PUSH2 0x75D PUSH2 0x758 DUP5 PUSH2 0x674 JUMP JUMPDEST PUSH2 0x73F JUMP JUMPDEST PUSH2 0x674 JUMP JUMPDEST SWAP1 POP SWAP2 SWAP1 POP JUMP JUMPDEST PUSH0 PUSH2 0x773 DUP3 PUSH2 0x748 JUMP JUMPDEST SWAP1 POP SWAP2 SWAP1 POP JUMP JUMPDEST PUSH0 PUSH2 0x784 DUP3 PUSH2 0x769 JUMP JUMPDEST SWAP1 POP SWAP2 SWAP1 POP JUMP JUMPDEST PUSH2 0x794 DUP2 PUSH2 0x77A JUMP JUMPDEST DUP3 MSTORE POP POP JUMP JUMPDEST PUSH0 PUSH1 0x20 DUP3 ADD SWAP1 POP PUSH2 0x7AD PUSH0 DUP4 ADD DUP5 PUSH2 0x78B JUMP JUMPDEST SWAP3 SWAP2 POP POP JUMP JUMPDEST PUSH0 PUSH1 0x20 DUP3 DUP5 SUB SLT ISZERO PUSH2 0x7C8 JUMPI PUSH2 0x7C7 PUSH2 0x639 JUMP JUMPDEST JUMPDEST PUSH0 PUSH2 0x7D5 DUP5 DUP3 DUP6 ADD PUSH2 0x660 JUMP JUMPDEST SWAP2 POP POP SWAP3 SWAP2 POP POP JUMP JUMPDEST PUSH0 PUSH2 0x7E8 DUP3 PUSH2 0x769 JUMP JUMPDEST SWAP1 POP SWAP2 SWAP1 POP JUMP JUMPDEST PUSH2 0x7F8 DUP2 PUSH2 0x7DE JUMP JUMPDEST DUP3 MSTORE POP POP JUMP JUMPDEST PUSH0 PUSH1 0x20 DUP3 ADD SWAP1 POP PUSH2 0x811 PUSH0 DUP4 ADD DUP5 PUSH2 0x7EF JUMP JUMPDEST SWAP3 SWAP2 POP POP JUMP JUMPDEST PUSH0 DUP3 DUP3 MSTORE PUSH1 0x20 DUP3 ADD SWAP1 POP SWAP3 SWAP2 POP POP JUMP JUMPDEST PUSH32 0x416C726561647920636C61696D65640000000000000000000000000000000000 PUSH0 DUP3 ADD MSTORE POP JUMP JUMPDEST PUSH0 PUSH2 0x85B PUSH1 0xF DUP4 PUSH2 0x817 JUMP JUMPDEST SWAP2 POP PUSH2 0x866 DUP3 PUSH2 0x827 JUMP JUMPDEST PUSH1 0x20 DUP3 ADD SWAP1 POP SWAP2 SWAP1 POP JUMP JUMPDEST PUSH0 PUSH1 0x20 DUP3 ADD SWAP1 POP DUP2 DUP2 SUB PUSH0 DUP4 ADD MSTORE PUSH2 0x888 DUP2 PUSH2 0x84F JUMP JUMPDEST SWAP1 POP SWAP2 SWAP1 POP JUMP JUMPDEST PUSH2 0x898 DUP2 PUSH2 0x641 JUMP JUMPDEST DUP3 MSTORE POP POP JUMP JUMPDEST PUSH0 PUSH1 0x20 DUP3 ADD SWAP1 POP PUSH2 0x8B1 PUSH0 DUP4 ADD DUP5 PUSH2 0x88F JUMP JUMPDEST SWAP3 SWAP2 POP POP JUMP JUMPDEST PUSH0 DUP2 MLOAD SWAP1 POP PUSH2 0x8C5 DUP2 PUSH2 0x64A JUMP JUMPDEST SWAP3 SWAP2 POP POP JUMP JUMPDEST PUSH0 DUP2 MLOAD SWAP1 POP PUSH2 0x8D9 DUP2 PUSH2 0x6A4 JUMP JUMPDEST SWAP3 SWAP2 POP POP JUMP JUMPDEST PUSH0 DUP1 REVERT JUMPDEST PUSH0 DUP1 REVERT JUMPDEST PUSH0 PUSH1 0x1F NOT PUSH1 0x1F DUP4 ADD AND SWAP1 POP SWAP2 SWAP1 POP JUMP JUMPDEST PUSH32 0x4E487B7100000000000000000000000000000000000000000000000000000000 PUSH0 MSTORE PUSH1 0x41 PUSH1 0x4 MSTORE PUSH1 0x24 PUSH0 REVERT JUMPDEST PUSH2 0x92D DUP3 PUSH2 0x8E7 JUMP JUMPDEST DUP2 ADD DUP2 DUP2 LT PUSH8 0xFFFFFFFFFFFFFFFF DUP3 GT OR ISZERO PUSH2 0x94C JUMPI PUSH2 0x94B PUSH2 0x8F7 JUMP JUMPDEST JUMPDEST DUP1 PUSH1 0x40 MSTORE POP POP POP JUMP JUMPDEST PUSH0 PUSH2 0x95E PUSH2 0x630 JUMP JUMPDEST SWAP1 POP PUSH2 0x96A DUP3 DUP3 PUSH2 0x924 JUMP JUMPDEST SWAP2 SWAP1 POP JUMP JUMPDEST PUSH0 PUSH8 0xFFFFFFFFFFFFFFFF DUP3 GT ISZERO PUSH2 0x989 JUMPI PUSH2 0x988 PUSH2 0x8F7 JUMP JUMPDEST JUMPDEST PUSH2 0x992 DUP3 PUSH2 0x8E7 JUMP JUMPDEST SWAP1 POP PUSH1 0x20 DUP2 ADD SWAP1 POP SWAP2 SWAP1 POP JUMP JUMPDEST PUSH0 JUMPDEST DUP4 DUP2 LT ISZERO PUSH2 0x9BC JUMPI DUP1 DUP3 ADD MLOAD DUP2 DUP5 ADD MSTORE PUSH1 0x20 DUP2 ADD SWAP1 POP PUSH2 0x9A1 JUMP JUMPDEST PUSH0 DUP5 DUP5 ADD MSTORE POP POP POP POP JUMP JUMPDEST PUSH0 PUSH2 0x9D9 PUSH2 0x9D4 DUP5 PUSH2 0x96F JUMP JUMPDEST PUSH2 0x955 JUMP JUMPDEST SWAP1 POP DUP3 DUP2 MSTORE PUSH1 0x20 DUP2 ADD DUP5 DUP5 DUP5 ADD GT ISZERO PUSH2 0x9F5 JUMPI PUSH2 0x9F4 PUSH2 0x8E3 JUMP JUMPDEST JUMPDEST PUSH2 0xA00 DUP5 DUP3 DUP6 PUSH2 0x99F JUMP JUMPDEST POP SWAP4 SWAP3 POP POP POP JUMP JUMPDEST PUSH0 DUP3 PUSH1 0x1F DUP4 ADD SLT PUSH2 0xA1C JUMPI PUSH2 0xA1B PUSH2 0x8DF JUMP JUMPDEST JUMPDEST DUP2 MLOAD PUSH2 0xA2C DUP5 DUP3 PUSH1 0x20 DUP7 ADD PUSH2 0x9C7 JUMP JUMPDEST SWAP2 POP POP SWAP3 SWAP2 POP POP JUMP JUMPDEST PUSH2 0xA3E DUP2 PUSH2 0x70C JUMP JUMPDEST DUP2 EQ PUSH2 0xA48 JUMPI PUSH0 DUP1 REVERT JUMPDEST POP JUMP JUMPDEST PUSH0 DUP2 MLOAD SWAP1 POP PUSH2 0xA59 DUP2 PUSH2 0xA35 JUMP JUMPDEST SWAP3 SWAP2 POP POP JUMP JUMPDEST PUSH0 DUP1 PUSH0 DUP1 PUSH0 DUP1 PUSH0 DUP1 PUSH0 PUSH2 0x120 DUP11 DUP13 SUB SLT ISZERO PUSH2 0xA7D JUMPI PUSH2 0xA7C PUSH2 0x639 JUMP JUMPDEST JUMPDEST PUSH0 PUSH2 0xA8A DUP13 DUP3 DUP14 ADD PUSH2 0x8B7 JUMP JUMPDEST SWAP10 POP POP PUSH1 0x20 PUSH2 0xA9B DUP13 DUP3 DUP14 ADD PUSH2 0x8CB JUMP JUMPDEST SWAP9 POP POP PUSH1 0x40 DUP11 ADD MLOAD PUSH8 0xFFFFFFFFFFFFFFFF DUP2 GT ISZERO PUSH2 0xABC JUMPI PUSH2 0xABB PUSH2 0x63D JUMP JUMPDEST JUMPDEST PUSH2 0xAC8 DUP13 DUP3 DUP14 ADD PUSH2 0xA08 JUMP JUMPDEST SWAP8 POP POP PUSH1 0x60 PUSH2 0xAD9 DUP13 DUP3 DUP14 ADD PUSH2 0x8B7 JUMP JUMPDEST SWAP7 POP POP PUSH1 0x80 PUSH2 0xAEA DUP13 DUP3 DUP14 ADD PUSH2 0x8B7 JUMP JUMPDEST SWAP6 POP POP PUSH1 0xA0 PUSH2 0xAFB DUP13 DUP3 DUP14 ADD PUSH2 0x8B7 JUMP JUMPDEST SWAP5 POP POP PUSH1 0xC0 PUSH2 0xB0C DUP13 DUP3 DUP14 ADD PUSH2 0x8B7 JUMP JUMPDEST SWAP4 POP POP PUSH1 0xE0 PUSH2 0xB1D DUP13 DUP3 DUP14 ADD PUSH2 0x8B7 JUMP JUMPDEST SWAP3 POP POP PUSH2 0x100 PUSH2 0xB2F DUP13 DUP3 DUP14 ADD PUSH2 0xA4B JUMP JUMPDEST SWAP2 POP POP SWAP3 SWAP6 SWAP9 POP SWAP3 SWAP6 SWAP9 POP SWAP3 SWAP6 SWAP9 JUMP JUMPDEST PUSH32 0x5461736B207374696C6C20616374697665000000000000000000000000000000 PUSH0 DUP3 ADD MSTORE POP JUMP JUMPDEST PUSH0 PUSH2 0xB73 PUSH1 0x11 DUP4 PUSH2 0x817 JUMP JUMPDEST SWAP2 POP PUSH2 0xB7E DUP3 PUSH2 0xB3F JUMP JUMPDEST PUSH1 0x20 DUP3 ADD SWAP1 POP SWAP2 SWAP1 POP JUMP JUMPDEST PUSH0 PUSH1 0x20 DUP3 ADD SWAP1 POP DUP2 DUP2 SUB PUSH0 DUP4 ADD MSTORE PUSH2 0xBA0 DUP2 PUSH2 0xB67 JUMP JUMPDEST SWAP1 POP SWAP2 SWAP1 POP JUMP JUMPDEST PUSH2 0xBB0 DUP2 PUSH2 0x693 JUMP JUMPDEST DUP3 MSTORE POP POP JUMP JUMPDEST PUSH0 PUSH1 0x60 DUP3 ADD SWAP1 POP PUSH2 0xBC9 PUSH0 DUP4 ADD DUP7 PUSH2 0x88F JUMP JUMPDEST PUSH2 0xBD6 PUSH1 0x20 DUP4 ADD DUP6 PUSH2 0x88F JUMP JUMPDEST PUSH2 0xBE3 PUSH1 0x40 DUP4 ADD DUP5 PUSH2 0xBA7 JUMP JUMPDEST SWAP5 SWAP4 POP POP POP POP JUMP JUMPDEST PUSH0 DUP1 PUSH0 PUSH1 0x60 DUP5 DUP7 SUB SLT ISZERO PUSH2 0xC02 JUMPI PUSH2 0xC01 PUSH2 0x639 JUMP JUMPDEST JUMPDEST PUSH0 DUP5 ADD MLOAD PUSH8 0xFFFFFFFFFFFFFFFF DUP2 GT ISZERO PUSH2 0xC1F JUMPI PUSH2 0xC1E PUSH2 0x63D JUMP JUMPDEST JUMPDEST PUSH2 0xC2B DUP7 DUP3 DUP8 ADD PUSH2 0xA08 JUMP JUMPDEST SWAP4 POP POP PUSH1 0x20 PUSH2 0xC3C DUP7 DUP3 DUP8 ADD PUSH2 0x8B7 JUMP JUMPDEST SWAP3 POP POP PUSH1 0x40 PUSH2 0xC4D DUP7 DUP3 DUP8 ADD PUSH2 0x8B7 JUMP JUMPDEST SWAP2 POP POP SWAP3 POP SWAP3 POP SWAP3 JUMP JUMPDEST PUSH32 0x4E487B7100000000000000000000000000000000000000000000000000000000 PUSH0 MSTORE PUSH1 0x11 PUSH1 0x4 MSTORE PUSH1 0x24 PUSH0 REVERT JUMPDEST PUSH0 PUSH2 0xC8E DUP3 PUSH2 0x641 JUMP JUMPDEST SWAP2 POP PUSH2 0xC99 DUP4 PUSH2 0x641 JUMP JUMPDEST SWAP3 POP DUP3 DUP3 SUB SWAP1 POP DUP2 DUP2 GT ISZERO PUSH2 0xCB1 JUMPI PUSH2 0xCB0 PUSH2 0xC57 JUMP JUMPDEST JUMPDEST SWAP3 SWAP2 POP POP JUMP JUMPDEST PUSH0 PUSH2 0xCC1 DUP3 PUSH2 0x641 JUMP JUMPDEST SWAP2 POP PUSH2 0xCCC DUP4 PUSH2 0x641 JUMP JUMPDEST SWAP3 POP DUP3 DUP3 ADD SWAP1 POP DUP1 DUP3 GT ISZERO PUSH2 0xCE4 JUMPI PUSH2 0xCE3 PUSH2 0xC57 JUMP JUMPDEST JUMPDEST SWAP3 SWAP2 POP POP JUMP JUMPDEST PUSH0 PUSH2 0xCF4 DUP3 PUSH2 0x641 JUMP JUMPDEST SWAP2 POP PUSH32 0xFFFFFFFFFFFFFFFFFFFFFFFFFFFFFFFFFFFFFFFFFFFFFFFFFFFFFFFFFFFFFFFF DUP3 SUB PUSH2 0xD26 JUMPI PUSH2 0xD25 PUSH2 0xC57 JUMP JUMPDEST JUMPDEST PUSH1 0x1 DUP3 ADD SWAP1 POP SWAP2 SWAP1 POP JUMP JUMPDEST PUSH32 0x446964206E6F7420706172746963697061746520696E20616C6C20726F756E64 PUSH0 DUP3 ADD MSTORE PUSH32 0x7300000000000000000000000000000000000000000000000000000000000000 PUSH1 0x20 DUP3 ADD MSTORE POP JUMP JUMPDEST PUSH0 PUSH2 0xD8B PUSH1 0x21 DUP4 PUSH2 0x817 JUMP JUMPDEST SWAP2 POP PUSH2 0xD96 DUP3 PUSH2 0xD31 JUMP JUMPDEST PUSH1 0x40 DUP3 ADD SWAP1 POP SWAP2 SWAP1 POP JUMP JUMPDEST PUSH0 PUSH1 0x20 DUP3 ADD SWAP1 POP DUP2 DUP2 SUB PUSH0 DUP4 ADD MSTORE PUSH2 0xDB8 DUP2 PUSH2 0xD7F JUMP JUMPDEST SWAP1 POP SWAP2 SWAP1 POP JUMP JUMPDEST PUSH0 PUSH1 0x40 DUP3 ADD SWAP1 POP PUSH2 0xDD2 PUSH0 DUP4 ADD DUP6 PUSH2 0xBA7 JUMP JUMPDEST PUSH2 0xDDF PUSH1 0x20 DUP4 ADD DUP5 PUSH2 0x88F JUMP JUMPDEST SWAP4 SWAP3 POP POP POP JUMP JUMPDEST PUSH0 PUSH1 0x20 DUP3 DUP5 SUB SLT ISZERO PUSH2 0xDFB JUMPI PUSH2 0xDFA PUSH2 0x639 JUMP JUMPDEST JUMPDEST PUSH0 PUSH2 0xE08 DUP5 DUP3 DUP6 ADD PUSH2 0xA4B JUMP JUMPDEST SWAP2 POP POP SWAP3 SWAP2 POP POP JUMP JUMPDEST PUSH32 0x5374616B6520726566756E64206661696C656400000000000000000000000000 PUSH0 DUP3 ADD MSTORE POP JUMP JUMPDEST PUSH0 PUSH2 0xE45 PUSH1 0x13 DUP4 PUSH2 0x817 JUMP JUMPDEST SWAP2 POP PUSH2 0xE50 DUP3 PUSH2 0xE11 JUMP JUMPDEST PUSH1 0x20 DUP3 ADD SWAP1 POP SWAP2 SWAP1 POP JUMP JUMPDEST PUSH0 PUSH1 0x20 DUP3 ADD SWAP1 POP DUP2 DUP2 SUB PUSH0 DUP4 ADD MSTORE PUSH2 0xE72 DUP2 PUSH2 0xE39 JUMP JUMPDEST SWAP1 POP SWAP2 SWAP1 POP JUMP INVALID LOG2 PUSH5 0x6970667358 0x22 SLT KECCAK256 SWAP1 REVERT NUMBER STOP 0xA5 MULMOD 0x4D CALL 0xC9 PUSH24 0x8A05DC51A0FED7527E14C35F70AB71DC12F273189E396473 PUSH16 0x6C634300081400330000000000000000 "},"methodIdentifiers":{"claimReward(uint256)":"ae169a50","hasClaimed(uint256,address)":"873f6f9e","taskManager()":"a50a640e","token()":"fc0c546a"}}}}}