{"project/contracts/TaskManager.sol":{"TaskManager":{"abi":[{"inputs":[{"internalType":"address","name":"_tokenAddress","type":"address"},{"internalType":"address","name":"_verifierAddress","type":"address"}],"stateMutability":"nonpayable","type":"constructor"},{"inputs":[],"name":"ReentrancyGuardReentrantCall","type":"error"},{"anonymous":false,"inputs":[{"indexed":true,"internalType":"uint256","name":"taskId","type":"uint256"},{"indexed":true,"internalType":"address","name":"client","type":"address"},{"indexed":false,"internalType":"string","name":"merkleRoot","type":"string"}],"name":"ClientJoined","type":"event"},{"anonymous":false,"inputs":[{"indexed":true,"internalType":"uint256","name":"taskId","type":"uint256"},{"indexed":true,"internalType":"uint256","name":"round","type":"uint256"}],"name":"RoundComplete","type":"event"},{"anonymous":false,"inputs":[{"indexed":true,"internalType":"uint256","name":"taskId","type":"uint256"},{"indexed":true,"internalType":"address","name":"creator","type":"address"},{"indexed":false,"internalType":"string","name":"modelType","type":"string"},{"indexed":false,"internalType":"uint256","name":"rewardPool","type":"uint256"}],"name":"TaskCreated","type":"event"},{"anonymous":false,"inputs":[{"indexed":true,"internalType":"uint256","name":"taskId","type":"uint256"},{"indexed":true,"internalType":"uint256","name":"round","type":"uint256"},{"indexed":true,"internalType":"address","name":"client","type":"address"},{"indexed":false,"internalType":"string","name":"deltaCID","type":"string"}],"name":"UpdateSubmitted","type":"event"},{"inputs":[{"internalType":"string","name":"_modelType","type":"string"},{"internalType":"uint256","name":"_rewardPool","type":"uint256"},{"internalType":"uint256","name":"_rounds","type":"uint256"},{"internalType":"uint256","name":"_minClients","type":"uint256"},{"internalType":"uint256","name":"_stakeRequired","type":"uint256"}],"name":"createTask","outputs":[],"stateMutability":"nonpayable","type":"function"},{"inputs":[{"internalType":"uint256","name":"_taskId","type":"uint256"},{"internalType":"string","name":"_merkleRoot","type":"string"}],"name":"joinTask","outputs":[],"stateMutability":"nonpayable","type":"function"},{"inputs":[{"internalType":"uint256","name":"","type":"uint256"},{"internalType":"uint256","name":"","type":"uint256"}],"name":"roundSubmissionCount","outputs":[{"internalType":"uint256","name":"","type":"uint256"}],"stateMutability":"view","type":"function"},{"inputs":[{"internalType":"uint256","name":"","type":"uint256"},{"internalType":"uint256","name":"","type":"uint256"},{"internalType":"address","name":"","type":"address"}],"name":"submissions","outputs":[{"internalType":"string","name":"deltaCID","type":"string"},{"internalType":"uint256","name":"lossBefore","type":"uint256"},{"internalType":"uint256","name":"lossAfter","type":"uint256"}],"stateMutability":"view","type":"function"},{"inputs":[{"internalType":"uint256","name":"_taskId","type":"uint256"},{"internalType":"uint256","name":"_round","type":"uint256"},{"internalType":"string","name":"_deltaCID","type":"string"},{"internalType":"uint256","name":"_lossBefore","type":"uint256"},{"internalType":"uint256","name":"_lossAfter","type":"uint256"},{"internalType":"bytes","name":"_proofData","type":"bytes"}],"name":"submitUpdate","outputs":[],"stateMutability":"nonpayable","type":"function"},{"inputs":[{"internalType":"uint256","name":"","type":"uint256"},{"internalType":"address","name":"","type":"address"}],"name":"taskClients","outputs":[{"internalType":"bool","name":"isRegistered","type":"bool"},{"internalType":"uint256","name":"stake","type":"uint256"},{"internalType":"string","name":"merkleRoot","type":"string"}],"stateMutability":"view","type":"function"},{"inputs":[],"name":"taskCounter","outputs":[{"internalType":"uint256","name":"","type":"uint256"}],"stateMutability":"view","type":"function"},{"inputs":[{"internalType":"uint256","name":"","type":"uint256"}],"name":"tasks","outputs":[{"internalType":"uint256","name":"id","type":"uint256"},{"internalType":"address","name":"creator","type":"address"},{"internalType":"string","name":"modelType","type":"string"},{"internalType":"uint256","name":"rewardPool","type":"uint256"},{"internalType":"uint256","name":"rounds","type":"uint256"},{"internalType":"uint256","name":"minClients","type":"uint256"},{"internalType":"uint256","name":"stakeRequired","type":"uint256"},{"internalType":"uint256","name":"currentRound","type":"uint256"},{"internalType":"bool","name":"isActive","type":"bool"}],"stateMutability":"view","type":"function"},{"inputs":[],"name":"token","outputs":[{"internalType":"contract IERC20","name":"","type":"address"}],"stateMutability":"view","type":"function"},{"inputs":[],"name":"verifier","outputs":[{"internalType":"contract IVerifier","name":"","type":"address"}],"stateMutability":"view","type":"function"}],"evm":{"bytecode":{"linkReferences":{},"object":"608060405234801562000010575f80fd5b50604051620023713803806200237183398181016040528101906200003691906200017c565b6001620000586200004c620000e560201b60201c565b6200010e60201b60201c565b5f0181905550815f806101000a81548173ffffffffffffffffffffffffffffffffffffffff021916908373ffffffffffffffffffffffffffffffffffffffff1602179055508060015f6101000a81548173ffffffffffffffffffffffffffffffffffffffff021916908373ffffffffffffffffffffffffffffffffffffffff1602179055505050620001c1565b5f7f9b779b17422d0df92223018b32b4d1fa46e071723d6817e2486d003becc55f005f1b905090565b5f819050919050565b5f80fd5b5f73ffffffffffffffffffffffffffffffffffffffff82169050919050565b5f62000146826200011b565b9050919050565b62000158816200013a565b811462000163575f80fd5b50565b5f8151905062000176816200014d565b92915050565b5f806040838503121562000195576200019462000117565b5b5f620001a48582860162000166565b9250506020620001b78582860162000166565b9150509250929050565b6121a280620001cf5f395ff3fe608060405234801561000f575f80fd5b506004361061009c575f3560e01c8063aebe782111610064578063aebe78211461014c578063b253eff114610168578063b863f0391461019a578063cb9cc910146101cc578063fc0c546a146101fc5761009c565b80632b7ac3f3146100a05780632b8d2f61146100be57806346b4b271146100da57806358671730146100f65780638d97767214610114575b5f80fd5b6100a861021a565b6040516100b59190611128565b60405180910390f35b6100d860048036038101906100d3919061135f565b61023f565b005b6100f460048036038101906100ef9190611420565b6107a7565b005b6100fe610a96565b60405161010b9190611489565b60405180910390f35b61012e600480360381019061012991906114a2565b610a9c565b60405161014399989796959493929190611581565b60405180910390f35b61016660048036038101906101619190611613565b610b97565b005b610182600480360381019061017d91906116d0565b610e1b565b60405161019193929190611720565b60405180910390f35b6101b460048036038101906101af919061175c565b610edd565b6040516101c39392919061179a565b60405180910390f35b6101e660048036038101906101e191906117d6565b610fa0565b6040516101f39190611489565b60405180910390f35b610204610fc0565b6040516102119190611834565b60405180910390f35b60015f9054906101000a900473ffffffffffffffffffffffffffffffffffffffff1681565b5f60035f8881526020019081526020015f209050806008015f9054906101000a900460ff166102a3576040517f08c379a000000000000000000000000000000000000000000000000000000000815260040161029a90611897565b60405180910390fd5b858160070154146102e9576040517f08c379a00000000000000000000000000000000000000000000000000000000081526004016102e0906118ff565b60405180910390fd5b60045f8881526020019081526020015f205f3373ffffffffffffffffffffffffffffffffffffffff1673ffffffffffffffffffffffffffffffffffffffff1681526020019081526020015f205f015f9054906101000a900460ff16610383576040517f08c379a000000000000000000000000000000000000000000000000000000000815260040161037a90611967565b60405180910390fd5b5f60055f8981526020019081526020015f205f8881526020019081526020015f205f3373ffffffffffffffffffffffffffffffffffffffff1673ffffffffffffffffffffffffffffffffffffffff1681526020019081526020015f205f0180546103ec906119b2565b90501461042e576040517f08c379a000000000000000000000000000000000000000000000000000000000815260040161042590611a2c565b60405180910390fd5b5f600267ffffffffffffffff81111561044a5761044961119d565b5b6040519080825280602002602001820160405280156104785781602001602082028036833780820191505090505b50905084815f8151811061048f5761048e611a4a565b5b60200260200101818152505083816001815181106104b0576104af611a4a565b5b60200260200101818152505060015f9054906101000a900473ffffffffffffffffffffffffffffffffffffffff1673ffffffffffffffffffffffffffffffffffffffff16639649daae84836040518363ffffffff1660e01b8152600401610518929190611b80565b602060405180830381865afa158015610533573d5f803e3d5ffd5b505050506040513d601f19601f820116820180604052508101906105579190611bdf565b610596576040517f08c379a000000000000000000000000000000000000000000000000000000000815260040161058d90611c54565b60405180910390fd5b8484106105d8576040517f08c379a00000000000000000000000000000000000000000000000000000000081526004016105cf90611cbc565b60405180910390fd5b60405180606001604052808781526020018681526020018581525060055f8a81526020019081526020015f205f8981526020019081526020015f205f3373ffffffffffffffffffffffffffffffffffffffff1673ffffffffffffffffffffffffffffffffffffffff1681526020019081526020015f205f820151815f0190816106619190611e6e565b50602082015181600101556040820151816002015590505060065f8981526020019081526020015f205f8881526020019081526020015f205f8154809291906106a990611f6a565b91905055503373ffffffffffffffffffffffffffffffffffffffff1687897f784ab9ff405ef2d32c89e2b7ddd74d70d79fa7c93c0e2ef6acdfe1ef1678b345896040516106f69190611fb1565b60405180910390a4816005015460065f8a81526020019081526020015f205f8981526020019081526020015f20540361079d5786887f300ae75b891e0f727347ea5e32b26061fcbba2a6cc1a7f21e2ccc7d3f10b08bc60405160405180910390a381600401548703610782575f826008015f6101000a81548160ff02191690831515021790555061079c565b816007015f81548092919061079690611f6a565b91905055505b5b5050505050505050565b6107af610fe3565b5f60035f8481526020019081526020015f209050806008015f9054906101000a900460ff16610813576040517f08c379a000000000000000000000000000000000000000000000000000000000815260040161080a90611897565b60405180910390fd5b60045f8481526020019081526020015f205f3373ffffffffffffffffffffffffffffffffffffffff1673ffffffffffffffffffffffffffffffffffffffff1681526020019081526020015f205f015f9054906101000a900460ff16156108ae576040517f08c379a00000000000000000000000000000000000000000000000000000000081526004016108a59061201b565b60405180910390fd5b5f8054906101000a900473ffffffffffffffffffffffffffffffffffffffff1673ffffffffffffffffffffffffffffffffffffffff166323b872dd333084600601546040518463ffffffff1660e01b815260040161090e93929190612039565b6020604051808303815f875af115801561092a573d5f803e3d5ffd5b505050506040513d601f19601f8201168201806040525081019061094e9190611bdf565b61098d576040517f08c379a0000000000000000000000000000000000000000000000000000000008152600401610984906120b8565b60405180910390fd5b6040518060600160405280600115158152602001826006015481526020018381525060045f8581526020019081526020015f205f3373ffffffffffffffffffffffffffffffffffffffff1673ffffffffffffffffffffffffffffffffffffffff1681526020019081526020015f205f820151815f015f6101000a81548160ff021916908315150217905550602082015181600101556040820151816002019081610a379190611e6e565b509050503373ffffffffffffffffffffffffffffffffffffffff16837eb59303b35df70b52881547eabfbec4aa54b97bed808175c0588c893ddea18a84604051610a819190611fb1565b60405180910390a350610a92611005565b5050565b60025481565b6003602052805f5260405f205f91509050805f015490806001015f9054906101000a900473ffffffffffffffffffffffffffffffffffffffff1690806002018054610ae6906119b2565b80601f0160208091040260200160405190810160405280929190818152602001828054610b12906119b2565b8015610b5d5780601f10610b3457610100808354040283529160200191610b5d565b820191905f5260205f20905b815481529060010190602001808311610b4057829003601f168201915b505050505090806003015490806004015490806005015490806006015490806007015490806008015f9054906101000a900460ff16905089565b610b9f610fe3565b5f8054906101000a900473ffffffffffffffffffffffffffffffffffffffff1673ffffffffffffffffffffffffffffffffffffffff166323b872dd3330876040518463ffffffff1660e01b8152600401610bfb93929190612039565b6020604051808303815f875af1158015610c17573d5f803e3d5ffd5b505050506040513d601f19601f82011682018060405250810190610c3b9190611bdf565b610c7a576040517f08c379a0000000000000000000000000000000000000000000000000000000008152600401610c7190612120565b60405180910390fd5b60025f815480929190610c8c90611f6a565b919050555060405180610120016040528060025481526020013373ffffffffffffffffffffffffffffffffffffffff168152602001868152602001858152602001848152602001838152602001828152602001600181526020016001151581525060035f60025481526020019081526020015f205f820151815f01556020820151816001015f6101000a81548173ffffffffffffffffffffffffffffffffffffffff021916908373ffffffffffffffffffffffffffffffffffffffff1602179055506040820151816002019081610d639190611e6e565b50606082015181600301556080820151816004015560a0820151816005015560c0820151816006015560e08201518160070155610100820151816008015f6101000a81548160ff0219169083151502179055509050503373ffffffffffffffffffffffffffffffffffffffff166002547f9e3c9757475c00b86393e183b68033bb76e48fa164849c7428ad17f62e1954a78787604051610e0492919061213e565b60405180910390a3610e14611005565b5050505050565b6005602052825f5260405f20602052815f5260405f20602052805f5260405f205f925092505050805f018054610e50906119b2565b80601f0160208091040260200160405190810160405280929190818152602001828054610e7c906119b2565b8015610ec75780601f10610e9e57610100808354040283529160200191610ec7565b820191905f5260205f20905b815481529060010190602001808311610eaa57829003601f168201915b5050505050908060010154908060020154905083565b6004602052815f5260405f20602052805f5260405f205f9150915050805f015f9054906101000a900460ff1690806001015490806002018054610f1f906119b2565b80601f0160208091040260200160405190810160405280929190818152602001828054610f4b906119b2565b8015610f965780601f10610f6d57610100808354040283529160200191610f96565b820191905f5260205f20905b815481529060010190602001808311610f7957829003601f168201915b5050505050905083565b6006602052815f5260405f20602052805f5260405f205f91509150505481565b5f8054906101000a900473ffffffffffffffffffffffffffffffffffffffff1681565b610feb61101f565b6002610ffd610ff8611060565b611089565b5f0181905550565b6001611017611012611060565b611089565b5f0181905550565b611027611092565b1561105e576040517f3ee5aeb500000000000000000000000000000000000000000000000000000000815260040160405180910390fd5b565b5f7f9b779b17422d0df92223018b32b4d1fa46e071723d6817e2486d003becc55f005f1b905090565b5f819050919050565b5f60026110a56110a0611060565b611089565b5f015414905090565b5f73ffffffffffffffffffffffffffffffffffffffff82169050919050565b5f819050919050565b5f6110f06110eb6110e6846110ae565b6110cd565b6110ae565b9050919050565b5f611101826110d6565b9050919050565b5f611112826110f7565b9050919050565b61112281611108565b82525050565b5f60208201905061113b5f830184611119565b92915050565b5f604051905090565b5f80fd5b5f80fd5b5f819050919050565b61116481611152565b811461116e575f80fd5b50565b5f8135905061117f8161115b565b92915050565b5f80fd5b5f80fd5b5f601f19601f8301169050919050565b7f4e487b71000000000000000000000000000000000000000000000000000000005f52604160045260245ffd5b6111d38261118d565b810181811067ffffffffffffffff821117156111f2576111f161119d565b5b80604052505050565b5f611204611141565b905061121082826111ca565b919050565b5f67ffffffffffffffff82111561122f5761122e61119d565b5b6112388261118d565b9050602081019050919050565b828183375f83830152505050565b5f61126561126084611215565b6111fb565b90508281526020810184848401111561128157611280611189565b5b61128c848285611245565b509392505050565b5f82601f8301126112a8576112a7611185565b5b81356112b8848260208601611253565b91505092915050565b5f67ffffffffffffffff8211156112db576112da61119d565b5b6112e48261118d565b9050602081019050919050565b5f6113036112fe846112c1565b6111fb565b90508281526020810184848401111561131f5761131e611189565b5b61132a848285611245565b509392505050565b5f82601f83011261134657611345611185565b5b81356113568482602086016112f1565b91505092915050565b5f805f805f8060c087890312156113795761137861114a565b5b5f61138689828a01611171565b965050602061139789828a01611171565b955050604087013567ffffffffffffffff8111156113b8576113b761114e565b5b6113c489828a01611294565b94505060606113d589828a01611171565b93505060806113e689828a01611171565b92505060a087013567ffffffffffffffff8111156114075761140661114e565b5b61141389828a01611332565b9150509295509295509295565b5f80604083850312156114365761143561114a565b5b5f61144385828601611171565b925050602083013567ffffffffffffffff8111156114645761146361114e565b5b61147085828601611294565b9150509250929050565b61148381611152565b82525050565b5f60208201905061149c5f83018461147a565b92915050565b5f602082840312156114b7576114b661114a565b5b5f6114c484828501611171565b91505092915050565b5f6114d7826110ae565b9050919050565b6114e7816114cd565b82525050565b5f81519050919050565b5f82825260208201905092915050565b5f5b83811015611524578082015181840152602081019050611509565b5f8484015250505050565b5f611539826114ed565b61154381856114f7565b9350611553818560208601611507565b61155c8161118d565b840191505092915050565b5f8115159050919050565b61157b81611567565b82525050565b5f610120820190506115955f83018c61147a565b6115a2602083018b6114de565b81810360408301526115b4818a61152f565b90506115c3606083018961147a565b6115d0608083018861147a565b6115dd60a083018761147a565b6115ea60c083018661147a565b6115f760e083018561147a565b611605610100830184611572565b9a9950505050505050505050565b5f805f805f60a0868803121561162c5761162b61114a565b5b5f86013567ffffffffffffffff8111156116495761164861114e565b5b61165588828901611294565b955050602061166688828901611171565b945050604061167788828901611171565b935050606061168888828901611171565b925050608061169988828901611171565b9150509295509295909350565b6116af816114cd565b81146116b9575f80fd5b50565b5f813590506116ca816116a6565b92915050565b5f805f606084860312156116e7576116e661114a565b5b5f6116f486828701611171565b935050602061170586828701611171565b9250506040611716868287016116bc565b9150509250925092565b5f6060820190508181035f830152611738818661152f565b9050611747602083018561147a565b611754604083018461147a565b949350505050565b5f80604083850312156117725761177161114a565b5b5f61177f85828601611171565b9250506020611790858286016116bc565b9150509250929050565b5f6060820190506117ad5f830186611572565b6117ba602083018561147a565b81810360408301526117cc818461152f565b9050949350505050565b5f80604083850312156117ec576117eb61114a565b5b5f6117f985828601611171565b925050602061180a85828601611171565b9150509250929050565b5f61181e826110f7565b9050919050565b61182e81611814565b82525050565b5f6020820190506118475f830184611825565b92915050565b7f5461736b206e6f742061637469766500000000000000000000000000000000005f82015250565b5f611881600f836114f7565b915061188c8261184d565b602082019050919050565b5f6020820190508181035f8301526118ae81611875565b9050919050565b7f496e76616c696420726f756e64000000000000000000000000000000000000005f82015250565b5f6118e9600d836114f7565b91506118f4826118b5565b602082019050919050565b5f6020820190508181035f830152611916816118dd565b9050919050565b7f4e6f7420726567697374657265640000000000000000000000000000000000005f82015250565b5f611951600e836114f7565b915061195c8261191d565b602082019050919050565b5f6020820190508181035f83015261197e81611945565b9050919050565b7f4e487b71000000000000000000000000000000000000000000000000000000005f52602260045260245ffd5b5f60028204905060018216806119c957607f821691505b6020821081036119dc576119db611985565b5b50919050565b7f416c7265616479207375626d69747465640000000000000000000000000000005f82015250565b5f611a166011836114f7565b9150611a21826119e2565b602082019050919050565b5f6020820190508181035f830152611a4381611a0a565b9050919050565b7f4e487b71000000000000000000000000000000000000000000000000000000005f52603260045260245ffd5b5f81519050919050565b5f82825260208201905092915050565b5f611a9b82611a77565b611aa58185611a81565b9350611ab5818560208601611507565b611abe8161118d565b840191505092915050565b5f81519050919050565b5f82825260208201905092915050565b5f819050602082019050919050565b611afb81611152565b82525050565b5f611b0c8383611af2565b60208301905092915050565b5f602082019050919050565b5f611b2e82611ac9565b611b388185611ad3565b9350611b4383611ae3565b805f5b83811015611b73578151611b5a8882611b01565b9750611b6583611b18565b925050600181019050611b46565b5085935050505092915050565b5f6040820190508181035f830152611b988185611a91565b90508181036020830152611bac8184611b24565b90509392505050565b611bbe81611567565b8114611bc8575f80fd5b50565b5f81519050611bd981611bb5565b92915050565b5f60208284031215611bf457611bf361114a565b5b5f611c0184828501611bcb565b91505092915050565b7f496e76616c69642070726f6f66000000000000000000000000000000000000005f82015250565b5f611c3e600d836114f7565b9150611c4982611c0a565b602082019050919050565b5f6020820190508181035f830152611c6b81611c32565b9050919050565b7f4c6f7373206d75737420646563726561736500000000000000000000000000005f82015250565b5f611ca66012836114f7565b9150611cb182611c72565b602082019050919050565b5f6020820190508181035f830152611cd381611c9a565b9050919050565b5f819050815f5260205f209050919050565b5f6020601f8301049050919050565b5f82821b905092915050565b5f60088302611d367fffffffffffffffffffffffffffffffffffffffffffffffffffffffffffffffff82611cfb565b611d408683611cfb565b95508019841693508086168417925050509392505050565b5f611d72611d6d611d6884611152565b6110cd565b611152565b9050919050565b5f819050919050565b611d8b83611d58565b611d9f611d9782611d79565b848454611d07565b825550505050565b5f90565b611db3611da7565b611dbe818484611d82565b505050565b5b81811015611de157611dd65f82611dab565b600181019050611dc4565b5050565b601f821115611e2657611df781611cda565b611e0084611cec565b81016020851015611e0f578190505b611e23611e1b85611cec565b830182611dc3565b50505b505050565b5f82821c905092915050565b5f611e465f1984600802611e2b565b1980831691505092915050565b5f611e5e8383611e37565b9150826002028217905092915050565b611e77826114ed565b67ffffffffffffffff811115611e9057611e8f61119d565b5b611e9a82546119b2565b611ea5828285611de5565b5f60209050601f831160018114611ed6575f8415611ec4578287015190505b611ece8582611e53565b865550611f35565b601f198416611ee486611cda565b5f5b82811015611f0b57848901518255600182019150602085019450602081019050611ee6565b86831015611f285784890151611f24601f891682611e37565b8355505b6001600288020188555050505b505050505050565b7f4e487b71000000000000000000000000000000000000000000000000000000005f52601160045260245ffd5b5f611f7482611152565b91507fffffffffffffffffffffffffffffffffffffffffffffffffffffffffffffffff8203611fa657611fa5611f3d565b5b600182019050919050565b5f6020820190508181035f830152611fc9818461152f565b905092915050565b7f416c7265616479207265676973746572656400000000000000000000000000005f82015250565b5f6120056012836114f7565b915061201082611fd1565b602082019050919050565b5f6020820190508181035f83015261203281611ff9565b9050919050565b5f60608201905061204c5f8301866114de565b61205960208301856114de565b612066604083018461147a565b949350505050565b7f5374616b65207472616e73666572206661696c656400000000000000000000005f82015250565b5f6120a26015836114f7565b91506120ad8261206e565b602082019050919050565b5f6020820190508181035f8301526120cf81612096565b9050919050565b7f5472616e73666572206661696c656400000000000000000000000000000000005f82015250565b5f61210a600f836114f7565b9150612115826120d6565b602082019050919050565b5f6020820190508181035f830152612137816120fe565b9050919050565b5f6040820190508181035f830152612156818561152f565b9050612165602083018461147a565b939250505056fea264697066735822122097592049b8acea88676b8f97c6acf5eedecb4ef9979d73e2f9b021757698f68664736f6c63430008140033","opcodes":"PUSH1 0x80 PUSH1 0x40 MSTORE CALLVALUE DUP1 ISZERO PUSH3 0x10 JUMPI PUSH0 DUP1 REVERT JUMPDEST POP PUSH1 0x40 MLOAD PUSH3 0x2371 CODESIZE SUB DUP1 PUSH3 0x2371 DUP4 CODECOPY DUP2 DUP2 ADD PUSH1 0x40 MSTORE DUP2 ADD SWAP1 PUSH3 0x36 SWAP2 SWAP1 PUSH3 0x17C JUMP JUMPDEST PUSH1 0x1 PUSH3 0x58 PUSH3 0x4C PUSH3 0xE5 PUSH1 0x20 SHL PUSH1 0x20 SHR JUMP JUMPDEST PUSH3 0x10E PUSH1 0x20 SHL PUSH1 0x20 SHR JUMP JUMPDEST PUSH0 ADD DUP2 SWAP1 SSTORE POP DUP2 PUSH0 DUP1 PUSH2 0x100 EXP DUP2 SLOAD DUP2 PUSH20 0xFFFFFFFFFFFFFFFFFFFFFFFFFFFFFFFFFFFFFFFF MUL NOT AND SWAP1 DUP4 PUSH20 0xFFFFFFFFFFFFFFFFFFFFFFFFFFFFFFFFFFFFFFFF AND MUL OR SWAP1 SSTORE POP DUP1 PUSH1 0x1 PUSH0 PUSH2 0x100 EXP DUP2 SLOAD DUP2 PUSH20 0xFFFFFFFFFFFFFFFFFFFFFFFFFFFFFFFFFFFFFFFF MUL NOT AND SWAP1 DUP4 PUSH20 0xFFFFFFFFFFFFFFFFFFFFFFFFFFFFFFFFFFFFFFFF AND MUL OR SWAP1 SSTORE POP POP POP PUSH3 0x1C1 JUMP JUMPDEST PUSH0 PUSH32 0x9B779B17422D0DF92223018B32B4D1FA46E071723D6817E2486D003BECC55F00 PUSH0 SHL SWAP1 POP SWAP1 JUMP JUMPDEST PUSH0 DUP2 SWAP1 POP SWAP2 SWAP1 POP JUMP JUMPDEST PUSH0 DUP1 REVERT JUMPDEST PUSH0 PUSH20 0xFFFFFFFFFFFFFFFFFFFFFFFFFFFFFFFFFFFFFFFF DUP3 AND SWAP1 POP SWAP2 SWAP1 POP JUMP JUMPDEST PUSH0 PUSH3 0x146 DUP3 PUSH3 0x11B JUMP JUMPDEST SWAP1 POP SWAP2 SWAP1 POP JUMP JUMPDEST PUSH3 0x158 DUP2 PUSH3 0x13A JUMP JUMPDEST DUP2 EQ PUSH3 0x163 JUMPI PUSH0 DUP1 REVERT JUMPDEST POP JUMP JUMPDEST PUSH0 DUP2 MLOAD SWAP1 POP PUSH3 0x176 DUP2 PUSH3 0x14D JUMP JUMPDEST SWAP3 SWAP2 POP POP JUMP JUMPDEST PUSH0 DUP1 PUSH1 0x40 DUP4 DUP6 SUB SLT ISZERO PUSH3 0x195 JUMPI PUSH3 0x194 PUSH3 0x117 JUMP JUMPDEST JUMPDEST PUSH0 PUSH3 0x1A4 DUP6 DUP3 DUP7 ADD PUSH3 0x166 JUMP JUMPDEST SWAP3 POP POP PUSH1 0x20 PUSH3 0x1B7 DUP6 DUP3 DUP7 ADD PUSH3 0x166 JUMP JUMPDEST SWAP2 POP POP SWAP3 POP SWAP3 SWAP1 POP JUMP JUMPDEST PUSH2 0x21A2 DUP1 PUSH3 0x1CF PUSH0 CODECOPY PUSH0 RETURN INVALID PUSH1 0x80 PUSH1 0x40 MSTORE CALLVALUE DUP1 ISZERO PUSH2 0xF JUMPI PUSH0 DUP1 REVERT JUMPDEST POP PUSH1 0x4 CALLDATASIZE LT PUSH2 0x9C JUMPI PUSH0 CALLDATALOAD PUSH1 0xE0 SHR DUP1 PUSH4 0xAEBE7821 GT PUSH2 0x64 JUMPI DUP1 PUSH4 0xAEBE7821 EQ PUSH2 0x14C JUMPI DUP1 PUSH4 0xB253EFF1 EQ PUSH2 0x168 JUMPI DUP1 PUSH4 0xB863F039 EQ PUSH2 0x19A JUMPI DUP1 PUSH4 0xCB9CC910 EQ PUSH2 0x1CC JUMPI DUP1 PUSH4 0xFC0C546A EQ PUSH2 0x1FC JUMPI PUSH2 0x9C JUMP JUMPDEST DUP1 PUSH4 0x2B7AC3F3 EQ PUSH2 0xA0 JUMPI DUP1 PUSH4 0x2B8D2F61 EQ PUSH2 0xBE JUMPI DUP1 PUSH4 0x46B4B271 EQ PUSH2 0xDA JUMPI DUP1 PUSH4 0x58671730 EQ PUSH2 0xF6 JUMPI DUP1 PUSH4 0x8D977672 EQ PUSH2 0x114 JUMPI JUMPDEST PUSH0 DUP1 REVERT JUMPDEST PUSH2 0xA8 PUSH2 0x21A JUMP JUMPDEST PUSH1 0x40 MLOAD PUSH2 0xB5 SWAP2 SWAP1 PUSH2 0x1128 JUMP JUMPDEST PUSH1 0x40 MLOAD DUP1 SWAP2 SUB SWAP1 RETURN JUMPDEST PUSH2 0xD8 PUSH1 0x4 DUP1 CALLDATASIZE SUB DUP2 ADD SWAP1 PUSH2 0xD3 SWAP2 SWAP1 PUSH2 0x135F JUMP JUMPDEST PUSH2 0x23F JUMP JUMPDEST STOP JUMPDEST PUSH2 0xF4 PUSH1 0x4 DUP1 CALLDATASIZE SUB DUP2 ADD SWAP1 PUSH2 0xEF SWAP2 SWAP1 PUSH2 0x1420 JUMP JUMPDEST PUSH2 0x7A7 JUMP JUMPDEST STOP JUMPDEST PUSH2 0xFE PUSH2 0xA96 JUMP JUMPDEST PUSH1 0x40 MLOAD PUSH2 0x10B SWAP2 SWAP1 PUSH2 0x1489 JUMP JUMPDEST PUSH1 0x40 MLOAD DUP1 SWAP2 SUB SWAP1 RETURN JUMPDEST PUSH2 0x12E PUSH1 0x4 DUP1 CALLDATASIZE SUB DUP2 ADD SWAP1 PUSH2 0x129 SWAP2 SWAP1 PUSH2 0x14A2 JUMP JUMPDEST PUSH2 0xA9C JUMP JUMPDEST PUSH1 0x40 MLOAD PUSH2 0x143 SWAP10 SWAP9 SWAP8 SWAP7 SWAP6 SWAP5 SWAP4 SWAP3 SWAP2 SWAP1 PUSH2 0x1581 JUMP JUMPDEST PUSH1 0x40 MLOAD DUP1 SWAP2 SUB SWAP1 RETURN JUMPDEST PUSH2 0x166 PUSH1 0x4 DUP1 CALLDATASIZE SUB DUP2 ADD SWAP1 PUSH2 0x161 SWAP2 SWAP1 PUSH2 0x1613 JUMP JUMPDEST PUSH2 0xB97 JUMP JUMPDEST STOP JUMPDEST PUSH2 0x182 PUSH1 0x4 DUP1 CALLDATASIZE SUB DUP2 ADD SWAP1 PUSH2 0x17D SWAP2 SWAP1 PUSH2 0x16D0 JUMP JUMPDEST PUSH2 0xE1B JUMP JUMPDEST PUSH1 0x40 MLOAD PUSH2 0x191 SWAP4 SWAP3 SWAP2 SWAP1 PUSH2 0x1720 JUMP JUMPDEST PUSH1 0x40 MLOAD DUP1 SWAP2 SUB SWAP1 RETURN JUMPDEST PUSH2 0x1B4 PUSH1 0x4 DUP1 CALLDATASIZE SUB DUP2 ADD SWAP1 PUSH2 0x1AF SWAP2 SWAP1 PUSH2 0x175C JUMP JUMPDEST PUSH2 0xEDD JUMP JUMPDEST PUSH1 0x40 MLOAD PUSH2 0x1C3 SWAP4 SWAP3 SWAP2 SWAP1 PUSH2 0x179A JUMP JUMPDEST PUSH1 0x40 MLOAD DUP1 SWAP2 SUB SWAP1 RETURN JUMPDEST PUSH2 0x1E6 PUSH1 0x4 DUP1 CALLDATASIZE SUB DUP2 ADD SWAP1 PUSH2 0x1E1 SWAP2 SWAP1 PUSH2 0x17D6 JUMP JUMPDEST PUSH2 0xFA0 JUMP JUMPDEST PUSH1 0x40 MLOAD PUSH2 0x1F3 SWAP2 SWAP1 PUSH2 0x1489 JUMP JUMPDEST PUSH1 0x40 MLOAD DUP1 SWAP2 SUB SWAP1 RETURN JUMPDEST PUSH2 0x204 PUSH2 0xFC0 JUMP JUMPDEST PUSH1 0x40 MLOAD PUSH2 0x211 SWAP2 SWAP1 PUSH2 0x1834 JUMP JUMPDEST PUSH1 0x40 MLOAD DUP1 SWAP2 SUB SWAP1 RETURN JUMPDEST PUSH1 0x1 PUSH0 SWAP1 SLOAD SWAP1 PUSH2 0x100 EXP SWAP1 DIV PUSH20 0xFFFFFFFFFFFFFFFFFFFFFFFFFFFFFFFFFFFFFFFF AND DUP2 JUMP JUMPDEST PUSH0 PUSH1 0x3 PUSH0 DUP9 DUP2 MSTORE PUSH1 0x20 ADD SWAP1 DUP2 MSTORE PUSH1 0x20 ADD PUSH0 KECCAK256 SWAP1 POP DUP1 PUSH1 0x8 ADD PUSH0 SWAP1 SLOAD SWAP1 PUSH2 0x100 EXP SWAP1 DIV PUSH1 0xFF AND PUSH2 0x2A3 JUMPI PUSH1 0x40 MLOAD PUSH32 0x8C379A000000000000000000000000000000000000000000000000000000000 DUP2 MSTORE PUSH1 0x4 ADD PUSH2 0x29A SWAP1 PUSH2 0x1897 JUMP JUMPDEST PUSH1 0x40 MLOAD DUP1 SWAP2 SUB SWAP1 REVERT JUMPDEST DUP6 DUP2 PUSH1 0x7 ADD SLOAD EQ PUSH2 0x2E9 JUMPI PUSH1 0x40 MLOAD PUSH32 0x8C379A000000000000000000000000000000000000000000000000000000000 DUP2 MSTORE PUSH1 0x4 ADD PUSH2 0x2E0 SWAP1 PUSH2 0x18FF JUMP JUMPDEST PUSH1 0x40 MLOAD DUP1 SWAP2 SUB SWAP1 REVERT JUMPDEST PUSH1 0x4 PUSH0 DUP9 DUP2 MSTORE PUSH1 0x20 ADD SWAP1 DUP2 MSTORE PUSH1 0x20 ADD PUSH0 KECCAK256 PUSH0 CALLER PUSH20 0xFFFFFFFFFFFFFFFFFFFFFFFFFFFFFFFFFFFFFFFF AND PUSH20 0xFFFFFFFFFFFFFFFFFFFFFFFFFFFFFFFFFFFFFFFF AND DUP2 MSTORE PUSH1 0x20 ADD SWAP1 DUP2 MSTORE PUSH1 0x20 ADD PUSH0 KECCAK256 PUSH0 ADD PUSH0 SWAP1 SLOAD SWAP1 PUSH2 0x100 EXP SWAP1 DIV PUSH1 0xFF AND PUSH2 0x383 JUMPI PUSH1 0x40 MLOAD PUSH32 0x8C379A000000000000000000000000000000000000000000000000000000000 DUP2 MSTORE PUSH1 0x4 ADD PUSH2 0x37A SWAP1 PUSH2 0x1967 JUMP JUMPDEST PUSH1 0x40 MLOAD DUP1 SWAP2 SUB SWAP1 REVERT JUMPDEST PUSH0 PUSH1 0x5 PUSH0 DUP10 DUP2 MSTORE PUSH1 0x20 ADD SWAP1 DUP2 MSTORE PUSH1 0x20 ADD PUSH0 KECCAK256 PUSH0 DUP9 DUP2 MSTORE PUSH1 0x20 ADD SWAP1 DUP2 MSTORE PUSH1 0x20 ADD PUSH0 KECCAK256 PUSH0 CALLER PUSH20 0xFFFFFFFFFFFFFFFFFFFFFFFFFFFFFFFFFFFFFFFF AND PUSH20 0xFFFFFFFFFFFFFFFFFFFFFFFFFFFFFFFFFFFFFFFF AND DUP2 MSTORE PUSH1 0x20 ADD SWAP1 DUP2 MSTORE PUSH1 0x20 ADD PUSH0 KECCAK256 PUSH0 ADD DUP1 SLOAD PUSH2 0x3EC SWAP1 PUSH2 0x19B2 JUMP JUMPDEST SWAP1 POP EQ PUSH2 0x42E JUMPI PUSH1 0x40 MLOAD PUSH32 0x8C379A000000000000000000000000000000000000000000000000000000000 DUP2 MSTORE PUSH1 0x4 ADD PUSH2 0x425 SWAP1 PUSH2 0x1A2C JUMP JUMPDEST PUSH1 0x40 MLOAD DUP1 SWAP2 SUB SWAP1 REVERT JUMPDEST PUSH0 PUSH1 0x2 PUSH8 0xFFFFFFFFFFFFFFFF DUP2 GT ISZERO PUSH2 0x44A JUMPI PUSH2 0x449 PUSH2 0x119D JUMP JUMPDEST JUMPDEST PUSH1 0x40 MLOAD SWAP1 DUP1 DUP3 MSTORE DUP1 PUSH1 0x20 MUL PUSH1 0x20 ADD DUP3 ADD PUSH1 0x40 MSTORE DUP1 ISZERO PUSH2 0x478 JUMPI DUP2 PUSH1 0x20 ADD PUSH1 0x20 DUP3 MUL DUP1 CALLDATASIZE DUP4 CALLDATACOPY DUP1 DUP3 ADD SWAP2 POP POP SWAP1 POP JUMPDEST POP SWAP1 POP DUP5 DUP2 PUSH0 DUP2 MLOAD DUP2 LT PUSH2 0x48F JUMPI PUSH2 0x48E PUSH2 0x1A4A JUMP JUMPDEST JUMPDEST PUSH1 0x20 MUL PUSH1 0x20 ADD ADD DUP2 DUP2 MSTORE POP POP DUP4 DUP2 PUSH1 0x1 DUP2 MLOAD DUP2 LT PUSH2 0x4B0 JUMPI PUSH2 0x4AF PUSH2 0x1A4A JUMP JUMPDEST JUMPDEST PUSH1 0x20 MUL PUSH1 0x20 ADD ADD DUP2 DUP2 MSTORE POP POP PUSH1 0x1 PUSH0 SWAP1 SLOAD SWAP1 PUSH2 0x100 EXP SWAP1 DIV PUSH20 0xFFFFFFFFFFFFFFFFFFFFFFFFFFFFFFFFFFFFFFFF AND PUSH20 0xFFFFFFFFFFFFFFFFFFFFFFFFFFFFFFFFFFFFFFFF AND PUSH4 0x9649DAAE DUP5 DUP4 PUSH1 0x40 MLOAD DUP4 PUSH4 0xFFFFFFFF AND PUSH1 0xE0 SHL DUP2 MSTORE PUSH1 0x4 ADD PUSH2 0x518 SWAP3 SWAP2 SWAP1 PUSH2 0x1B80 JUMP JUMPDEST PUSH1 0x20 PUSH1 0x40 MLOAD DUP1 DUP4 SUB DUP2 DUP7 GAS STATICCALL ISZERO DUP1 ISZERO PUSH2 0x533 JUMPI RETURNDATASIZE PUSH0 DUP1 RETURNDATACOPY RETURNDATASIZE PUSH0 REVERT JUMPDEST POP POP POP POP PUSH1 0x40 MLOAD RETURNDATASIZE PUSH1 0x1F NOT PUSH1 0x1F DUP3 ADD AND DUP3 ADD DUP1 PUSH1 0x40 MSTORE POP DUP2 ADD SWAP1 PUSH2 0x557 SWAP2 SWAP1 PUSH2 0x1BDF JUMP JUMPDEST PUSH2 0x596 JUMPI PUSH1 0x40 MLOAD PUSH32 0x8C379A000000000000000000000000000000000000000000000000000000000 DUP2 MSTORE PUSH1 0x4 ADD PUSH2 0x58D SWAP1 PUSH2 0x1C54 JUMP JUMPDEST PUSH1 0x40 MLOAD DUP1 SWAP2 SUB SWAP1 REVERT JUMPDEST DUP5 DUP5 LT PUSH2 0x5D8 JUMPI PUSH1 0x40 MLOAD PUSH32 0x8C379A000000000000000000000000000000000000000000000000000000000 DUP2 MSTORE PUSH1 0x4 ADD PUSH2 0x5CF SWAP1 PUSH2 0x1CBC JUMP JUMPDEST PUSH1 0x40 MLOAD DUP1 SWAP2 SUB SWAP1 REVERT JUMPDEST PUSH1 0x40 MLOAD DUP1 PUSH1 0x60 ADD PUSH1 0x40 MSTORE DUP1 DUP8 DUP2 MSTORE PUSH1 0x20 ADD DUP7 DUP2 MSTORE PUSH1 0x20 ADD DUP6 DUP2 MSTORE POP PUSH1 0x5 PUSH0 DUP11 DUP2 MSTORE PUSH1 0x20 ADD SWAP1 DUP2 MSTORE PUSH1 0x20 ADD PUSH0 KECCAK256 PUSH0 DUP10 DUP2 MSTORE PUSH1 0x20 ADD SWAP1 DUP2 MSTORE PUSH1 0x20 ADD PUSH0 KECCAK256 PUSH0 CALLER PUSH20 0xFFFFFFFFFFFFFFFFFFFFFFFFFFFFFFFFFFFFFFFF AND PUSH20 0xFFFFFFFFFFFFFFFFFFFFFFFFFFFFFFFFFFFFFFFF AND DUP2 MSTORE PUSH1 0x20 ADD SWAP1 DUP2 MSTORE PUSH1 0x20 ADD PUSH0 KECCAK256 PUSH0 DUP3 ADD MLOAD DUP2 PUSH0 ADD SWAP1 DUP2 PUSH2 0x661 SWAP2 SWAP1 PUSH2 0x1E6E JUMP JUMPDEST POP PUSH1 0x20 DUP3 ADD MLOAD DUP2 PUSH1 0x1 ADD SSTORE PUSH1 0x40 DUP3 ADD MLOAD DUP2 PUSH1 0x2 ADD SSTORE SWAP1 POP POP PUSH1 0x6 PUSH0 DUP10 DUP2 MSTORE PUSH1 0x20 ADD SWAP1 DUP2 MSTORE PUSH1 0x20 ADD PUSH0 KECCAK256 PUSH0 DUP9 DUP2 MSTORE PUSH1 0x20 ADD SWAP1 DUP2 MSTORE PUSH1 0x20 ADD PUSH0 KECCAK256 PUSH0 DUP2 SLOAD DUP1 SWAP3 SWAP2 SWAP1 PUSH2 0x6A9 SWAP1 PUSH2 0x1F6A JUMP JUMPDEST SWAP2 SWAP1 POP SSTORE POP CALLER PUSH20 0xFFFFFFFFFFFFFFFFFFFFFFFFFFFFFFFFFFFFFFFF AND DUP8 DUP10 PUSH32 0x784AB9FF405EF2D32C89E2B7DDD74D70D79FA7C93C0E2EF6ACDFE1EF1678B345 DUP10 PUSH1 0x40 MLOAD PUSH2 0x6F6 SWAP2 SWAP1 PUSH2 0x1FB1 JUMP JUMPDEST PUSH1 0x40 MLOAD DUP1 SWAP2 SUB SWAP1 LOG4 DUP2 PUSH1 0x5 ADD SLOAD PUSH1 0x6 PUSH0 DUP11 DUP2 MSTORE PUSH1 0x20 ADD SWAP1 DUP2 MSTORE PUSH1 0x20 ADD PUSH0 KECCAK256 PUSH0 DUP10 DUP2 MSTORE PUSH1 0x20 ADD SWAP1 DUP2 MSTORE PUSH1 0x20 ADD PUSH0 KECCAK256 SLOAD SUB PUSH2 0x79D JUMPI DUP7 DUP9 PUSH32 0x300AE75B891E0F727347EA5E32B26061FCBBA2A6CC1A7F21E2CCC7D3F10B08BC PUSH1 0x40 MLOAD PUSH1 0x40 MLOAD DUP1 SWAP2 SUB SWAP1 LOG3 DUP2 PUSH1 0x4 ADD SLOAD DUP8 SUB PUSH2 0x782 JUMPI PUSH0 DUP3 PUSH1 0x8 ADD PUSH0 PUSH2 0x100 EXP DUP2 SLOAD DUP2 PUSH1 0xFF MUL NOT AND SWAP1 DUP4 ISZERO ISZERO MUL OR SWAP1 SSTORE POP PUSH2 0x79C JUMP JUMPDEST DUP2 PUSH1 0x7 ADD PUSH0 DUP2 SLOAD DUP1 SWAP3 SWAP2 SWAP1 PUSH2 0x796 SWAP1 PUSH2 0x1F6A JUMP JUMPDEST SWAP2 SWAP1 POP SSTORE POP JUMPDEST JUMPDEST POP POP POP POP POP POP POP POP JUMP JUMPDEST PUSH2 0x7AF PUSH2 0xFE3 JUMP JUMPDEST PUSH0 PUSH1 0x3 PUSH0 DUP5 DUP2 MSTORE PUSH1 0x20 ADD SWAP1 DUP2 MSTORE PUSH1 0x20 ADD PUSH0 KECCAK256 SWAP1 POP DUP1 PUSH1 0x8 ADD PUSH0 SWAP1 SLOAD SWAP1 PUSH2 0x100 EXP SWAP1 DIV PUSH1 0xFF AND PUSH2 0x813 JUMPI PUSH1 0x40 MLOAD PUSH32 0x8C379A000000000000000000000000000000000000000000000000000000000 DUP2 MSTORE PUSH1 0x4 ADD PUSH2 0x80A SWAP1 PUSH2 0x1897 JUMP JUMPDEST PUSH1 0x40 MLOAD DUP1 SWAP2 SUB SWAP1 REVERT JUMPDEST PUSH1 0x4 PUSH0 DUP5 DUP2 MSTORE PUSH1 0x20 ADD SWAP1 DUP2 MSTORE PUSH1 0x20 ADD PUSH0 KECCAK256 PUSH0 CALLER PUSH20 0xFFFFFFFFFFFFFFFFFFFFFFFFFFFFFFFFFFFFFFFF AND PUSH20 0xFFFFFFFFFFFFFFFFFFFFFFFFFFFFFFFFFFFFFFFF AND DUP2 MSTORE PUSH1 0x20 ADD SWAP1 DUP2 MSTORE PUSH1 0x20 ADD PUSH0 KECCAK256 PUSH0 ADD PUSH0 SWAP1 SLOAD SWAP1 PUSH2 0x100 EXP SWAP1 DIV PUSH1 0xFF AND ISZERO PUSH2 0x8AE JUMPI PUSH1 0x40 MLOAD PUSH32 0x8C379A000000000000000000000000000000000000000000000000000000000 DUP2 MSTORE PUSH1 0x4 ADD PUSH2 0x8A5 SWAP1 PUSH2 0x201B JUMP JUMPDEST PUSH1 0x40 MLOAD DUP1 SWAP2 SUB SWAP1 REVERT JUMPDEST PUSH0 DUP1 SLOAD SWAP1 PUSH2 0x100 EXP SWAP1 DIV PUSH20 0xFFFFFFFFFFFFFFFFFFFFFFFFFFFFFFFFFFFFFFFF AND PUSH20 0xFFFFFFFFFFFFFFFFFFFFFFFFFFFFFFFFFFFFFFFF AND PUSH4 0x23B872DD CALLER ADDRESS DUP5 PUSH1 0x6 ADD SLOAD PUSH1 0x40 MLOAD DUP5 PUSH4 0xFFFFFFFF AND PUSH1 0xE0 SHL DUP2 MSTORE PUSH1 0x4 ADD PUSH2 0x90E SWAP4 SWAP3 SWAP2 SWAP1 PUSH2 0x2039 JUMP JUMPDEST PUSH1 0x20 PUSH1 0x40 MLOAD DUP1 DUP4 SUB DUP2 PUSH0 DUP8 GAS CALL ISZERO DUP1 ISZERO PUSH2 0x92A JUMPI RETURNDATASIZE PUSH0 DUP1 RETURNDATACOPY RETURNDATASIZE PUSH0 REVERT JUMPDEST POP POP POP POP PUSH1 0x40 MLOAD RETURNDATASIZE PUSH1 0x1F NOT PUSH1 0x1F DUP3 ADD AND DUP3 ADD DUP1 PUSH1 0x40 MSTORE POP DUP2 ADD SWAP1 PUSH2 0x94E SWAP2 SWAP1 PUSH2 0x1BDF JUMP JUMPDEST PUSH2 0x98D JUMPI PUSH1 0x40 MLOAD PUSH32 0x8C379A000000000000000000000000000000000000000000000000000000000 DUP2 MSTORE PUSH1 0x4 ADD PUSH2 0x984 SWAP1 PUSH2 0x20B8 JUMP JUMPDEST PUSH1 0x40 MLOAD DUP1 SWAP2 SUB SWAP1 REVERT JUMPDEST PUSH1 0x40 MLOAD DUP1 PUSH1 0x60 ADD PUSH1 0x40 MSTORE DUP1 PUSH1 0x1 ISZERO ISZERO DUP2 MSTORE PUSH1 0x20 ADD DUP3 PUSH1 0x6 ADD SLOAD DUP2 MSTORE PUSH1 0x20 ADD DUP4 DUP2 MSTORE POP PUSH1 0x4 PUSH0 DUP6 DUP2 MSTORE PUSH1 0x20 ADD SWAP1 DUP2 MSTORE PUSH1 0x20 ADD PUSH0 KECCAK256 PUSH0 CALLER PUSH20 0xFFFFFFFFFFFFFFFFFFFFFFFFFFFFFFFFFFFFFFFF AND PUSH20 0xFFFFFFFFFFFFFFFFFFFFFFFFFFFFFFFFFFFFFFFF AND DUP2 MSTORE PUSH1 0x20 ADD SWAP1 DUP2 MSTORE PUSH1 0x20 ADD PUSH0 KECCAK256 PUSH0 DUP3 ADD MLOAD DUP2 PUSH0 ADD PUSH0 PUSH2 0x100 EXP DUP2 SLOAD DUP2 PUSH1 0xFF MUL NOT AND SWAP1 DUP4 ISZERO ISZERO MUL OR SWAP1 SSTORE POP PUSH1 0x20 DUP3 ADD MLOAD DUP2 PUSH1 0x1 ADD SSTORE PUSH1 0x40 DUP3 ADD MLOAD DUP2 PUSH1 0x2 ADD SWAP1 DUP2 PUSH2 0xA37 SWAP2 SWAP1 PUSH2 0x1E6E JUMP JUMPDEST POP SWAP1 POP POP CALLER PUSH20 0xFFFFFFFFFFFFFFFFFFFFFFFFFFFFFFFFFFFFFFFF AND DUP4 PUSH31 0xB59303B35DF70B52881547EABFBEC4AA54B97BED808175C0588C893DDEA18A DUP5 PUSH1 0x40 MLOAD PUSH2 0xA81 SWAP2 SWAP1 PUSH2 0x1FB1 JUMP JUMPDEST PUSH1 0x40 MLOAD DUP1 SWAP2 SUB SWAP1 LOG3 POP PUSH2 0xA92 PUSH2 0x1005 JUMP JUMPDEST POP POP JUMP JUMPDEST PUSH1 0x2 SLOAD DUP2 JUMP JUMPDEST PUSH1 0x3 PUSH1 0x20 MSTORE DUP1 PUSH0 MSTORE PUSH1 0x40 PUSH0 KECCAK256 PUSH0 SWAP2 POP SWAP1 POP DUP1 PUSH0 ADD SLOAD SWAP1 DUP1 PUSH1 0x1 ADD PUSH0 SWAP1 SLOAD SWAP1 PUSH2 0x100 EXP SWAP1 DIV PUSH20 0xFFFFFFFFFFFFFFFFFFFFFFFFFFFFFFFFFFFFFFFF AND SWAP1 DUP1 PUSH1 0x2 ADD DUP1 SLOAD PUSH2 0xAE6 SWAP1 PUSH2 0x19B2 JUMP JUMPDEST DUP1 PUSH1 0x1F ADD PUSH1 0x20 DUP1 SWAP2 DIV MUL PUSH1 0x20 ADD PUSH1 0x40 MLOAD SWAP1 DUP2 ADD PUSH1 0x40 MSTORE DUP1 SWAP3 SWAP2 SWAP1 DUP2 DUP2 MSTORE PUSH1 0x20 ADD DUP3 DUP1 SLOAD PUSH2 0xB12 SWAP1 PUSH2 0x19B2 JUMP JUMPDEST DUP1 ISZERO PUSH2 0xB5D JUMPI DUP1 PUSH1 0x1F LT PUSH2 0xB34 JUMPI PUSH2 0x100 DUP1 DUP4 SLOAD DIV MUL DUP4 MSTORE SWAP2 PUSH1 0x20 ADD SWAP2 PUSH2 0xB5D JUMP JUMPDEST DUP3 ADD SWAP2 SWAP1 PUSH0 MSTORE PUSH1 0x20 PUSH0 KECCAK256 SWAP1 JUMPDEST DUP2 SLOAD DUP2 MSTORE SWAP1 PUSH1 0x1 ADD SWAP1 PUSH1 0x20 ADD DUP1 DUP4 GT PUSH2 0xB40 JUMPI DUP3 SWAP1 SUB PUSH1 0x1F AND DUP3 ADD SWAP2 JUMPDEST POP POP POP POP POP SWAP1 DUP1 PUSH1 0x3 ADD SLOAD SWAP1 DUP1 PUSH1 0x4 ADD SLOAD SWAP1 DUP1 PUSH1 0x5 ADD SLOAD SWAP1 DUP1 PUSH1 0x6 ADD SLOAD SWAP1 DUP1 PUSH1 0x7 ADD SLOAD SWAP1 DUP1 PUSH1 0x8 ADD PUSH0 SWAP1 SLOAD SWAP1 PUSH2 0x100 EXP SWAP1 DIV PUSH1 0xFF AND SWAP1 POP DUP10 JUMP JUMPDEST PUSH2 0xB9F PUSH2 0xFE3 JUMP JUMPDEST PUSH0 DUP1 SLOAD SWAP1 PUSH2 0x100 EXP SWAP1 DIV PUSH20 0xFFFFFFFFFFFFFFFFFFFFFFFFFFFFFFFFFFFFFFFF AND PUSH20 0xFFFFFFFFFFFFFFFFFFFFFFFFFFFFFFFFFFFFFFFF AND PUSH4 0x23B872DD CALLER ADDRESS DUP8 PUSH1 0x40 MLOAD DUP5 PUSH4 0xFFFFFFFF AND PUSH1 0xE0 SHL DUP2 MSTORE PUSH1 0x4 ADD PUSH2 0xBFB SWAP4 SWAP3 SWAP2 SWAP1 PUSH2 0x2039 JUMP JUMPDEST PUSH1 0x20 PUSH1 0x40 MLOAD DUP1 DUP4 SUB DUP2 PUSH0 DUP8 GAS CALL ISZERO DUP1 ISZERO PUSH2 0xC17 JUMPI RETURNDATASIZE PUSH0 DUP1 RETURNDATACOPY RETURNDATASIZE PUSH0 REVERT JUMPDEST POP POP POP POP PUSH1 0x40 MLOAD RETURNDATASIZE PUSH1 0x1F NOT PUSH1 0x1F DUP3 ADD AND DUP3 ADD DUP1 PUSH1 0x40 MSTORE POP DUP2 ADD SWAP1 PUSH2 0xC3B SWAP2 SWAP1 PUSH2 0x1BDF JUMP JUMPDEST PUSH2 0xC7A JUMPI PUSH1 0x40 MLOAD PUSH32 0x8C379A000000000000000000000000000000000000000000000000000000000 DUP2 MSTORE PUSH1 0x4 ADD PUSH2 0xC71 SWAP1 PUSH2 0x2120 JUMP JUMPDEST PUSH1 0x40 MLOAD DUP1 SWAP2 SUB SWAP1 REVERT JUMPDEST PUSH1 0x2 PUSH0 DUP2 SLOAD DUP1 SWAP3 SWAP2 SWAP1 PUSH2 0xC8C SWAP1 PUSH2 0x1F6A JUMP JUMPDEST SWAP2 SWAP1 POP SSTORE POP PUSH1 0x40 MLOAD DUP1 PUSH2 0x120 ADD PUSH1 0x40 MSTORE DUP1 PUSH1 0x2 SLOAD DUP2 MSTORE PUSH1 0x20 ADD CALLER PUSH20 0xFFFFFFFFFFFFFFFFFFFFFFFFFFFFFFFFFFFFFFFF AND DUP2 MSTORE PUSH1 0x20 ADD DUP7 DUP2 MSTORE PUSH1 0x20 ADD DUP6 DUP2 MSTORE PUSH1 0x20 ADD DUP5 DUP2 MSTORE PUSH1 0x20 ADD DUP4 DUP2 MSTORE PUSH1 0x20 ADD DUP3 DUP2 MSTORE PUSH1 0x20 ADD PUSH1 0x1 DUP2 MSTORE PUSH1 0x20 ADD PUSH1 0x1 ISZERO ISZERO DUP2 MSTORE POP PUSH1 0x3 PUSH0 PUSH1 0x2 SLOAD DUP2 MSTORE PUSH1 0x20 ADD SWAP1 DUP2 MSTORE PUSH1 0x20 ADD PUSH0 KECCAK256 PUSH0 DUP3 ADD MLOAD DUP2 PUSH0 ADD SSTORE PUSH1 0x20 DUP3 ADD MLOAD DUP2 PUSH1 0x1 ADD PUSH0 PUSH2 0x100 EXP DUP2 SLOAD DUP2 PUSH20 0xFFFFFFFFFFFFFFFFFFFFFFFFFFFFFFFFFFFFFFFF MUL NOT AND SWAP1 DUP4 PUSH20 0xFFFFFFFFFFFFFFFFFFFFFFFFFFFFFFFFFFFFFFFF AND MUL OR SWAP1 SSTORE POP PUSH1 0x40 DUP3 ADD MLOAD DUP2 PUSH1 0x2 ADD SWAP1 DUP2 PUSH2 0xD63 SWAP2 SWAP1 PUSH2 0x1E6E JUMP JUMPDEST POP PUSH1 0x60 DUP3 ADD MLOAD DUP2 PUSH1 0x3 ADD SSTORE PUSH1 0x80 DUP3 ADD MLOAD DUP2 PUSH1 0x4 ADD SSTORE PUSH1 0xA0 DUP3 ADD MLOAD DUP2 PUSH1 0x5 ADD SSTORE PUSH1 0xC0 DUP3 ADD MLOAD DUP2 PUSH1 0x6 ADD SSTORE PUSH1 0xE0 DUP3 ADD MLOAD DUP2 PUSH1 0x7 ADD SSTORE PUSH2 0x100 DUP3 ADD MLOAD DUP2 PUSH1 0x8 ADD PUSH0 PUSH2 0x100 EXP DUP2 SLOAD DUP2 PUSH1 0xFF MUL NOT AND SWAP1 DUP4 ISZERO ISZERO MUL OR SWAP1 SSTORE POP SWAP1 POP POP CALLER PUSH20 0xFFFFFFFFFFFFFFFFFFFFFFFFFFFFFFFFFFFFFFFF AND PUSH1 0x2 SLOAD PUSH32 0x9E3C9757475C00B86393E183B68033BB76E48FA164849C7428AD17F62E1954A7 DUP8 DUP8 PUSH1 0x40 MLOAD PUSH2 0xE04 SWAP3 SWAP2 SWAP1 PUSH2 0x213E JUMP JUMPDEST PUSH1 0x40 MLOAD DUP1 SWAP2 SUB SWAP1 LOG3 PUSH2 0xE14 PUSH2 0x1005 JUMP JUMPDEST POP POP POP POP POP JUMP JUMPDEST PUSH1 0x5 PUSH1 0x20 MSTORE DUP3 PUSH0 MSTORE PUSH1 0x40 PUSH0 KECCAK256 PUSH1 0x20 MSTORE DUP2 PUSH0 MSTORE PUSH1 0x40 PUSH0 KECCAK256 PUSH1 0x20 MSTORE DUP1 PUSH0 MSTORE PUSH1 0x40 PUSH0 KECCAK256 PUSH0 SWAP3 POP SWAP3 POP POP POP DUP1 PUSH0 ADD DUP1 SLOAD PUSH2 0xE50 SWAP1 PUSH2 0x19B2 JUMP JUMPDEST DUP1 PUSH1 0x1F ADD PUSH1 0x20 DUP1 SWAP2 DIV MUL PUSH1 0x20 ADD PUSH1 0x40 MLOAD SWAP1 DUP2 ADD PUSH1 0x40 MSTORE DUP1 SWAP3 SWAP2 SWAP1 DUP2 DUP2 MSTORE PUSH1 0x20 ADD DUP3 DUP1 SLOAD PUSH2 0xE7C SWAP1 PUSH2 0x19B2 JUMP JUMPDEST DUP1 ISZERO PUSH2 0xEC7 JUMPI DUP1 PUSH1 0x1F LT PUSH2 0xE9E JUMPI PUSH2 0x100 DUP1 DUP4 SLOAD DIV MUL DUP4 MSTORE SWAP2 PUSH1 0x20 ADD SWAP2 PUSH2 0xEC7 JUMP JUMPDEST DUP3 ADD SWAP2 SWAP1 PUSH0 MSTORE PUSH1 0x20 PUSH0 KECCAK256 SWAP1 JUMPDEST DUP2 SLOAD DUP2 MSTORE SWAP1 PUSH1 0x1 ADD SWAP1 PUSH1 0x20 ADD DUP1 DUP4 GT PUSH2 0xEAA JUMPI DUP3 SWAP1 SUB PUSH1 0x1F AND DUP3 ADD SWAP2 JUMPDEST POP POP POP POP POP SWAP1 DUP1 PUSH1 0x1 ADD SLOAD SWAP1 DUP1 PUSH1 0x2 ADD SLOAD SWAP1 POP DUP4 JUMP JUMPDEST PUSH1 0x4 PUSH1 0x20 MSTORE DUP2 PUSH0 MSTORE PUSH1 0x40 PUSH0 KECCAK256 PUSH1 0x20 MSTORE DUP1 PUSH0 MSTORE PUSH1 0x40 PUSH0 KECCAK256 PUSH0 SWAP2 POP SWAP2 POP POP DUP1 PUSH0 ADD PUSH0 SWAP1 SLOAD SWAP1 PUSH2 0x100 EXP SWAP1 DIV PUSH1 0xFF AND SWAP1 DUP1 PUSH1 0x1 ADD SLOAD SWAP1 DUP1 PUSH1 0x2 ADD DUP1 SLOAD PUSH2 0xF1F SWAP1 PUSH2 0x19B2 JUMP JUMPDEST DUP1 PUSH1 0x1F ADD PUSH1 0x20 DUP1 SWAP2 DIV MUL PUSH1 0x20 ADD PUSH1 0x40 MLOAD SWAP1 DUP2 ADD PUSH1 0x40 MSTORE DUP1 SWAP3 SWAP2 SWAP1 DUP2 DUP2 MSTORE PUSH1 0x20 ADD DUP3 DUP1 SLOAD PUSH2 0xF4B SWAP1 PUSH2 0x19B2 JUMP JUMPDEST DUP1 ISZERO PUSH2 0xF96 JUMPI DUP1 PUSH1 0x1F LT PUSH2 0xF6D JUMPI PUSH2 0x100 DUP1 DUP4 SLOAD DIV MUL DUP4 MSTORE SWAP2 PUSH1 0x20 ADD SWAP2 PUSH2 0xF96 JUMP JUMPDEST DUP3 ADD SWAP2 SWAP1 PUSH0 MSTORE PUSH1 0x20 PUSH0 KECCAK256 SWAP1 JUMPDEST DUP2 SLOAD DUP2 MSTORE SWAP1 PUSH1 0x1 ADD SWAP1 PUSH1 0x20 ADD DUP1 DUP4 GT PUSH2 0xF79 JUMPI DUP3 SWAP1 SUB PUSH1 0x1F AND DUP3 ADD SWAP2 JUMPDEST POP POP POP POP POP SWAP1 POP DUP4 JUMP JUMPDEST PUSH1 0x6 PUSH1 0x20 MSTORE DUP2 PUSH0 MSTORE PUSH1 0x40 PUSH0 KECCAK256 PUSH1 0x20 MSTORE DUP1 PUSH0 MSTORE PUSH1 0x40 PUSH0 KECCAK256 PUSH0 SWAP2 POP SWAP2 POP POP SLOAD DUP2 JUMP JUMPDEST PUSH0 DUP1 SLOAD SWAP1 PUSH2 0x100 EXP SWAP1 DIV PUSH20 0xFFFFFFFFFFFFFFFFFFFFFFFFFFFFFFFFFFFFFFFF AND DUP2 JUMP JUMPDEST PUSH2 0xFEB PUSH2 0x101F JUMP JUMPDEST PUSH1 0x2 PUSH2 0xFFD PUSH2 0xFF8 PUSH2 0x1060 JUMP JUMPDEST PUSH2 0x1089 JUMP JUMPDEST PUSH0 ADD DUP2 SWAP1 SSTORE POP JUMP JUMPDEST PUSH1 0x1 PUSH2 0x1017 PUSH2 0x1012 PUSH2 0x1060 JUMP JUMPDEST PUSH2 0x1089 JUMP JUMPDEST PUSH0 ADD DUP2 SWAP1 SSTORE POP JUMP JUMPDEST PUSH2 0x1027 PUSH2 0x1092 JUMP JUMPDEST ISZERO PUSH2 0x105E JUMPI PUSH1 0x40 MLOAD PUSH32 0x3EE5AEB500000000000000000000000000000000000000000000000000000000 DUP2 MSTORE PUSH1 0x4 ADD PUSH1 0x40 MLOAD DUP1 SWAP2 SUB SWAP1 REVERT JUMPDEST JUMP JUMPDEST PUSH0 PUSH32 0x9B779B17422D0DF92223018B32B4D1FA46E071723D6817E2486D003BECC55F00 PUSH0 SHL SWAP1 POP SWAP1 JUMP JUMPDEST PUSH0 DUP2 SWAP1 POP SWAP2 SWAP1 POP JUMP JUMPDEST PUSH0 PUSH1 0x2 PUSH2 0x10A5 PUSH2 0x10A0 PUSH2 0x1060 JUMP JUMPDEST PUSH2 0x1089 JUMP JUMPDEST PUSH0 ADD SLOAD EQ SWAP1 POP SWAP1 JUMP JUMPDEST PUSH0 PUSH20 0xFFFFFFFFFFFFFFFFFFFFFFFFFFFFFFFFFFFFFFFF DUP3 AND SWAP1 POP SWAP2 SWAP1 POP JUMP JUMPDEST PUSH0 DUP2 SWAP1 POP SWAP2 SWAP1 POP JUMP JUMPDEST PUSH0 PUSH2 0x10F0 PUSH2 0x10EB PUSH2 0x10E6 DUP5 PUSH2 0x10AE JUMP JUMPDEST PUSH2 0x10CD JUMP JUMPDEST PUSH2 0x10AE JUMP JUMPDEST SWAP1 POP SWAP2 SWAP1 POP JUMP JUMPDEST PUSH0 PUSH2 0x1101 DUP3 PUSH2 0x10D6 JUMP JUMPDEST SWAP1 POP SWAP2 SWAP1 POP JUMP JUMPDEST PUSH0 PUSH2 0x1112 DUP3 PUSH2 0x10F7 JUMP JUMPDEST SWAP1 POP SWAP2 SWAP1 POP JUMP JUMPDEST PUSH2 0x1122 DUP2 PUSH2 0x1108 JUMP JUMPDEST DUP3 MSTORE POP POP JUMP JUMPDEST PUSH0 PUSH1 0x20 DUP3 ADD SWAP1 POP PUSH2 0x113B PUSH0 DUP4 ADD DUP5 PUSH2 0x1119 JUMP JUMPDEST SWAP3 SWAP2 POP POP JUMP JUMPDEST PUSH0 PUSH1 0x40 MLOAD SWAP1 POP SWAP1 JUMP JUMPDEST PUSH0 DUP1 REVERT JUMPDEST PUSH0 DUP1 REVERT JUMPDEST PUSH0 DUP2 SWAP1 POP SWAP2 SWAP1 POP JUMP JUMPDEST PUSH2 0x1164 DUP2 PUSH2 0x1152 JUMP JUMPDEST DUP2 EQ PUSH2 0x116E JUMPI PUSH0 DUP1 REVERT JUMPDEST POP JUMP JUMPDEST PUSH0 DUP2 CALLDATALOAD SWAP1 POP PUSH2 0x117F DUP2 PUSH2 0x115B JUMP JUMPDEST SWAP3 SWAP2 POP POP JUMP JUMPDEST PUSH0 DUP1 REVERT JUMPDEST PUSH0 DUP1 REVERT JUMPDEST PUSH0 PUSH1 0x1F NOT PUSH1 0x1F DUP4 ADD AND SWAP1 POP SWAP2 SWAP1 POP JUMP JUMPDEST PUSH32 0x4E487B7100000000000000000000000000000000000000000000000000000000 PUSH0 MSTORE PUSH1 0x41 PUSH1 0x4 MSTORE PUSH1 0x24 PUSH0 REVERT JUMPDEST PUSH2 0x11D3 DUP3 PUSH2 0x118D JUMP JUMPDEST DUP2 ADD DUP2 DUP2 LT PUSH8 0xFFFFFFFFFFFFFFFF DUP3 GT OR ISZERO PUSH2 0x11F2 JUMPI PUSH2 0x11F1 PUSH2 0x119D JUMP JUMPDEST JUMPDEST DUP1 PUSH1 0x40 MSTORE POP POP POP JUMP JUMPDEST PUSH0 PUSH2 0x1204 PUSH2 0x1141 JUMP JUMPDEST SWAP1 POP PUSH2 0x1210 DUP3 DUP3 PUSH2 0x11CA JUMP JUMPDEST SWAP2 SWAP1 POP JUMP JUMPDEST PUSH0 PUSH8 0xFFFFFFFFFFFFFFFF DUP3 GT ISZERO PUSH2 0x122F JUMPI PUSH2 0x122E PUSH2 0x119D JUMP JUMPDEST JUMPDEST PUSH2 0x1238 DUP3 PUSH2 0x118D JUMP JUMPDEST SWAP1 POP PUSH1 0x20 DUP2 ADD SWAP1 POP SWAP2 SWAP1 POP JUMP JUMPDEST DUP3 DUP2 DUP4 CALLDATACOPY PUSH0 DUP4 DUP4 ADD MSTORE POP POP POP JUMP JUMPDEST PUSH0 PUSH2 0x1265 PUSH2 0x1260 DUP5 PUSH2 0x1215 JUMP JUMPDEST PUSH2 0x11FB JUMP JUMPDEST SWAP1 POP DUP3 DUP2 MSTORE PUSH1 0x20 DUP2 ADD DUP5 DUP5 DUP5 ADD GT ISZERO PUSH2 0x1281 JUMPI PUSH2 0x1280 PUSH2 0x1189 JUMP JUMPDEST JUMPDEST PUSH2 0x128C DUP5 DUP3 DUP6 PUSH2 0x1245 JUMP JUMPDEST POP SWAP4 SWAP3 POP POP POP JUMP JUMPDEST PUSH0 DUP3 PUSH1 0x1F DUP4 ADD SLT PUSH2 0x12A8 JUMPI PUSH2 0x12A7 PUSH2 0x1185 JUMP JUMPDEST JUMPDEST DUP2 CALLDATALOAD PUSH2 0x12B8 DUP5 DUP3 PUSH1 0x20 DUP7 ADD PUSH2 0x1253 JUMP JUMPDEST SWAP2 POP POP SWAP3 SWAP2 POP POP JUMP JUMPDEST PUSH0 PUSH8 0xFFFFFFFFFFFFFFFF DUP3 GT ISZERO PUSH2 0x12DB JUMPI PUSH2 0x12DA PUSH2 0x119D JUMP JUMPDEST JUMPDEST PUSH2 0x12E4 DUP3 PUSH2 0x118D JUMP JUMPDEST SWAP1 POP PUSH1 0x20 DUP2 ADD SWAP1 POP SWAP2 SWAP1 POP JUMP JUMPDEST PUSH0 PUSH2 0x1303 PUSH2 0x12FE DUP5 PUSH2 0x12C1 JUMP JUMPDEST PUSH2 0x11FB JUMP JUMPDEST SWAP1 POP DUP3 DUP2 MSTORE PUSH1 0x20 DUP2 ADD DUP5 DUP5 DUP5 ADD GT ISZERO PUSH2 0x131F JUMPI PUSH2 0x131E PUSH2 0x1189 JUMP JUMPDEST JUMPDEST PUSH2 0x132A DUP5 DUP3 DUP6 PUSH2 0x1245 JUMP JUMPDEST POP SWAP4 SWAP3 POP POP POP JUMP JUMPDEST PUSH0 DUP3 PUSH1 0x1F DUP4 ADD SLT PUSH2 0x1346 JUMPI PUSH2 0x1345 PUSH2 0x1185 JUMP JUMPDEST JUMPDEST DUP2 CALLDATALOAD PUSH2 0x1356 DUP5 DUP3 PUSH1 0x20 DUP7 ADD PUSH2 0x12F1 JUMP JUMPDEST SWAP2 POP POP SWAP3 SWAP2 POP POP JUMP JUMPDEST PUSH0 DUP1 PUSH0 DUP1 PUSH0 DUP1 PUSH1 0xC0 DUP8 DUP10 SUB SLT ISZERO PUSH2 0x1379 JUMPI PUSH2 0x1378 PUSH2 0x114A JUMP JUMPDEST JUMPDEST PUSH0 PUSH2 0x1386 DUP10 DUP3 DUP11 ADD PUSH2 0x1171 JUMP JUMPDEST SWAP7 POP POP PUSH1 0x20 PUSH2 0x1397 DUP10 DUP3 DUP11 ADD PUSH2 0x1171 JUMP JUMPDEST SWAP6 POP POP PUSH1 0x40 DUP8 ADD CALLDATALOAD PUSH8 0xFFFFFFFFFFFFFFFF DUP2 GT ISZERO PUSH2 0x13B8 JUMPI PUSH2 0x13B7 PUSH2 0x114E JUMP JUMPDEST JUMPDEST PUSH2 0x13C4 DUP10 DUP3 DUP11 ADD PUSH2 0x1294 JUMP JUMPDEST SWAP5 POP POP PUSH1 0x60 PUSH2 0x13D5 DUP10 DUP3 DUP11 ADD PUSH2 0x1171 JUMP JUMPDEST SWAP4 POP POP PUSH1 0x80 PUSH2 0x13E6 DUP10 DUP3 DUP11 ADD PUSH2 0x1171 JUMP JUMPDEST SWAP3 POP POP PUSH1 0xA0 DUP8 ADD CALLDATALOAD PUSH8 0xFFFFFFFFFFFFFFFF DUP2 GT ISZERO PUSH2 0x1407 JUMPI PUSH2 0x1406 PUSH2 0x114E JUMP JUMPDEST JUMPDEST PUSH2 0x1413 DUP10 DUP3 DUP11 ADD PUSH2 0x1332 JUMP JUMPDEST SWAP2 POP POP SWAP3 SWAP6 POP SWAP3 SWAP6 POP SWAP3 SWAP6 JUMP JUMPDEST PUSH0 DUP1 PUSH1 0x40 DUP4 DUP6 SUB SLT ISZERO PUSH2 0x1436 JUMPI PUSH2 0x1435 PUSH2 0x114A JUMP JUMPDEST JUMPDEST PUSH0 PUSH2 0x1443 DUP6 DUP3 DUP7 ADD PUSH2 0x1171 JUMP JUMPDEST SWAP3 POP POP PUSH1 0x20 DUP4 ADD CALLDATALOAD PUSH8 0xFFFFFFFFFFFFFFFF DUP2 GT ISZERO PUSH2 0x1464 JUMPI PUSH2 0x1463 PUSH2 0x114E JUMP JUMPDEST JUMPDEST PUSH2 0x1470 DUP6 DUP3 DUP7 ADD PUSH2 0x1294 JUMP JUMPDEST SWAP2 POP POP SWAP3 POP SWAP3 SWAP1 POP JUMP JUMPDEST PUSH2 0x1483 DUP2 PUSH2 0x1152 JUMP JUMPDEST DUP3 MSTORE POP POP JUMP JUMPDEST PUSH0 PUSH1 0x20 DUP3 ADD SWAP1 POP PUSH2 0x149C PUSH0 DUP4 ADD DUP5 PUSH2 0x147A JUMP JUMPDEST SWAP3 SWAP2 POP POP JUMP JUMPDEST PUSH0 PUSH1 0x20 DUP3 DUP5 SUB SLT ISZERO PUSH2 0x14B7 JUMPI PUSH2 0x14B6 PUSH2 0x114A JUMP JUMPDEST JUMPDEST PUSH0 PUSH2 0x14C4 DUP5 DUP3 DUP6 ADD PUSH2 0x1171 JUMP JUMPDEST SWAP2 POP POP SWAP3 SWAP2 POP POP JUMP JUMPDEST PUSH0 PUSH2 0x14D7 DUP3 PUSH2 0x10AE JUMP JUMPDEST SWAP1 POP SWAP2 SWAP1 POP JUMP JUMPDEST PUSH2 0x14E7 DUP2 PUSH2 0x14CD JUMP JUMPDEST DUP3 MSTORE POP POP JUMP JUMPDEST PUSH0 DUP2 MLOAD SWAP1 POP SWAP2 SWAP1 POP JUMP JUMPDEST PUSH0 DUP3 DUP3 MSTORE PUSH1 0x20 DUP3 ADD SWAP1 POP SWAP3 SWAP2 POP POP JUMP JUMPDEST PUSH0 JUMPDEST DUP4 DUP2 LT ISZERO PUSH2 0x1524 JUMPI DUP1 DUP3 ADD MLOAD DUP2 DUP5 ADD MSTORE PUSH1 0x20 DUP2 ADD SWAP1 POP PUSH2 0x1509 JUMP JUMPDEST PUSH0 DUP5 DUP5 ADD MSTORE POP POP POP POP JUMP JUMPDEST PUSH0 PUSH2 0x1539 DUP3 PUSH2 0x14ED JUMP JUMPDEST PUSH2 0x1543 DUP2 DUP6 PUSH2 0x14F7 JUMP JUMPDEST SWAP4 POP PUSH2 0x1553 DUP2 DUP6 PUSH1 0x20 DUP7 ADD PUSH2 0x1507 JUMP JUMPDEST PUSH2 0x155C DUP2 PUSH2 0x118D JUMP JUMPDEST DUP5 ADD SWAP2 POP POP SWAP3 SWAP2 POP POP JUMP JUMPDEST PUSH0 DUP2 ISZERO ISZERO SWAP1 POP SWAP2 SWAP1 POP JUMP JUMPDEST PUSH2 0x157B DUP2 PUSH2 0x1567 JUMP JUMPDEST DUP3 MSTORE POP POP JUMP JUMPDEST PUSH0 PUSH2 0x120 DUP3 ADD SWAP1 POP PUSH2 0x1595 PUSH0 DUP4 ADD DUP13 PUSH2 0x147A JUMP JUMPDEST PUSH2 0x15A2 PUSH1 0x20 DUP4 ADD DUP12 PUSH2 0x14DE JUMP JUMPDEST DUP2 DUP2 SUB PUSH1 0x40 DUP4 ADD MSTORE PUSH2 0x15B4 DUP2 DUP11 PUSH2 0x152F JUMP JUMPDEST SWAP1 POP PUSH2 0x15C3 PUSH1 0x60 DUP4 ADD DUP10 PUSH2 0x147A JUMP JUMPDEST PUSH2 0x15D0 PUSH1 0x80 DUP4 ADD DUP9 PUSH2 0x147A JUMP JUMPDEST PUSH2 0x15DD PUSH1 0xA0 DUP4 ADD DUP8 PUSH2 0x147A JUMP JUMPDEST PUSH2 0x15EA PUSH1 0xC0 DUP4 ADD DUP7 PUSH2 0x147A JUMP JUMPDEST PUSH2 0x15F7 PUSH1 0xE0 DUP4 ADD DUP6 PUSH2 0x147A JUMP JUMPDEST PUSH2 0x1605 PUSH2 0x100 DUP4 ADD DUP5 PUSH2 0x1572 JUMP JUMPDEST SWAP11 SWAP10 POP POP POP POP POP POP POP POP POP POP JUMP JUMPDEST PUSH0 DUP1 PUSH0 DUP1 PUSH0 PUSH1 0xA0 DUP7 DUP9 SUB SLT ISZERO PUSH2 0x162C JUMPI PUSH2 0x162B PUSH2 0x114A JUMP JUMPDEST JUMPDEST PUSH0 DUP7 ADD CALLDATALOAD PUSH8 0xFFFFFFFFFFFFFFFF DUP2 GT ISZERO PUSH2 0x1649 JUMPI PUSH2 0x1648 PUSH2 0x114E JUMP JUMPDEST JUMPDEST PUSH2 0x1655 DUP9 DUP3 DUP10 ADD PUSH2 0x1294 JUMP JUMPDEST SWAP6 POP POP PUSH1 0x20 PUSH2 0x1666 DUP9 DUP3 DUP10 ADD PUSH2 0x1171 JUMP JUMPDEST SWAP5 POP POP PUSH1 0x40 PUSH2 0x1677 DUP9 DUP3 DUP10 ADD PUSH2 0x1171 JUMP JUMPDEST SWAP4 POP POP PUSH1 0x60 PUSH2 0x1688 DUP9 DUP3 DUP10 ADD PUSH2 0x1171 JUMP JUMPDEST SWAP3 POP POP PUSH1 0x80 PUSH2 0x1699 DUP9 DUP3 DUP10 ADD PUSH2 0x1171 JUMP JUMPDEST SWAP2 POP POP SWAP3 SWAP6 POP SWAP3 SWAP6 SWAP1 SWAP4 POP JUMP JUMPDEST PUSH2 0x16AF DUP2 PUSH2 0x14CD JUMP JUMPDEST DUP2 EQ PUSH2 0x16B9 JUMPI PUSH0 DUP1 REVERT JUMPDEST POP JUMP JUMPDEST PUSH0 DUP2 CALLDATALOAD SWAP1 POP PUSH2 0x16CA DUP2 PUSH2 0x16A6 JUMP JUMPDEST SWAP3 SWAP2 POP POP JUMP JUMPDEST PUSH0 DUP1 PUSH0 PUSH1 0x60 DUP5 DUP7 SUB SLT ISZERO PUSH2 0x16E7 JUMPI PUSH2 0x16E6 PUSH2 0x114A JUMP JUMPDEST JUMPDEST PUSH0 PUSH2 0x16F4 DUP7 DUP3 DUP8 ADD PUSH2 0x1171 JUMP JUMPDEST SWAP4 POP POP PUSH1 0x20 PUSH2 0x1705 DUP7 DUP3 DUP8 ADD PUSH2 0x1171 JUMP JUMPDEST SWAP3 POP POP PUSH1 0x40 PUSH2 0x1716 DUP7 DUP3 DUP8 ADD PUSH2 0x16BC JUMP JUMPDEST SWAP2 POP POP SWAP3 POP SWAP3 POP SWAP3 JUMP JUMPDEST PUSH0 PUSH1 0x60 DUP3 ADD SWAP1 POP DUP2 DUP2 SUB PUSH0 DUP4 ADD MSTORE PUSH2 0x1738 DUP2 DUP7 PUSH2 0x152F JUMP JUMPDEST SWAP1 POP PUSH2 0x1747 PUSH1 0x20 DUP4 ADD DUP6 PUSH2 0x147A JUMP JUMPDEST PUSH2 0x1754 PUSH1 0x40 DUP4 ADD DUP5 PUSH2 0x147A JUMP JUMPDEST SWAP5 SWAP4 POP POP POP POP JUMP JUMPDEST PUSH0 DUP1 PUSH1 0x40 DUP4 DUP6 SUB SLT ISZERO PUSH2 0x1772 JUMPI PUSH2 0x1771 PUSH2 0x114A JUMP JUMPDEST JUMPDEST PUSH0 PUSH2 0x177F DUP6 DUP3 DUP7 ADD PUSH2 0x1171 JUMP JUMPDEST SWAP3 POP POP PUSH1 0x20 PUSH2 0x1790 DUP6 DUP3 DUP7 ADD PUSH2 0x16BC JUMP JUMPDEST SWAP2 POP POP SWAP3 POP SWAP3 SWAP1 POP JUMP JUMPDEST PUSH0 PUSH1 0x60 DUP3 ADD SWAP1 POP PUSH2 0x17AD PUSH0 DUP4 ADD DUP7 PUSH2 0x1572 JUMP JUMPDEST PUSH2 0x17BA PUSH1 0x20 DUP4 ADD DUP6 PUSH2 0x147A JUMP JUMPDEST DUP2 DUP2 SUB PUSH1 0x40 DUP4 ADD MSTORE PUSH2 0x17CC DUP2 DUP5 PUSH2 0x152F JUMP JUMPDEST SWAP1 POP SWAP5 SWAP4 POP POP POP POP JUMP JUMPDEST PUSH0 DUP1 PUSH1 0x40 DUP4 DUP6 SUB SLT ISZERO PUSH2 0x17EC JUMPI PUSH2 0x17EB PUSH2 0x114A JUMP JUMPDEST JUMPDEST PUSH0 PUSH2 0x17F9 DUP6 DUP3 DUP7 ADD PUSH2 0x1171 JUMP JUMPDEST SWAP3 POP POP PUSH1 0x20 PUSH2 0x180A DUP6 DUP3 DUP7 ADD PUSH2 0x1171 JUMP JUMPDEST SWAP2 POP POP SWAP3 POP SWAP3 SWAP1 POP JUMP JUMPDEST PUSH0 PUSH2 0x181E DUP3 PUSH2 0x10F7 JUMP JUMPDEST SWAP1 POP SWAP2 SWAP1 POP JUMP JUMPDEST PUSH2 0x182E DUP2 PUSH2 0x1814 JUMP JUMPDEST DUP3 MSTORE POP POP JUMP JUMPDEST PUSH0 PUSH1 0x20 DUP3 ADD SWAP1 POP PUSH2 0x1847 PUSH0 DUP4 ADD DUP5 PUSH2 0x1825 JUMP JUMPDEST SWAP3 SWAP2 POP POP JUMP JUMPDEST PUSH32 0x5461736B206E6F74206163746976650000000000000000000000000000000000 PUSH0 DUP3 ADD MSTORE POP JUMP JUMPDEST PUSH0 PUSH2 0x1881 PUSH1 0xF DUP4 PUSH2 0x14F7 JUMP JUMPDEST SWAP2 POP PUSH2 0x188C DUP3 PUSH2 0x184D JUMP JUMPDEST PUSH1 0x20 DUP3 ADD SWAP1 POP SWAP2 SWAP1 POP JUMP JUMPDEST PUSH0 PUSH1 0x20 DUP3 ADD SWAP1 POP DUP2 DUP2 SUB PUSH0 DUP4 ADD MSTORE PUSH2 0x18AE DUP2 PUSH2 0x1875 JUMP JUMPDEST SWAP1 POP SWAP2 SWAP1 POP JUMP JUMPDEST PUSH32 0x496E76616C696420726F756E6400000000000000000000000000000000000000 PUSH0 DUP3 ADD MSTORE POP JUMP JUMPDEST PUSH0 PUSH2 0x18E9 PUSH1 0xD DUP4 PUSH2 0x14F7 JUMP JUMPDEST SWAP2 POP PUSH2 0x18F4 DUP3 PUSH2 0x18B5 JUMP JUMPDEST PUSH1 0x20 DUP3 ADD SWAP1 POP SWAP2 SWAP1 POP JUMP JUMPDEST PUSH0 PUSH1 0x20 DUP3 ADD SWAP1 POP DUP2 DUP2 SUB PUSH0 DUP4 ADD MSTORE PUSH2 0x1916 DUP2 PUSH2 0x18DD JUMP JUMPDEST SWAP1 POP SWAP2 SWAP1 POP JUMP JUMPDEST PUSH32 0x4E6F742072656769737465726564000000000000000000000000000000000000 PUSH0 DUP3 ADD MSTORE POP JUMP JUMPDEST PUSH0 PUSH2 0x1951 PUSH1 0xE DUP4 PUSH2 0x14F7 JUMP JUMPDEST SWAP2 POP PUSH2 0x195C DUP3 PUSH2 0x191D JUMP JUMPDEST PUSH1 0x20 DUP3 ADD SWAP1 POP SWAP2 SWAP1 POP JUMP JUMPDEST PUSH0 PUSH1 0x20 DUP3 ADD SWAP1 POP DUP2 DUP2 SUB PUSH0 DUP4 ADD MSTORE PUSH2 0x197E DUP2 PUSH2 0x1945 JUMP JUMPDEST SWAP1 POP SWAP2 SWAP1 POP JUMP JUMPDEST PUSH32 0x4E487B7100000000000000000000000000000000000000000000000000000000 PUSH0 MSTORE PUSH1 0x22 PUSH1 0x4 MSTORE PUSH1 0x24 PUSH0 REVERT JUMPDEST PUSH0 PUSH1 0x2 DUP3 DIV SWAP1 POP PUSH1 0x1 DUP3 AND DUP1 PUSH2 0x19C9 JUMPI PUSH1 0x7F DUP3 AND SWAP2 POP JUMPDEST PUSH1 0x20 DUP3 LT DUP2 SUB PUSH2 0x19DC JUMPI PUSH2 0x19DB PUSH2 0x1985 JUMP JUMPDEST JUMPDEST POP SWAP2 SWAP1 POP JUMP JUMPDEST PUSH32 0x416C7265616479207375626D6974746564000000000000000000000000000000 PUSH0 DUP3 ADD MSTORE POP JUMP JUMPDEST PUSH0 PUSH2 0x1A16 PUSH1 0x11 DUP4 PUSH2 0x14F7 JUMP JUMPDEST SWAP2 POP PUSH2 0x1A21 DUP3 PUSH2 0x19E2 JUMP JUMPDEST PUSH1 0x20 DUP3 ADD SWAP1 POP SWAP2 SWAP1 POP JUMP JUMPDEST PUSH0 PUSH1 0x20 DUP3 ADD SWAP1 POP DUP2 DUP2 SUB PUSH0 DUP4 ADD MSTORE PUSH2 0x1A43 DUP2 PUSH2 0x1A0A JUMP JUMPDEST SWAP1 POP SWAP2 SWAP1 POP JUMP JUMPDEST PUSH32 0x4E487B7100000000000000000000000000000000000000000000000000000000 PUSH0 MSTORE PUSH1 0x32 PUSH1 0x4 MSTORE PUSH1 0x24 PUSH0 REVERT JUMPDEST PUSH0 DUP2 MLOAD SWAP1 POP SWAP2 SWAP1 POP JUMP JUMPDEST PUSH0 DUP3 DUP3 MSTORE PUSH1 0x20 DUP3 ADD SWAP1 POP SWAP3 SWAP2 POP POP JUMP JUMPDEST PUSH0 PUSH2 0x1A9B DUP3 PUSH2 0x1A77 JUMP JUMPDEST PUSH2 0x1AA5 DUP2 DUP6 PUSH2 0x1A81 JUMP JUMPDEST SWAP4 POP PUSH2 0x1AB5 DUP2 DUP6 PUSH1 0x20 DUP7 ADD PUSH2 0x1507 JUMP JUMPDEST PUSH2 0x1ABE DUP2 PUSH2 0x118D JUMP JUMPDEST DUP5 ADD SWAP2 POP POP SWAP3 SWAP2 POP POP JUMP JUMPDEST PUSH0 DUP2 MLOAD SWAP1 POP SWAP2 SWAP1 POP JUMP JUMPDEST PUSH0 DUP3 DUP3 MSTORE PUSH1 0x20 DUP3 ADD SWAP1 POP SWAP3 SWAP2 POP POP JUMP JUMPDEST PUSH0 DUP2 SWAP1 POP PUSH1 0x20 DUP3 ADD SWAP1 POP SWAP2 SWAP1 POP JUMP JUMPDEST PUSH2 0x1AFB DUP2 PUSH2 0x1152 JUMP JUMPDEST DUP3 MSTORE POP POP JUMP JUMPDEST PUSH0 PUSH2 0x1B0C DUP4 DUP4 PUSH2 0x1AF2 JUMP JUMPDEST PUSH1 0x20 DUP4 ADD SWAP1 POP SWAP3 SWAP2 POP POP JUMP JUMPDEST PUSH0 PUSH1 0x20 DUP3 ADD SWAP1 POP SWAP2 SWAP1 POP JUMP JUMPDEST PUSH0 PUSH2 0x1B2E DUP3 PUSH2 0x1AC9 JUMP JUMPDEST PUSH2 0x1B38 DUP2 DUP6 PUSH2 0x1AD3 JUMP JUMPDEST SWAP4 POP PUSH2 0x1B43 DUP4 PUSH2 0x1AE3 JUMP JUMPDEST DUP1 PUSH0 JUMPDEST DUP4 DUP2 LT ISZERO PUSH2 0x1B73 JUMPI DUP2 MLOAD PUSH2 0x1B5A DUP9 DUP3 PUSH2 0x1B01 JUMP JUMPDEST SWAP8 POP PUSH2 0x1B65 DUP4 PUSH2 0x1B18 JUMP JUMPDEST SWAP3 POP POP PUSH1 0x1 DUP2 ADD SWAP1 POP PUSH2 0x1B46 JUMP JUMPDEST POP DUP6 SWAP4 POP POP POP POP SWAP3 SWAP2 POP POP JUMP JUMPDEST PUSH0 PUSH1 0x40 DUP3 ADD SWAP1 POP DUP2 DUP2 SUB PUSH0 DUP4 ADD MSTORE PUSH2 0x1B98 DUP2 DUP6 PUSH2 0x1A91 JUMP JUMPDEST SWAP1 POP DUP2 DUP2 SUB PUSH1 0x20 DUP4 ADD MSTORE PUSH2 0x1BAC DUP2 DUP5 PUSH2 0x1B24 JUMP JUMPDEST SWAP1 POP SWAP4 SWAP3 POP POP POP JUMP JUMPDEST PUSH2 0x1BBE DUP2 PUSH2 0x1567 JUMP JUMPDEST DUP2 EQ PUSH2 0x1BC8 JUMPI PUSH0 DUP1 REVERT JUMPDEST POP JUMP JUMPDEST PUSH0 DUP2 MLOAD SWAP1 POP PUSH2 0x1BD9 DUP2 PUSH2 0x1BB5 JUMP JUMPDEST SWAP3 SWAP2 POP POP JUMP JUMPDEST PUSH0 PUSH1 0x20 DUP3 DUP5 SUB SLT ISZERO PUSH2 0x1BF4 JUMPI PUSH2 0x1BF3 PUSH2 0x114A JUMP JUMPDEST JUMPDEST PUSH0 PUSH2 0x1C01 DUP5 DUP3 DUP6 ADD PUSH2 0x1BCB JUMP JUMPDEST SWAP2 POP POP SWAP3 SWAP2 POP POP JUMP JUMPDEST PUSH32 0x496E76616C69642070726F6F6600000000000000000000000000000000000000 PUSH0 DUP3 ADD MSTORE POP JUMP JUMPDEST PUSH0 PUSH2 0x1C3E PUSH1 0xD DUP4 PUSH2 0x14F7 JUMP JUMPDEST SWAP2 POP PUSH2 0x1C49 DUP3 PUSH2 0x1C0A JUMP JUMPDEST PUSH1 0x20 DUP3 ADD SWAP1 POP SWAP2 SWAP1 POP JUMP JUMPDEST PUSH0 PUSH1 0x20 DUP3 ADD SWAP1 POP DUP2 DUP2 SUB PUSH0 DUP4 ADD MSTORE PUSH2 0x1C6B DUP2 PUSH2 0x1C32 JUMP JUMPDEST SWAP1 POP SWAP2 SWAP1 POP JUMP JUMPDEST PUSH32 0x4C6F7373206D7573742064656372656173650000000000000000000000000000 PUSH0 DUP3 ADD MSTORE POP JUMP JUMPDEST PUSH0 PUSH2 0x1CA6 PUSH1 0x12 DUP4 PUSH2 0x14F7 JUMP JUMPDEST SWAP2 POP PUSH2 0x1CB1 DUP3 PUSH2 0x1C72 JUMP JUMPDEST PUSH1 0x20 DUP3 ADD SWAP1 POP SWAP2 SWAP1 POP JUMP JUMPDEST PUSH0 PUSH1 0x20 DUP3 ADD SWAP1 POP DUP2 DUP2 SUB PUSH0 DUP4 ADD MSTORE PUSH2 0x1CD3 DUP2 PUSH2 0x1C9A JUMP JUMPDEST SWAP1 POP SWAP2 SWAP1 POP JUMP JUMPDEST PUSH0 DUP2 SWAP1 POP DUP2 PUSH0 MSTORE PUSH1 0x20 PUSH0 KECCAK256 SWAP1 POP SWAP2 SWAP1 POP JUMP JUMPDEST PUSH0 PUSH1 0x20 PUSH1 0x1F DUP4 ADD DIV SWAP1 POP SWAP2 SWAP1 POP JUMP JUMPDEST PUSH0 DUP3 DUP3 SHL SWAP1 POP SWAP3 SWAP2 POP POP JUMP JUMPDEST PUSH0 PUSH1 0x8 DUP4 MUL PUSH2 0x1D36 PUSH32 0xFFFFFFFFFFFFFFFFFFFFFFFFFFFFFFFFFFFFFFFFFFFFFFFFFFFFFFFFFFFFFFFF DUP3 PUSH2 0x1CFB JUMP JUMPDEST PUSH2 0x1D40 DUP7 DUP4 PUSH2 0x1CFB JUMP JUMPDEST SWAP6 POP DUP1 NOT DUP5 AND SWAP4 POP DUP1 DUP7 AND DUP5 OR SWAP3 POP POP POP SWAP4 SWAP3 POP POP POP JUMP JUMPDEST PUSH0 PUSH2 0x1D72 PUSH2 0x1D6D PUSH2 0x1D68 DUP5 PUSH2 0x1152 JUMP JUMPDEST PUSH2 0x10CD JUMP JUMPDEST PUSH2 0x1152 JUMP JUMPDEST SWAP1 POP SWAP2 SWAP1 POP JUMP JUMPDEST PUSH0 DUP2 SWAP1 POP SWAP2 SWAP1 POP JUMP JUMPDEST PUSH2 0x1D8B DUP4 PUSH2 0x1D58 JUMP JUMPDEST PUSH2 0x1D9F PUSH2 0x1D97 DUP3 PUSH2 0x1D79 JUMP JUMPDEST DUP5 DUP5 SLOAD PUSH2 0x1D07 JUMP JUMPDEST DUP3 SSTORE POP POP POP POP JUMP JUMPDEST PUSH0 SWAP1 JUMP JUMPDEST PUSH2 0x1DB3 PUSH2 0x1DA7 JUMP JUMPDEST PUSH2 0x1DBE DUP2 DUP5 DUP5 PUSH2 0x1D82 JUMP JUMPDEST POP POP POP JUMP JUMPDEST JUMPDEST DUP2 DUP2 LT ISZERO PUSH2 0x1DE1 JUMPI PUSH2 0x1DD6 PUSH0 DUP3 PUSH2 0x1DAB JUMP JUMPDEST PUSH1 0x1 DUP2 ADD SWAP1 POP PUSH2 0x1DC4 JUMP JUMPDEST POP POP JUMP JUMPDEST PUSH1 0x1F DUP3 GT ISZERO PUSH2 0x1E26 JUMPI PUSH2 0x1DF7 DUP2 PUSH2 0x1CDA JUMP JUMPDEST PUSH2 0x1E00 DUP5 PUSH2 0x1CEC JUMP JUMPDEST DUP2 ADD PUSH1 0x20 DUP6 LT ISZERO PUSH2 0x1E0F JUMPI DUP2 SWAP1 POP JUMPDEST PUSH2 0x1E23 PUSH2 0x1E1B DUP6 PUSH2 0x1CEC JUMP JUMPDEST DUP4 ADD DUP3 PUSH2 0x1DC3 JUMP JUMPDEST POP POP JUMPDEST POP POP POP JUMP JUMPDEST PUSH0 DUP3 DUP3 SHR SWAP1 POP SWAP3 SWAP2 POP POP JUMP JUMPDEST PUSH0 PUSH2 0x1E46 PUSH0 NOT DUP5 PUSH1 0x8 MUL PUSH2 0x1E2B JUMP JUMPDEST NOT DUP1 DUP4 AND SWAP2 POP POP SWAP3 SWAP2 POP POP JUMP JUMPDEST PUSH0 PUSH2 0x1E5E DUP4 DUP4 PUSH2 0x1E37 JUMP JUMPDEST SWAP2 POP DUP3 PUSH1 0x2 MUL DUP3 OR SWAP1 POP SWAP3 SWAP2 POP POP JUMP JUMPDEST PUSH2 0x1E77 DUP3 PUSH2 0x14ED JUMP JUMPDEST PUSH8 0xFFFFFFFFFFFFFFFF DUP2 GT ISZERO PUSH2 0x1E90 JUMPI PUSH2 0x1E8F PUSH2 0x119D JUMP JUMPDEST JUMPDEST PUSH2 0x1E9A DUP3 SLOAD PUSH2 0x19B2 JUMP JUMPDEST PUSH2 0x1EA5 DUP3 DUP3 DUP6 PUSH2 0x1DE5 JUMP JUMPDEST PUSH0 PUSH1 0x20 SWAP1 POP PUSH1 0x1F DUP4 GT PUSH1 0x1 DUP2 EQ PUSH2 0x1ED6 JUMPI PUSH0 DUP5 ISZERO PUSH2 0x1EC4 JUMPI DUP3 DUP8 ADD MLOAD SWAP1 POP JUMPDEST PUSH2 0x1ECE DUP6 DUP3 PUSH2 0x1E53 JUMP JUMPDEST DUP7 SSTORE POP PUSH2 0x1F35 JUMP JUMPDEST PUSH1 0x1F NOT DUP5 AND PUSH2 0x1EE4 DUP7 PUSH2 0x1CDA JUMP JUMPDEST PUSH0 JUMPDEST DUP3 DUP2 LT ISZERO PUSH2 0x1F0B JUMPI DUP5 DUP10 ADD MLOAD DUP3 SSTORE PUSH1 0x1 DUP3 ADD SWAP2 POP PUSH1 0x20 DUP6 ADD SWAP5 POP PUSH1 0x20 DUP2 ADD SWAP1 POP PUSH2 0x1EE6 JUMP JUMPDEST DUP7 DUP4 LT ISZERO PUSH2 0x1F28 JUMPI DUP5 DUP10 ADD MLOAD PUSH2 0x1F24 PUSH1 0x1F DUP10 AND DUP3 PUSH2 0x1E37 JUMP JUMPDEST DUP4 SSTORE POP JUMPDEST PUSH1 0x1 PUSH1 0x2 DUP9 MUL ADD DUP9 SSTORE POP POP POP JUMPDEST POP POP POP POP POP POP JUMP JUMPDEST PUSH32 0x4E487B7100000000000000000000000000000000000000000000000000000000 PUSH0 MSTORE PUSH1 0x11 PUSH1 0x4 MSTORE PUSH1 0x24 PUSH0 REVERT JUMPDEST PUSH0 PUSH2 0x1F74 DUP3 PUSH2 0x1152 JUMP JUMPDEST SWAP2 POP PUSH32 0xFFFFFFFFFFFFFFFFFFFFFFFFFFFFFFFFFFFFFFFFFFFFFFFFFFFFFFFFFFFFFFFF DUP3 SUB PUSH2 0x1FA6 JUMPI PUSH2 0x1FA5 PUSH2 0x1F3D JUMP JUMPDEST JUMPDEST PUSH1 0x1 DUP3 ADD SWAP1 POP SWAP2 SWAP1 POP JUMP JUMPDEST PUSH0 PUSH1 0x20 DUP3 ADD SWAP1 POP DUP2 DUP2 SUB PUSH0 DUP4 ADD MSTORE PUSH2 0x1FC9 DUP2 DUP5 PUSH2 0x152F JUMP JUMPDEST SWAP1 POP SWAP3 SWAP2 POP POP JUMP JUMPDEST PUSH32 0x416C726561647920726567697374657265640000000000000000000000000000 PUSH0 DUP3 ADD MSTORE POP JUMP JUMPDEST PUSH0 PUSH2 0x2005 PUSH1 0x12 DUP4 PUSH2 0x14F7 JUMP JUMPDEST SWAP2 POP PUSH2 0x2010 DUP3 PUSH2 0x1FD1 JUMP JUMPDEST PUSH1 0x20 DUP3 ADD SWAP1 POP SWAP2 SWAP1 POP JUMP JUMPDEST PUSH0 PUSH1 0x20 DUP3 ADD SWAP1 POP DUP2 DUP2 SUB PUSH0 DUP4 ADD MSTORE PUSH2 0x2032 DUP2 PUSH2 0x1FF9 JUMP JUMPDEST SWAP1 POP SWAP2 SWAP1 POP JUMP JUMPDEST PUSH0 PUSH1 0x60 DUP3 ADD SWAP1 POP PUSH2 0x204C PUSH0 DUP4 ADD DUP7 PUSH2 0x14DE JUMP JUMPDEST PUSH2 0x2059 PUSH1 0x20 DUP4 ADD DUP6 PUSH2 0x14DE JUMP JUMPDEST PUSH2 0x2066 PUSH1 0x40 DUP4 ADD DUP5 PUSH2 0x147A JUMP JUMPDEST SWAP5 SWAP4 POP POP POP POP JUMP JUMPDEST PUSH32 0x5374616B65207472616E73666572206661696C65640000000000000000000000 PUSH0 DUP3 ADD MSTORE POP JUMP JUMPDEST PUSH0 PUSH2 0x20A2 PUSH1 0x15 DUP4 PUSH2 0x14F7 JUMP JUMPDEST SWAP2 POP PUSH2 0x20AD DUP3 PUSH2 0x206E JUMP JUMPDEST PUSH1 0x20 DUP3 ADD SWAP1 POP SWAP2 SWAP1 POP JUMP JUMPDEST PUSH0 PUSH1 0x20 DUP3 ADD SWAP1 POP DUP2 DUP2 SUB PUSH0 DUP4 ADD MSTORE PUSH2 0x20CF DUP2 PUSH2 0x2096 JUMP JUMPDEST SWAP1 POP SWAP2 SWAP1 POP JUMP JUMPDEST PUSH32 0x5472616E73666572206661696C65640000000000000000000000000000000000 PUSH0 DUP3 ADD MSTORE POP JUMP JUMPDEST PUSH0 PUSH2 0x210A PUSH1 0xF DUP4 PUSH2 0x14F7 JUMP JUMPDEST SWAP2 POP PUSH2 0x2115 DUP3 PUSH2 0x20D6 JUMP JUMPDEST PUSH1 0x20 DUP3 ADD SWAP1 POP SWAP2 SWAP1 POP JUMP JUMPDEST PUSH0 PUSH1 0x20 DUP3 ADD SWAP1 POP DUP2 DUP2 SUB PUSH0 DUP4 ADD MSTORE PUSH2 0x2137 DUP2 PUSH2 0x20FE JUMP JUMPDEST SWAP1 POP SWAP2 SWAP1 POP JUMP JUMPDEST PUSH0 PUSH1 0x40 DUP3 ADD SWAP1 POP DUP2 DUP2 SUB PUSH0 DUP4 ADD MSTORE PUSH2 0x2156 DUP2 DUP6 PUSH2 0x152F JUMP JUMPDEST SWAP1 POP PUSH2 0x2165 PUSH1 0x20 DUP4 ADD DUP5 PUSH2 0x147A JUMP JUMPDEST SWAP4 SWAP3 POP POP POP JUMP INVALID LOG2 PUSH5 0x6970667358 0x22 SLT KECCAK256 SWAP8 MSIZE KECCAK256 0x49 0xB8 0xAC 0xEA DUP9 PUSH8 0x6B8F97C6ACF5EEDE 0xCB 0x4E 0xF9 SWAP8 SWAP14 PUSH20 0xE2F9B021757698F68664736F6C63430008140033 "},"methodIdentifiers":{"createTask(string,uint256,uint256,uint256,uint256)":"aebe7821","joinTask(uint256,string)":"46b4b271","roundSubmissionCount(uint256,uint256)":"cb9cc910","submissions(uint256,uint256,address)":"b253eff1","submitUpdate(uint256,uint256,string,uint256,uint256,bytes)":"2b8d2f61","taskClients(uint256,address)":"b863f039","taskCounter()":"58671730","tasks(uint256)":"8d977672","token()":"fc0c546a","verifier()":"2b7ac3f3"}}}}}