{
  "_format": "hh3-artifact-1",
  "contractName": "Aggregator",
  "sourceName": "contracts/Aggregator.sol",
  "abi": [
    {
      "inputs": [],
      "stateMutability": "nonpayable",
      "type": "constructor"
    },
    {
      "inputs": [
        {
          "internalType": "address",
          "name": "owner",
          "type": "address"
        }
      ],
      "name": "OwnableInvalidOwner",
      "type": "error"
    },
    {
      "inputs": [
        {
          "internalType": "address",
          "name": "account",
          "type": "address"
        }
      ],
      "name": "OwnableUnauthorizedAccount",
      "type": "error"
    },
    {
      "anonymous": false,
      "inputs": [
        {
          "indexed": true,
          "internalType": "uint256",
          "name": "taskId",
          "type": "uint256"
        },
        {
          "indexed": true,
          "internalType": "uint256",
          "name": "round",
          "type": "uint256"
        },
        {
          "indexed": false,
          "internalType": "string",
          "name": "newModelCID",
          "type": "string"
        }
      ],
      "name": "NewGlobalModel",
      "type": "event"
    },
    {
      "anonymous": false,
      "inputs": [
        {
          "indexed": true,
          "internalType": "address",
          "name": "previousOwner",
          "type": "address"
        },
        {
          "indexed": true,
          "internalType": "address",
          "name": "newOwner",
          "type": "address"
        }
      ],
      "name": "OwnershipTransferred",
      "type": "event"
    },
    {
      "inputs": [
        {
          "internalType": "uint256",
          "name": "",
          "type": "uint256"
        },
        {
          "internalType": "uint256",
          "name": "",
          "type": "uint256"
        }
      ],
      "name": "globalModels",
      "outputs": [
        {
          "internalType": "string",
          "name": "",
          "type": "string"
        }
      ],
      "stateMutability": "view",
      "type": "function"
    },
    {
      "inputs": [],
      "name": "owner",
      "outputs": [
        {
          "internalType": "address",
          "name": "",
          "type": "address"
        }
      ],
      "stateMutability": "view",
      "type": "function"
    },
    {
      "inputs": [],
      "name": "renounceOwnership",
      "outputs": [],
      "stateMutability": "nonpayable",
      "type": "function"
    },
    {
      "inputs": [
        {
          "internalType": "uint256",
          "name": "_taskId",
          "type": "uint256"
        },
        {
          "internalType": "uint256",
          "name": "_round",
          "type": "uint256"
        },
        {
          "internalType": "string",
          "name": "_newModelCID",
          "type": "string"
        }
      ],
      "name": "submitGlobalModel",
      "outputs": [],
      "stateMutability": "nonpayable",
      "type": "function"
    },
    {
      "inputs": [
        {
          "internalType": "address",
          "name": "newOwner",
          "type": "address"
        }
      ],
      "name": "transferOwnership",
      "outputs": [],
      "stateMutability": "nonpayable",
      "type": "function"
    }
  ],
  "bytecode": "0x608060405234801561000f575f80fd5b50335f73ffffffffffffffffffffffffffffffffffffffff168173ffffffffffffffffffffffffffffffffffffffff1603610081575f6040517f1e4fbdf70000000000000000000000000000000000000000000000000000000081526004016100789190610196565b60405180910390fd5b6100908161009660201b60201c565b506101af565b5f805f9054906101000a900473ffffffffffffffffffffffffffffffffffffffff169050815f806101000a81548173ffffffffffffffffffffffffffffffffffffffff021916908373ffffffffffffffffffffffffffffffffffffffff1602179055508173ffffffffffffffffffffffffffffffffffffffff168173ffffffffffffffffffffffffffffffffffffffff167f8be0079c531659141344cd1fd0a4f28419497f9722a3daafe3b4186f6b6457e060405160405180910390a35050565b5f73ffffffffffffffffffffffffffffffffffffffff82169050919050565b5f61018082610157565b9050919050565b61019081610176565b82525050565b5f6020820190506101a95f830184610187565b92915050565b610a80806101bc5f395ff3fe608060405234801561000f575f80fd5b5060043610610055575f3560e01c80633a18134b146100595780633df9590814610089578063715018a6146100a55780638da5cb5b146100af578063f2fde38b146100cd575b5f80fd5b610073600480360381019061006e9190610454565b6100e9565b604051610080919061051c565b60405180910390f35b6100a3600480360381019061009e9190610668565b61018f565b005b6100ad610203565b005b6100b7610216565b6040516100c49190610713565b60405180910390f35b6100e760048036038101906100e29190610756565b61023d565b005b6001602052815f5260405f20602052805f5260405f205f91509150508054610110906107ae565b80601f016020809104026020016040519081016040528092919081815260200182805461013c906107ae565b80156101875780601f1061015e57610100808354040283529160200191610187565b820191905f5260205f20905b81548152906001019060200180831161016a57829003601f168201915b505050505081565b6101976102c1565b8060015f8581526020019081526020015f205f8481526020019081526020015f2090816101c4919061097b565b5081837fda5fee14920085c54d958097836ad8996ad8e6e469892fe49e99c5a317b36f0c836040516101f6919061051c565b60405180910390a3505050565b61020b6102c1565b6102145f610348565b565b5f805f9054906101000a900473ffffffffffffffffffffffffffffffffffffffff16905090565b6102456102c1565b5f73ffffffffffffffffffffffffffffffffffffffff168173ffffffffffffffffffffffffffffffffffffffff16036102b5575f6040517f1e4fbdf70000000000000000000000000000000000000000000000000000000081526004016102ac9190610713565b60405180910390fd5b6102be81610348565b50565b6102c9610409565b73ffffffffffffffffffffffffffffffffffffffff166102e7610216565b73ffffffffffffffffffffffffffffffffffffffff16146103465761030a610409565b6040517f118cdaa700000000000000000000000000000000000000000000000000000000815260040161033d9190610713565b60405180910390fd5b565b5f805f9054906101000a900473ffffffffffffffffffffffffffffffffffffffff169050815f806101000a81548173ffffffffffffffffffffffffffffffffffffffff021916908373ffffffffffffffffffffffffffffffffffffffff1602179055508173ffffffffffffffffffffffffffffffffffffffff168173ffffffffffffffffffffffffffffffffffffffff167f8be0079c531659141344cd1fd0a4f28419497f9722a3daafe3b4186f6b6457e060405160405180910390a35050565b5f33905090565b5f604051905090565b5f80fd5b5f80fd5b5f819050919050565b61043381610421565b811461043d575f80fd5b50565b5f8135905061044e8161042a565b92915050565b5f806040838503121561046a57610469610419565b5b5f61047785828601610440565b925050602061048885828601610440565b9150509250929050565b5f81519050919050565b5f82825260208201905092915050565b5f5b838110156104c95780820151818401526020810190506104ae565b5f8484015250505050565b5f601f19601f8301169050919050565b5f6104ee82610492565b6104f8818561049c565b93506105088185602086016104ac565b610511816104d4565b840191505092915050565b5f6020820190508181035f83015261053481846104e4565b905092915050565b5f80fd5b5f80fd5b7f4e487b71000000000000000000000000000000000000000000000000000000005f52604160045260245ffd5b61057a826104d4565b810181811067ffffffffffffffff8211171561059957610598610544565b5b80604052505050565b5f6105ab610410565b90506105b78282610571565b919050565b5f67ffffffffffffffff8211156105d6576105d5610544565b5b6105df826104d4565b9050602081019050919050565b828183375f83830152505050565b5f61060c610607846105bc565b6105a2565b90508281526020810184848401111561062857610627610540565b5b6106338482856105ec565b509392505050565b5f82601f83011261064f5761064e61053c565b5b813561065f8482602086016105fa565b91505092915050565b5f805f6060848603121561067f5761067e610419565b5b5f61068c86828701610440565b935050602061069d86828701610440565b925050604084013567ffffffffffffffff8111156106be576106bd61041d565b5b6106ca8682870161063b565b9150509250925092565b5f73ffffffffffffffffffffffffffffffffffffffff82169050919050565b5f6106fd826106d4565b9050919050565b61070d816106f3565b82525050565b5f6020820190506107265f830184610704565b92915050565b610735816106f3565b811461073f575f80fd5b50565b5f813590506107508161072c565b92915050565b5f6020828403121561076b5761076a610419565b5b5f61077884828501610742565b91505092915050565b7f4e487b71000000000000000000000000000000000000000000000000000000005f52602260045260245ffd5b5f60028204905060018216806107c557607f821691505b6020821081036107d8576107d7610781565b5b50919050565b5f819050815f5260205f209050919050565b5f6020601f8301049050919050565b5f82821b905092915050565b5f6008830261083a7fffffffffffffffffffffffffffffffffffffffffffffffffffffffffffffffff826107ff565b61084486836107ff565b95508019841693508086168417925050509392505050565b5f819050919050565b5f61087f61087a61087584610421565b61085c565b610421565b9050919050565b5f819050919050565b61089883610865565b6108ac6108a482610886565b84845461080b565b825550505050565b5f90565b6108c06108b4565b6108cb81848461088f565b505050565b5b818110156108ee576108e35f826108b8565b6001810190506108d1565b5050565b601f82111561093357610904816107de565b61090d846107f0565b8101602085101561091c578190505b610930610928856107f0565b8301826108d0565b50505b505050565b5f82821c905092915050565b5f6109535f1984600802610938565b1980831691505092915050565b5f61096b8383610944565b9150826002028217905092915050565b61098482610492565b67ffffffffffffffff81111561099d5761099c610544565b5b6109a782546107ae565b6109b28282856108f2565b5f60209050601f8311600181146109e3575f84156109d1578287015190505b6109db8582610960565b865550610a42565b601f1984166109f1866107de565b5f5b82811015610a18578489015182556001820191506020850194506020810190506109f3565b86831015610a355784890151610a31601f891682610944565b8355505b6001600288020188555050505b50505050505056fea26469706673582212204e635c01e2519e2364e66af9624eab611108b8906bc2b1e330f8020f4ac0462964736f6c63430008140033",
  "linkReferences": {},
  "deployedLinkReferences": {},
  "immutableReferences": {},
  "inputSourceName": "project/contracts/Aggregator.sol",
  "buildInfoId": "solc-0_8_20-d81863499e8b316b7950a5d4fd47a6ba0d70cdef"
}