{
  "_format": "hh3-artifact-1",
  "contractName": "Verifier",
  "sourceName": "contracts/Verifier.sol",
  "abi": [
    {
      "inputs": [
        {
          "internalType": "bytes",
          "name": "",
          "type": "bytes"
        },
        {
          "internalType": "uint256[]",
          "name": "",
          "type": "uint256[]"
        }
      ],
      "name": "verify",
      "outputs": [
        {
          "internalType": "bool",
          "name": "",
          "type": "bool"
        }
      ],
      "stateMutability": "pure",
      "type": "function"
    }
  ],
  "bytecode": "0x608060405234801561000f575f80fd5b5061038b8061001d5f395ff3fe608060405234801561000f575f80fd5b5060043610610029575f3560e01c80639649daae1461002d575b5f80fd5b610047600480360381019061004291906102ac565b61005d565b604051610054919061033c565b60405180910390f35b5f6001905092915050565b5f604051905090565b5f80fd5b5f80fd5b5f80fd5b5f80fd5b5f601f19601f8301169050919050565b7f4e487b71000000000000000000000000000000000000000000000000000000005f52604160045260245ffd5b6100c782610081565b810181811067ffffffffffffffff821117156100e6576100e5610091565b5b80604052505050565b5f6100f8610068565b905061010482826100be565b919050565b5f67ffffffffffffffff82111561012357610122610091565b5b61012c82610081565b9050602081019050919050565b828183375f83830152505050565b5f61015961015484610109565b6100ef565b9050828152602081018484840111156101755761017461007d565b5b610180848285610139565b509392505050565b5f82601f83011261019c5761019b610079565b5b81356101ac848260208601610147565b91505092915050565b5f67ffffffffffffffff8211156101cf576101ce610091565b5b602082029050602081019050919050565b5f80fd5b5f819050919050565b6101f6816101e4565b8114610200575f80fd5b50565b5f81359050610211816101ed565b92915050565b5f610229610224846101b5565b6100ef565b9050808382526020820190506020840283018581111561024c5761024b6101e0565b5b835b8181101561027557806102618882610203565b84526020840193505060208101905061024e565b5050509392505050565b5f82601f83011261029357610292610079565b5b81356102a3848260208601610217565b91505092915050565b5f80604083850312156102c2576102c1610071565b5b5f83013567ffffffffffffffff8111156102df576102de610075565b5b6102eb85828601610188565b925050602083013567ffffffffffffffff81111561030c5761030b610075565b5b6103188582860161027f565b9150509250929050565b5f8115159050919050565b61033681610322565b82525050565b5f60208201905061034f5f83018461032d565b9291505056fea264697066735822122095ebb960d05cccfca0f6f100a4251cdc283850de23e661862bb4fa7e3cf93b0b64736f6c63430008140033",
  "linkReferences": {},
  "deployedLinkReferences": {},
  "immutableReferences": {},
  "inputSourceName": "project/contracts/Verifier.sol",
  "buildInfoId": "solc-0_8_20-d81863499e8b316b7950a5d4fd47a6ba0d70cdef"
}